{
  "_format": "hh-sol-artifact-1",
  "contractName": "PrivateBetting",
  "sourceName": "contracts/PrivateBetting.sol",
  "abi": [
    {
      "inputs": [
        {
          "internalType": "string",
          "name": "_initialEncryptedState",
          "type": "string"
        }
      ],
      "stateMutability": "nonpayable",
      "type": "constructor"
    },
    {
      "anonymous": false,
      "inputs": [
        {
          "indexed": false,
          "internalType": "string",
          "name": "winningOption",
          "type": "string"
        },
        {
          "indexed": false,
          "internalType": "string",
          "name": "finalState",
          "type": "string"
        }
      ],
      "name": "BettingFinished",
      "type": "event"
    },
    {
      "anonymous": false,
      "inputs": [
        {
          "indexed": true,
          "internalType": "address",
          "name": "winner",
          "type": "address"
        },
        {
          "indexed": false,
          "internalType": "uint256",
          "name": "amount",
          "type": "uint256"
        }
      ],
      "name": "PayoutClaimed",
      "type": "event"
    },
    {
      "anonymous": false,
      "inputs": [
        {
          "indexed": false,
          "internalType": "uint256",
          "name": "totalWinners",
          "type": "uint256"
        },
        {
          "indexed": false,
          "internalType": "uint256",
          "name": "totalPool",
          "type": "uint256"
        }
      ],
      "name": "PayoutsSet",
      "type": "event"
    },
    {
      "anonymous": false,
      "inputs": [
        {
          "indexed": false,
          "internalType": "string",
          "name": "newEncryptedState",
          "type": "string"
        }
      ],
      "name": "StateUpdated",
      "type": "event"
    },
    {
      "anonymous": false,
      "inputs": [
        {
          "indexed": true,
          "internalType": "address",
          "name": "voter",
          "type": "address"
        },
        {
          "indexed": false,
          "internalType": "string",
          "name": "encryptedVote",
          "type": "string"
        },
        {
          "indexed": false,
          "internalType": "string",
          "name": "encryptedSymKey",
          "type": "string"
        },
        {
          "indexed": false,
          "internalType": "string",
          "name": "capsule",
          "type": "string"
        },
        {
          "indexed": false,
          "internalType": "uint256",
          "name": "amount",
          "type": "uint256"
        }
      ],
      "name": "VoteSubmitted",
      "type": "event"
    },
    {
      "inputs": [],
      "name": "admin",
      "outputs": [
        {
          "internalType": "address",
          "name": "",
          "type": "address"
        }
      ],
      "stateMutability": "view",
      "type": "function"
    },
    {
      "inputs": [],
      "name": "bettingFinished",
      "outputs": [
        {
          "internalType": "bool",
          "name": "",
          "type": "bool"
        }
      ],
      "stateMutability": "view",
      "type": "function"
    },
    {
      "inputs": [],
      "name": "claimPayout",
      "outputs": [],
      "stateMutability": "nonpayable",
      "type": "function"
    },
    {
      "inputs": [],
      "name": "encryptedState",
      "outputs": [
        {
          "internalType": "string",
          "name": "",
          "type": "string"
        }
      ],
      "stateMutability": "view",
      "type": "function"
    },
    {
      "inputs": [],
      "name": "finishBetting",
      "outputs": [],
      "stateMutability": "nonpayable",
      "type": "function"
    },
    {
      "inputs": [],
      "name": "getContractBalance",
      "outputs": [
        {
          "internalType": "uint256",
          "name": "",
          "type": "uint256"
        }
      ],
      "stateMutability": "view",
      "type": "function"
    },
    {
      "inputs": [],
      "name": "getCurrentState",
      "outputs": [
        {
          "internalType": "string",
          "name": "",
          "type": "string"
        }
      ],
      "stateMutability": "view",
      "type": "function"
    },
    {
      "inputs": [
        {
          "internalType": "address",
          "name": "wallet",
          "type": "address"
        }
      ],
      "name": "getPayoutAmount",
      "outputs": [
        {
          "internalType": "uint256",
          "name": "",
          "type": "uint256"
        }
      ],
      "stateMutability": "view",
      "type": "function"
    },
    {
      "inputs": [
        {
          "internalType": "address",
          "name": "",
          "type": "address"
        }
      ],
      "name": "hasClaimed",
      "outputs": [
        {
          "internalType": "bool",
          "name": "",
          "type": "bool"
        }
      ],
      "stateMutability": "view",
      "type": "function"
    },
    {
      "inputs": [
        {
          "internalType": "address",
          "name": "wallet",
          "type": "address"
        }
      ],
      "name": "hasClaimedPayout",
      "outputs": [
        {
          "internalType": "bool",
          "name": "",
          "type": "bool"
        }
      ],
      "stateMutability": "view",
      "type": "function"
    },
    {
      "inputs": [
        {
          "internalType": "address",
          "name": "",
          "type": "address"
        }
      ],
      "name": "payouts",
      "outputs": [
        {
          "internalType": "uint256",
          "name": "",
          "type": "uint256"
        }
      ],
      "stateMutability": "view",
      "type": "function"
    },
    {
      "inputs": [
        {
          "internalType": "address[]",
          "name": "winners",
          "type": "address[]"
        },
        {
          "internalType": "uint256[]",
          "name": "amounts",
          "type": "uint256[]"
        }
      ],
      "name": "setPayouts",
      "outputs": [],
      "stateMutability": "nonpayable",
      "type": "function"
    },
    {
      "inputs": [],
      "name": "status",
      "outputs": [
        {
          "internalType": "enum PrivateBetting.BettingStatus",
          "name": "",
          "type": "uint8"
        }
      ],
      "stateMutability": "view",
      "type": "function"
    },
    {
      "inputs": [
        {
          "internalType": "string",
          "name": "newEncryptedState",
          "type": "string"
        }
      ],
      "name": "updateState",
      "outputs": [],
      "stateMutability": "nonpayable",
      "type": "function"
    },
    {
      "inputs": [
        {
          "internalType": "string",
          "name": "encryptedVote",
          "type": "string"
        },
        {
          "internalType": "string",
          "name": "encryptedSymKey",
          "type": "string"
        },
        {
          "internalType": "string",
          "name": "capsule",
          "type": "string"
        }
      ],
      "name": "vote",
      "outputs": [],
      "stateMutability": "payable",
      "type": "function"
    }
  ],
  "bytecode": "0x60806040523480156200001157600080fd5b50604051620025db380380620025db83398181016040528101906200003791906200026c565b336000806101000a81548173ffffffffffffffffffffffffffffffffffffffff021916908373ffffffffffffffffffffffffffffffffffffffff160217905550806001908162000088919062000508565b506000600260016101000a81548160ff02191690836002811115620000b257620000b1620005ef565b5b02179055506000600260006101000a81548160ff021916908315150217905550506200061e565b6000604051905090565b600080fd5b600080fd5b600080fd5b600080fd5b6000601f19601f8301169050919050565b7f4e487b7100000000000000000000000000000000000000000000000000000000600052604160045260246000fd5b6200014282620000f7565b810181811067ffffffffffffffff8211171562000164576200016362000108565b5b80604052505050565b600062000179620000d9565b905062000187828262000137565b919050565b600067ffffffffffffffff821115620001aa57620001a962000108565b5b620001b582620000f7565b9050602081019050919050565b60005b83811015620001e2578082015181840152602081019050620001c5565b60008484015250505050565b600062000205620001ff846200018c565b6200016d565b905082815260208101848484011115620002245762000223620000f2565b5b62000231848285620001c2565b509392505050565b600082601f830112620002515762000250620000ed565b5b815162000263848260208601620001ee565b91505092915050565b600060208284031215620002855762000284620000e3565b5b600082015167ffffffffffffffff811115620002a657620002a5620000e8565b5b620002b48482850162000239565b91505092915050565b600081519050919050565b7f4e487b7100000000000000000000000000000000000000000000000000000000600052602260045260246000fd5b600060028204905060018216806200031057607f821691505b602082108103620003265762000325620002c8565b5b50919050565b60008190508160005260206000209050919050565b60006020601f8301049050919050565b600082821b905092915050565b600060088302620003907fffffffffffffffffffffffffffffffffffffffffffffffffffffffffffffffff8262000351565b6200039c868362000351565b95508019841693508086168417925050509392505050565b6000819050919050565b6000819050919050565b6000620003e9620003e3620003dd84620003b4565b620003be565b620003b4565b9050919050565b6000819050919050565b6200040583620003c8565b6200041d6200041482620003f0565b8484546200035e565b825550505050565b600090565b6200043462000425565b62000441818484620003fa565b505050565b5b8181101562000469576200045d6000826200042a565b60018101905062000447565b5050565b601f821115620004b85762000482816200032c565b6200048d8462000341565b810160208510156200049d578190505b620004b5620004ac8562000341565b83018262000446565b50505b505050565b600082821c905092915050565b6000620004dd60001984600802620004bd565b1980831691505092915050565b6000620004f88383620004ca565b9150826002028217905092915050565b6200051382620002bd565b67ffffffffffffffff8111156200052f576200052e62000108565b5b6200053b8254620002f7565b620005488282856200046d565b600060209050601f8311600181146200058057600084156200056b578287015190505b620005778582620004ea565b865550620005e7565b601f19841662000590866200032c565b60005b82811015620005ba5784890151825560018201915060208501945060208101905062000593565b86831015620005da5784890151620005d6601f891682620004ca565b8355505b6001600288020188555050505b505050505050565b7f4e487b7100000000000000000000000000000000000000000000000000000000600052602160045260246000fd5b611fad806200062e6000396000f3fe6080604052600436106100e85760003560e01c806379ff2e6d1161008a578063c14f5c6411610059578063c14f5c64146102d5578063e17685de14610300578063e88499a91461033d578063f851a44014610354576100e8565b806379ff2e6d1461024e57806394138cac1461027757806395f59fe11461028e57806397d2f8c8146102aa576100e8565b80635362e464116100c65780635362e4641461018057806365bcfbe7146101a95780636f9fb98a146101e657806373b2e80e14610211576100e8565b80630349d98f146100ed578063200d2ed21461012a578063378aa70114610155575b600080fd5b3480156100f957600080fd5b50610114600480360381019061010f9190610f63565b61037f565b6040516101219190610fab565b60405180910390f35b34801561013657600080fd5b5061013f6103d5565b60405161014c919061103d565b60405180910390f35b34801561016157600080fd5b5061016a6103e8565b60405161017791906110e8565b60405180910390f35b34801561018c57600080fd5b506101a760048036038101906101a2919061134b565b61047a565b005b3480156101b557600080fd5b506101d060048036038101906101cb9190610f63565b61072f565b6040516101dd91906113d2565b60405180910390f35b3480156101f257600080fd5b506101fb610747565b60405161020891906113d2565b60405180910390f35b34801561021d57600080fd5b5061023860048036038101906102339190610f63565b61074f565b6040516102459190610fab565b60405180910390f35b34801561025a57600080fd5b50610275600480360381019061027091906114a2565b61076f565b005b34801561028357600080fd5b5061028c61082f565b005b6102a860048036038101906102a391906114eb565b6109b3565b005b3480156102b657600080fd5b506102bf610ac5565b6040516102cc91906110e8565b60405180910390f35b3480156102e157600080fd5b506102ea610b53565b6040516102f79190610fab565b60405180910390f35b34801561030c57600080fd5b5061032760048036038101906103229190610f63565b610b66565b60405161033491906113d2565b60405180910390f35b34801561034957600080fd5b50610352610baf565b005b34801561036057600080fd5b50610369610ecd565b60405161037691906115a1565b60405180910390f35b6000600460008373ffffffffffffffffffffffffffffffffffffffff1673ffffffffffffffffffffffffffffffffffffffff16815260200190815260200160002060009054906101000a900460ff169050919050565b600260019054906101000a900460ff1681565b6060600180546103f7906115eb565b80601f0160208091040260200160405190810160405280929190818152602001828054610423906115eb565b80156104705780601f1061044557610100808354040283529160200191610470565b820191906000526020600020905b81548152906001019060200180831161045357829003601f168201915b5050505050905090565b60008054906101000a900473ffffffffffffffffffffffffffffffffffffffff1673ffffffffffffffffffffffffffffffffffffffff163373ffffffffffffffffffffffffffffffffffffffff1614610508576040517f08c379a00000000000000000000000000000000000000000000000000000000081526004016104ff90611668565b60405180910390fd5b6001600281111561051c5761051b610fc6565b5b600260019054906101000a900460ff16600281111561053e5761053d610fc6565b5b1461057e576040517f08c379a0000000000000000000000000000000000000000000000000000000008152600401610575906116fa565b60405180910390fd5b80518251146105c2576040517f08c379a00000000000000000000000000000000000000000000000000000000081526004016105b990611766565b60405180910390fd5b6000805b8351811015610682578281815181106105e2576105e1611786565b5b60200260200101516003600086848151811061060157610600611786565b5b602002602001015173ffffffffffffffffffffffffffffffffffffffff1673ffffffffffffffffffffffffffffffffffffffff1681526020019081526020016000208190555082818151811061065a57610659611786565b5b60200260200101518261066d91906117e4565b9150808061067a90611818565b9150506105c6565b50478111156106c6576040517f08c379a00000000000000000000000000000000000000000000000000000000081526004016106bd906118ac565b60405180910390fd5b60028060016101000a81548160ff021916908360028111156106eb576106ea610fc6565b5b02179055507fd5d5d049e9608f1efc24130fb8104fb6919491de8667a9d7aad9efe3d24892d28351826040516107229291906118cc565b60405180910390a1505050565b60036020528060005260406000206000915090505481565b600047905090565b60046020528060005260406000206000915054906101000a900460ff1681565b6000600281111561078357610782610fc6565b5b600260019054906101000a900460ff1660028111156107a5576107a4610fc6565b5b146107e5576040517f08c379a00000000000000000000000000000000000000000000000000000000081526004016107dc90611941565b60405180910390fd5b80600190816107f49190611b0d565b507f40a166db587ec103f66a58962fcbee2d88c47b4b400e972cd23af7e15ef7908b8160405161082491906110e8565b60405180910390a150565b60008054906101000a900473ffffffffffffffffffffffffffffffffffffffff1673ffffffffffffffffffffffffffffffffffffffff163373ffffffffffffffffffffffffffffffffffffffff16146108bd576040517f08c379a00000000000000000000000000000000000000000000000000000000081526004016108b490611668565b60405180910390fd5b600060028111156108d1576108d0610fc6565b5b600260019054906101000a900460ff1660028111156108f3576108f2610fc6565b5b14610933576040517f08c379a000000000000000000000000000000000000000000000000000000000815260040161092a90611941565b60405180910390fd5b6001600260016101000a81548160ff0219169083600281111561095957610958610fc6565b5b02179055506001600260006101000a81548160ff0219169083151502179055507f57016a9bd3d759d064d909ae761152766da08d08599dcd0bc6527d0c4a28c8c760016040516109a99190611c89565b60405180910390a1565b600060028111156109c7576109c6610fc6565b5b600260019054906101000a900460ff1660028111156109e9576109e8610fc6565b5b14610a29576040517f08c379a0000000000000000000000000000000000000000000000000000000008152600401610a2090611941565b60405180910390fd5b60003411610a6c576040517f08c379a0000000000000000000000000000000000000000000000000000000008152600401610a6390611d0a565b60405180910390fd5b3373ffffffffffffffffffffffffffffffffffffffff167f3ac3e7b4f5ab6f44c9c853409a305738fbfd4e666c9b70ba2723092f694c73e784848434604051610ab89493929190611d2a565b60405180910390a2505050565b60018054610ad2906115eb565b80601f0160208091040260200160405190810160405280929190818152602001828054610afe906115eb565b8015610b4b5780601f10610b2057610100808354040283529160200191610b4b565b820191906000526020600020905b815481529060010190602001808311610b2e57829003601f168201915b505050505081565b600260009054906101000a900460ff1681565b6000600360008373ffffffffffffffffffffffffffffffffffffffff1673ffffffffffffffffffffffffffffffffffffffff168152602001908152602001600020549050919050565b600280811115610bc257610bc1610fc6565b5b600260019054906101000a900460ff166002811115610be457610be3610fc6565b5b14610c24576040517f08c379a0000000000000000000000000000000000000000000000000000000008152600401610c1b90611dd0565b60405180910390fd5b6000600360003373ffffffffffffffffffffffffffffffffffffffff1673ffffffffffffffffffffffffffffffffffffffff1681526020019081526020016000205411610ca6576040517f08c379a0000000000000000000000000000000000000000000000000000000008152600401610c9d90611e3c565b60405180910390fd5b600460003373ffffffffffffffffffffffffffffffffffffffff1673ffffffffffffffffffffffffffffffffffffffff16815260200190815260200160002060009054906101000a900460ff1615610d33576040517f08c379a0000000000000000000000000000000000000000000000000000000008152600401610d2a90611ea8565b60405180910390fd5b6000600360003373ffffffffffffffffffffffffffffffffffffffff1673ffffffffffffffffffffffffffffffffffffffff1681526020019081526020016000205490506001600460003373ffffffffffffffffffffffffffffffffffffffff1673ffffffffffffffffffffffffffffffffffffffff16815260200190815260200160002060006101000a81548160ff02191690831515021790555060003373ffffffffffffffffffffffffffffffffffffffff1682604051610df590611ef6565b60006040518083038185875af1925050503d8060008114610e32576040519150601f19603f3d011682016040523d82523d6000602084013e610e37565b606091505b5050905080610e7b576040517f08c379a0000000000000000000000000000000000000000000000000000000008152600401610e7290611f57565b60405180910390fd5b3373ffffffffffffffffffffffffffffffffffffffff167fec68461f5d4cc45c89e914cb8826a966c73dd35e5f97815ece0a01ffa4a025a683604051610ec191906113d2565b60405180910390a25050565b60008054906101000a900473ffffffffffffffffffffffffffffffffffffffff1681565b6000604051905090565b600080fd5b600080fd5b600073ffffffffffffffffffffffffffffffffffffffff82169050919050565b6000610f3082610f05565b9050919050565b610f4081610f25565b8114610f4b57600080fd5b50565b600081359050610f5d81610f37565b92915050565b600060208284031215610f7957610f78610efb565b5b6000610f8784828501610f4e565b91505092915050565b60008115159050919050565b610fa581610f90565b82525050565b6000602082019050610fc06000830184610f9c565b92915050565b7f4e487b7100000000000000000000000000000000000000000000000000000000600052602160045260246000fd5b6003811061100657611005610fc6565b5b50565b600081905061101782610ff5565b919050565b600061102782611009565b9050919050565b6110378161101c565b82525050565b6000602082019050611052600083018461102e565b92915050565b600081519050919050565b600082825260208201905092915050565b60005b83811015611092578082015181840152602081019050611077565b60008484015250505050565b6000601f19601f8301169050919050565b60006110ba82611058565b6110c48185611063565b93506110d4818560208601611074565b6110dd8161109e565b840191505092915050565b6000602082019050818103600083015261110281846110af565b905092915050565b600080fd5b7f4e487b7100000000000000000000000000000000000000000000000000000000600052604160045260246000fd5b6111478261109e565b810181811067ffffffffffffffff821117156111665761116561110f565b5b80604052505050565b6000611179610ef1565b9050611185828261113e565b919050565b600067ffffffffffffffff8211156111a5576111a461110f565b5b602082029050602081019050919050565b600080fd5b60006111ce6111c98461118a565b61116f565b905080838252602082019050602084028301858111156111f1576111f06111b6565b5b835b8181101561121a57806112068882610f4e565b8452602084019350506020810190506111f3565b5050509392505050565b600082601f8301126112395761123861110a565b5b81356112498482602086016111bb565b91505092915050565b600067ffffffffffffffff82111561126d5761126c61110f565b5b602082029050602081019050919050565b6000819050919050565b6112918161127e565b811461129c57600080fd5b50565b6000813590506112ae81611288565b92915050565b60006112c76112c284611252565b61116f565b905080838252602082019050602084028301858111156112ea576112e96111b6565b5b835b8181101561131357806112ff888261129f565b8452602084019350506020810190506112ec565b5050509392505050565b600082601f8301126113325761133161110a565b5b81356113428482602086016112b4565b91505092915050565b6000806040838503121561136257611361610efb565b5b600083013567ffffffffffffffff8111156113805761137f610f00565b5b61138c85828601611224565b925050602083013567ffffffffffffffff8111156113ad576113ac610f00565b5b6113b98582860161131d565b9150509250929050565b6113cc8161127e565b82525050565b60006020820190506113e760008301846113c3565b92915050565b600080fd5b600067ffffffffffffffff82111561140d5761140c61110f565b5b6114168261109e565b9050602081019050919050565b82818337600083830152505050565b6000611445611440846113f2565b61116f565b905082815260208101848484011115611461576114606113ed565b5b61146c848285611423565b509392505050565b600082601f8301126114895761148861110a565b5b8135611499848260208601611432565b91505092915050565b6000602082840312156114b8576114b7610efb565b5b600082013567ffffffffffffffff8111156114d6576114d5610f00565b5b6114e284828501611474565b91505092915050565b60008060006060848603121561150457611503610efb565b5b600084013567ffffffffffffffff81111561152257611521610f00565b5b61152e86828701611474565b935050602084013567ffffffffffffffff81111561154f5761154e610f00565b5b61155b86828701611474565b925050604084013567ffffffffffffffff81111561157c5761157b610f00565b5b61158886828701611474565b9150509250925092565b61159b81610f25565b82525050565b60006020820190506115b66000830184611592565b92915050565b7f4e487b7100000000000000000000000000000000000000000000000000000000600052602260045260246000fd5b6000600282049050600182168061160357607f821691505b602082108103611616576116156115bc565b5b50919050565b7f4f6e6c792061646d696e2063616e2063616c6c20746869730000000000000000600082015250565b6000611652601883611063565b915061165d8261161c565b602082019050919050565b6000602082019050818103600083015261168181611645565b9050919050565b7f42657474696e67206e6f742066696e6973686564206f72207061796f7574732060008201527f616c726561647920736574000000000000000000000000000000000000000000602082015250565b60006116e4602b83611063565b91506116ef82611688565b604082019050919050565b60006020820190508181036000830152611713816116d7565b9050919050565b7f417272617973206c656e677468206d69736d6174636800000000000000000000600082015250565b6000611750601683611063565b915061175b8261171a565b602082019050919050565b6000602082019050818103600083015261177f81611743565b9050919050565b7f4e487b7100000000000000000000000000000000000000000000000000000000600052603260045260246000fd5b7f4e487b7100000000000000000000000000000000000000000000000000000000600052601160045260246000fd5b60006117ef8261127e565b91506117fa8361127e565b9250828201905080821115611812576118116117b5565b5b92915050565b60006118238261127e565b91507fffffffffffffffffffffffffffffffffffffffffffffffffffffffffffffffff8203611855576118546117b5565b5b600182019050919050565b7f496e73756666696369656e7420636f6e74726163742062616c616e6365000000600082015250565b6000611896601d83611063565b91506118a182611860565b602082019050919050565b600060208201905081810360008301526118c581611889565b9050919050565b60006040820190506118e160008301856113c3565b6118ee60208301846113c3565b9392505050565b7f42657474696e67206973206e6f74206163746976650000000000000000000000600082015250565b600061192b601583611063565b9150611936826118f5565b602082019050919050565b6000602082019050818103600083015261195a8161191e565b9050919050565b60008190508160005260206000209050919050565b60006020601f8301049050919050565b600082821b905092915050565b6000600883026119c37fffffffffffffffffffffffffffffffffffffffffffffffffffffffffffffffff82611986565b6119cd8683611986565b95508019841693508086168417925050509392505050565b6000819050919050565b6000611a0a611a05611a008461127e565b6119e5565b61127e565b9050919050565b6000819050919050565b611a24836119ef565b611a38611a3082611a11565b848454611993565b825550505050565b600090565b611a4d611a40565b611a58818484611a1b565b505050565b5b81811015611a7c57611a71600082611a45565b600181019050611a5e565b5050565b601f821115611ac157611a9281611961565b611a9b84611976565b81016020851015611aaa578190505b611abe611ab685611976565b830182611a5d565b50505b505050565b600082821c905092915050565b6000611ae460001984600802611ac6565b1980831691505092915050565b6000611afd8383611ad3565b9150826002028217905092915050565b611b1682611058565b67ffffffffffffffff811115611b2f57611b2e61110f565b5b611b3982546115eb565b611b44828285611a80565b600060209050601f831160018114611b775760008415611b65578287015190505b611b6f8582611af1565b865550611bd7565b601f198416611b8586611961565b60005b82811015611bad57848901518255600182019150602085019450602081019050611b88565b86831015611bca5784890151611bc6601f891682611ad3565b8355505b6001600288020188555050505b505050505050565b50565b6000611bef600083611063565b9150611bfa82611bdf565b600082019050919050565b60008154611c12816115eb565b611c1c8186611063565b94506001821660008114611c375760018114611c4d57611c80565b60ff198316865281151560200286019350611c80565b611c5685611961565b60005b83811015611c7857815481890152600182019150602081019050611c59565b808801955050505b50505092915050565b60006040820190508181036000830152611ca281611be2565b90508181036020830152611cb68184611c05565b905092915050565b7f4d7573742073656e642066756e6473207769746820766f746500000000000000600082015250565b6000611cf4601983611063565b9150611cff82611cbe565b602082019050919050565b60006020820190508181036000830152611d2381611ce7565b9050919050565b60006080820190508181036000830152611d4481876110af565b90508181036020830152611d5881866110af565b90508181036040830152611d6c81856110af565b9050611d7b60608301846113c3565b95945050505050565b7f5061796f757473206e6f74207365742079657400000000000000000000000000600082015250565b6000611dba601383611063565b9150611dc582611d84565b602082019050919050565b60006020820190508181036000830152611de981611dad565b9050919050565b7f4e6f207061796f757420617661696c61626c6500000000000000000000000000600082015250565b6000611e26601383611063565b9150611e3182611df0565b602082019050919050565b60006020820190508181036000830152611e5581611e19565b9050919050565b7f416c726561647920636c61696d65640000000000000000000000000000000000600082015250565b6000611e92600f83611063565b9150611e9d82611e5c565b602082019050919050565b60006020820190508181036000830152611ec181611e85565b9050919050565b600081905092915050565b6000611ee0600083611ec8565b9150611eeb82611bdf565b600082019050919050565b6000611f0182611ed3565b9150819050919050565b7f5472616e73666572206661696c65640000000000000000000000000000000000600082015250565b6000611f41600f83611063565b9150611f4c82611f0b565b602082019050919050565b60006020820190508181036000830152611f7081611f34565b905091905056fea2646970667358221220352ae322faf52d6b35643d04434ae24132d2004b2825af0a350159f9a3829c4d64736f6c63430008140033",
  "linkReferences": {},
  "deployedLinkReferences": {}
}