{
  "_format": "hh-sol-artifact-1",
  "contractName": "PrivateBetting",
  "sourceName": "contracts/PrivateBetting.sol",
  "abi": [
    {
      "inputs": [
        {
          "internalType": "string",
          "name": "_initialEncryptedState",
          "type": "string"
        },
        {
          "internalType": "address",
          "name": "_tokenAddress",
          "type": "address"
        }
      ],
      "stateMutability": "nonpayable",
      "type": "constructor"
    },
    {
      "anonymous": false,
      "inputs": [
        {
          "indexed": false,
          "internalType": "string",
          "name": "winningOption",
          "type": "string"
        },
        {
          "indexed": false,
          "internalType": "string",
          "name": "finalState",
          "type": "string"
        }
      ],
      "name": "BettingFinished",
      "type": "event"
    },
    {
      "anonymous": false,
      "inputs": [
        {
          "indexed": true,
          "internalType": "address",
          "name": "winner",
          "type": "address"
        },
        {
          "indexed": false,
          "internalType": "uint256",
          "name": "amount",
          "type": "uint256"
        }
      ],
      "name": "PayoutClaimed",
      "type": "event"
    },
    {
      "anonymous": false,
      "inputs": [
        {
          "indexed": false,
          "internalType": "uint256",
          "name": "totalWinners",
          "type": "uint256"
        },
        {
          "indexed": false,
          "internalType": "uint256",
          "name": "totalPool",
          "type": "uint256"
        }
      ],
      "name": "PayoutsSet",
      "type": "event"
    },
    {
      "anonymous": false,
      "inputs": [
        {
          "indexed": false,
          "internalType": "string",
          "name": "newEncryptedState",
          "type": "string"
        }
      ],
      "name": "StateUpdated",
      "type": "event"
    },
    {
      "anonymous": false,
      "inputs": [
        {
          "indexed": true,
          "internalType": "address",
          "name": "voter",
          "type": "address"
        },
        {
          "indexed": false,
          "internalType": "string",
          "name": "encryptedVote",
          "type": "string"
        },
        {
          "indexed": false,
          "internalType": "string",
          "name": "encryptedSymKey",
          "type": "string"
        },
        {
          "indexed": false,
          "internalType": "string",
          "name": "capsule",
          "type": "string"
        },
        {
          "indexed": false,
          "internalType": "uint256",
          "name": "amount",
          "type": "uint256"
        }
      ],
      "name": "VoteSubmitted",
      "type": "event"
    },
    {
      "inputs": [],
      "name": "admin",
      "outputs": [
        {
          "internalType": "address",
          "name": "",
          "type": "address"
        }
      ],
      "stateMutability": "view",
      "type": "function"
    },
    {
      "inputs": [],
      "name": "bettingFinished",
      "outputs": [
        {
          "internalType": "bool",
          "name": "",
          "type": "bool"
        }
      ],
      "stateMutability": "view",
      "type": "function"
    },
    {
      "inputs": [],
      "name": "claimPayout",
      "outputs": [],
      "stateMutability": "nonpayable",
      "type": "function"
    },
    {
      "inputs": [],
      "name": "encryptedState",
      "outputs": [
        {
          "internalType": "string",
          "name": "",
          "type": "string"
        }
      ],
      "stateMutability": "view",
      "type": "function"
    },
    {
      "inputs": [],
      "name": "finishBetting",
      "outputs": [],
      "stateMutability": "nonpayable",
      "type": "function"
    },
    {
      "inputs": [],
      "name": "getContractBalance",
      "outputs": [
        {
          "internalType": "uint256",
          "name": "",
          "type": "uint256"
        }
      ],
      "stateMutability": "view",
      "type": "function"
    },
    {
      "inputs": [],
      "name": "getCurrentState",
      "outputs": [
        {
          "internalType": "string",
          "name": "",
          "type": "string"
        }
      ],
      "stateMutability": "view",
      "type": "function"
    },
    {
      "inputs": [
        {
          "internalType": "address",
          "name": "wallet",
          "type": "address"
        }
      ],
      "name": "getPayoutAmount",
      "outputs": [
        {
          "internalType": "uint256",
          "name": "",
          "type": "uint256"
        }
      ],
      "stateMutability": "view",
      "type": "function"
    },
    {
      "inputs": [],
      "name": "getTokenAddress",
      "outputs": [
        {
          "internalType": "address",
          "name": "",
          "type": "address"
        }
      ],
      "stateMutability": "view",
      "type": "function"
    },
    {
      "inputs": [
        {
          "internalType": "address",
          "name": "",
          "type": "address"
        }
      ],
      "name": "hasClaimed",
      "outputs": [
        {
          "internalType": "bool",
          "name": "",
          "type": "bool"
        }
      ],
      "stateMutability": "view",
      "type": "function"
    },
    {
      "inputs": [
        {
          "internalType": "address",
          "name": "wallet",
          "type": "address"
        }
      ],
      "name": "hasClaimedPayout",
      "outputs": [
        {
          "internalType": "bool",
          "name": "",
          "type": "bool"
        }
      ],
      "stateMutability": "view",
      "type": "function"
    },
    {
      "inputs": [
        {
          "internalType": "address",
          "name": "",
          "type": "address"
        }
      ],
      "name": "payouts",
      "outputs": [
        {
          "internalType": "uint256",
          "name": "",
          "type": "uint256"
        }
      ],
      "stateMutability": "view",
      "type": "function"
    },
    {
      "inputs": [
        {
          "internalType": "address[]",
          "name": "winners",
          "type": "address[]"
        },
        {
          "internalType": "uint256[]",
          "name": "amounts",
          "type": "uint256[]"
        },
        {
          "internalType": "bool",
          "name": "isLastBatch",
          "type": "bool"
        }
      ],
      "name": "setPayouts",
      "outputs": [],
      "stateMutability": "nonpayable",
      "type": "function"
    },
    {
      "inputs": [],
      "name": "status",
      "outputs": [
        {
          "internalType": "enum PrivateBetting.BettingStatus",
          "name": "",
          "type": "uint8"
        }
      ],
      "stateMutability": "view",
      "type": "function"
    },
    {
      "inputs": [],
      "name": "token",
      "outputs": [
        {
          "internalType": "contract IERC20",
          "name": "",
          "type": "address"
        }
      ],
      "stateMutability": "view",
      "type": "function"
    },
    {
      "inputs": [
        {
          "internalType": "string",
          "name": "newEncryptedState",
          "type": "string"
        }
      ],
      "name": "updateState",
      "outputs": [],
      "stateMutability": "nonpayable",
      "type": "function"
    },
    {
      "inputs": [
        {
          "internalType": "string",
          "name": "encryptedVote",
          "type": "string"
        },
        {
          "internalType": "string",
          "name": "encryptedSymKey",
          "type": "string"
        },
        {
          "internalType": "string",
          "name": "capsule",
          "type": "string"
        },
        {
          "internalType": "uint256",
          "name": "amount",
          "type": "uint256"
        }
      ],
      "name": "vote",
      "outputs": [],
      "stateMutability": "nonpayable",
      "type": "function"
    }
  ],
  "bytecode": "0x60806040523480156200001157600080fd5b50604051620028da380380620028da833981810160405281019062000037919062000313565b336000806101000a81548173ffffffffffffffffffffffffffffffffffffffff021916908373ffffffffffffffffffffffffffffffffffffffff1602179055508160019081620000889190620005c4565b506000600260156101000a81548160ff02191690836002811115620000b257620000b1620006ab565b5b02179055506000600260006101000a81548160ff02191690831515021790555080600260016101000a81548173ffffffffffffffffffffffffffffffffffffffff021916908373ffffffffffffffffffffffffffffffffffffffff1602179055505050620006da565b6000604051905090565b600080fd5b600080fd5b600080fd5b600080fd5b6000601f19601f8301169050919050565b7f4e487b7100000000000000000000000000000000000000000000000000000000600052604160045260246000fd5b620001848262000139565b810181811067ffffffffffffffff82111715620001a657620001a56200014a565b5b80604052505050565b6000620001bb6200011b565b9050620001c9828262000179565b919050565b600067ffffffffffffffff821115620001ec57620001eb6200014a565b5b620001f78262000139565b9050602081019050919050565b60005b838110156200022457808201518184015260208101905062000207565b60008484015250505050565b6000620002476200024184620001ce565b620001af565b90508281526020810184848401111562000266576200026562000134565b5b6200027384828562000204565b509392505050565b600082601f8301126200029357620002926200012f565b5b8151620002a584826020860162000230565b91505092915050565b600073ffffffffffffffffffffffffffffffffffffffff82169050919050565b6000620002db82620002ae565b9050919050565b620002ed81620002ce565b8114620002f957600080fd5b50565b6000815190506200030d81620002e2565b92915050565b600080604083850312156200032d576200032c62000125565b5b600083015167ffffffffffffffff8111156200034e576200034d6200012a565b5b6200035c858286016200027b565b92505060206200036f85828601620002fc565b9150509250929050565b600081519050919050565b7f4e487b7100000000000000000000000000000000000000000000000000000000600052602260045260246000fd5b60006002820490506001821680620003cc57607f821691505b602082108103620003e257620003e162000384565b5b50919050565b60008190508160005260206000209050919050565b60006020601f8301049050919050565b600082821b905092915050565b6000600883026200044c7fffffffffffffffffffffffffffffffffffffffffffffffffffffffffffffffff826200040d565b6200045886836200040d565b95508019841693508086168417925050509392505050565b6000819050919050565b6000819050919050565b6000620004a56200049f620004998462000470565b6200047a565b62000470565b9050919050565b6000819050919050565b620004c18362000484565b620004d9620004d082620004ac565b8484546200041a565b825550505050565b600090565b620004f0620004e1565b620004fd818484620004b6565b505050565b5b81811015620005255762000519600082620004e6565b60018101905062000503565b5050565b601f82111562000574576200053e81620003e8565b6200054984620003fd565b8101602085101562000559578190505b620005716200056885620003fd565b83018262000502565b50505b505050565b600082821c905092915050565b6000620005996000198460080262000579565b1980831691505092915050565b6000620005b4838362000586565b9150826002028217905092915050565b620005cf8262000379565b67ffffffffffffffff811115620005eb57620005ea6200014a565b5b620005f78254620003b3565b6200060482828562000529565b600060209050601f8311600181146200063c576000841562000627578287015190505b620006338582620005a6565b865550620006a3565b601f1984166200064c86620003e8565b60005b8281101562000676578489015182556001820191506020850194506020810190506200064f565b8683101562000696578489015162000692601f89168262000586565b8355505b6001600288020188555050505b505050505050565b7f4e487b7100000000000000000000000000000000000000000000000000000000600052602160045260246000fd5b6121f080620006ea6000396000f3fe608060405234801561001057600080fd5b506004361061010b5760003560e01c806394138cac116100a2578063d6db319c11610071578063d6db319c14610296578063e17685de146102b2578063e88499a9146102e2578063f851a440146102ec578063fc0c546a1461030a5761010b565b806394138cac1461023457806397d2f8c81461023e578063c14f5c641461025c578063cd9dd5041461027a5761010b565b806365bcfbe7116100de57806365bcfbe71461019a5780636f9fb98a146101ca57806373b2e80e146101e857806379ff2e6d146102185761010b565b80630349d98f1461011057806310fe9ae814610140578063200d2ed21461015e578063378aa7011461017c575b600080fd5b61012a600480360381019061012591906110a7565b610328565b60405161013791906110ef565b60405180910390f35b61014861037e565b6040516101559190611119565b60405180910390f35b6101666103a8565b60405161017391906111ab565b60405180910390f35b6101846103bb565b6040516101919190611256565b60405180910390f35b6101b460048036038101906101af91906110a7565b61044d565b6040516101c19190611291565b60405180910390f35b6101d2610465565b6040516101df9190611291565b60405180910390f35b61020260048036038101906101fd91906110a7565b610508565b60405161020f91906110ef565b60405180910390f35b610232600480360381019061022d91906113e1565b610528565b005b61023c6105e8565b005b61024661076c565b6040516102539190611256565b60405180910390f35b6102646107fa565b60405161027191906110ef565b60405180910390f35b610294600480360381019061028f9190611456565b61080d565b005b6102b060048036038101906102ab91906116c8565b610a01565b005b6102cc60048036038101906102c791906110a7565b610c52565b6040516102d99190611291565b60405180910390f35b6102ea610c9b565b005b6102f4610feb565b6040516103019190611119565b60405180910390f35b61031261100f565b60405161031f91906117b2565b60405180910390f35b6000600460008373ffffffffffffffffffffffffffffffffffffffff1673ffffffffffffffffffffffffffffffffffffffff16815260200190815260200160002060009054906101000a900460ff169050919050565b6000600260019054906101000a900473ffffffffffffffffffffffffffffffffffffffff16905090565b600260159054906101000a900460ff1681565b6060600180546103ca906117fc565b80601f01602080910402602001604051908101604052809291908181526020018280546103f6906117fc565b80156104435780601f1061041857610100808354040283529160200191610443565b820191906000526020600020905b81548152906001019060200180831161042657829003601f168201915b5050505050905090565b60036020528060005260406000206000915090505481565b6000600260019054906101000a900473ffffffffffffffffffffffffffffffffffffffff1673ffffffffffffffffffffffffffffffffffffffff166370a08231306040518263ffffffff1660e01b81526004016104c29190611119565b602060405180830381865afa1580156104df573d6000803e3d6000fd5b505050506040513d601f19601f820116820180604052508101906105039190611842565b905090565b60046020528060005260406000206000915054906101000a900460ff1681565b6000600281111561053c5761053b611134565b5b600260159054906101000a900460ff16600281111561055e5761055d611134565b5b1461059e576040517f08c379a0000000000000000000000000000000000000000000000000000000008152600401610595906118bb565b60405180910390fd5b80600190816105ad9190611a7d565b507f40a166db587ec103f66a58962fcbee2d88c47b4b400e972cd23af7e15ef7908b816040516105dd9190611256565b60405180910390a150565b60008054906101000a900473ffffffffffffffffffffffffffffffffffffffff1673ffffffffffffffffffffffffffffffffffffffff163373ffffffffffffffffffffffffffffffffffffffff1614610676576040517f08c379a000000000000000000000000000000000000000000000000000000000815260040161066d90611b9b565b60405180910390fd5b6000600281111561068a57610689611134565b5b600260159054906101000a900460ff1660028111156106ac576106ab611134565b5b146106ec576040517f08c379a00000000000000000000000000000000000000000000000000000000081526004016106e3906118bb565b60405180910390fd5b6001600260156101000a81548160ff0219169083600281111561071257610711611134565b5b02179055506001600260006101000a81548160ff0219169083151502179055507f57016a9bd3d759d064d909ae761152766da08d08599dcd0bc6527d0c4a28c8c760016040516107629190611c65565b60405180910390a1565b60018054610779906117fc565b80601f01602080910402602001604051908101604052809291908181526020018280546107a5906117fc565b80156107f25780601f106107c7576101008083540402835291602001916107f2565b820191906000526020600020905b8154815290600101906020018083116107d557829003601f168201915b505050505081565b600260009054906101000a900460ff1681565b6000600281111561082157610820611134565b5b600260159054906101000a900460ff16600281111561084357610842611134565b5b14610883576040517f08c379a000000000000000000000000000000000000000000000000000000000815260040161087a906118bb565b60405180910390fd5b600081116108c6576040517f08c379a00000000000000000000000000000000000000000000000000000000081526004016108bd90611ce6565b60405180910390fd5b600260019054906101000a900473ffffffffffffffffffffffffffffffffffffffff1673ffffffffffffffffffffffffffffffffffffffff166323b872dd3330846040518463ffffffff1660e01b815260040161092593929190611d06565b6020604051808303816000875af1158015610944573d6000803e3d6000fd5b505050506040513d601f19601f820116820180604052508101906109689190611d52565b6109a7576040517f08c379a000000000000000000000000000000000000000000000000000000000815260040161099e90611dcb565b60405180910390fd5b3373ffffffffffffffffffffffffffffffffffffffff167f3ac3e7b4f5ab6f44c9c853409a305738fbfd4e666c9b70ba2723092f694c73e7858585856040516109f39493929190611deb565b60405180910390a250505050565b60008054906101000a900473ffffffffffffffffffffffffffffffffffffffff1673ffffffffffffffffffffffffffffffffffffffff163373ffffffffffffffffffffffffffffffffffffffff1614610a8f576040517f08c379a0000000000000000000000000000000000000000000000000000000008152600401610a8690611b9b565b60405180910390fd5b60016002811115610aa357610aa2611134565b5b600260159054906101000a900460ff166002811115610ac557610ac4611134565b5b14610b05576040517f08c379a0000000000000000000000000000000000000000000000000000000008152600401610afc90611eb7565b60405180910390fd5b8151835114610b49576040517f08c379a0000000000000000000000000000000000000000000000000000000008152600401610b4090611f23565b60405180910390fd5b60005b8351811015610be057828181518110610b6857610b67611f43565b5b602002602001015160036000868481518110610b8757610b86611f43565b5b602002602001015173ffffffffffffffffffffffffffffffffffffffff1673ffffffffffffffffffffffffffffffffffffffff168152602001908152602001600020819055508080610bd890611fa1565b915050610b4c565b508015610c4d5760028060156101000a81548160ff02191690836002811115610c0c57610c0b611134565b5b02179055507fd5d5d049e9608f1efc24130fb8104fb6919491de8667a9d7aad9efe3d24892d283516000604051610c44929190612024565b60405180910390a15b505050565b6000600360008373ffffffffffffffffffffffffffffffffffffffff1673ffffffffffffffffffffffffffffffffffffffff168152602001908152602001600020549050919050565b600280811115610cae57610cad611134565b5b600260159054906101000a900460ff166002811115610cd057610ccf611134565b5b14610d10576040517f08c379a0000000000000000000000000000000000000000000000000000000008152600401610d0790612099565b60405180910390fd5b6000600360003373ffffffffffffffffffffffffffffffffffffffff1673ffffffffffffffffffffffffffffffffffffffff1681526020019081526020016000205411610d92576040517f08c379a0000000000000000000000000000000000000000000000000000000008152600401610d8990612105565b60405180910390fd5b600460003373ffffffffffffffffffffffffffffffffffffffff1673ffffffffffffffffffffffffffffffffffffffff16815260200190815260200160002060009054906101000a900460ff1615610e1f576040517f08c379a0000000000000000000000000000000000000000000000000000000008152600401610e1690612171565b60405180910390fd5b6000600360003373ffffffffffffffffffffffffffffffffffffffff1673ffffffffffffffffffffffffffffffffffffffff1681526020019081526020016000205490506001600460003373ffffffffffffffffffffffffffffffffffffffff1673ffffffffffffffffffffffffffffffffffffffff16815260200190815260200160002060006101000a81548160ff021916908315150217905550600260019054906101000a900473ffffffffffffffffffffffffffffffffffffffff1673ffffffffffffffffffffffffffffffffffffffff1663a9059cbb33836040518363ffffffff1660e01b8152600401610f18929190612191565b6020604051808303816000875af1158015610f37573d6000803e3d6000fd5b505050506040513d601f19601f82011682018060405250810190610f5b9190611d52565b610f9a576040517f08c379a0000000000000000000000000000000000000000000000000000000008152600401610f9190611dcb565b60405180910390fd5b3373ffffffffffffffffffffffffffffffffffffffff167fec68461f5d4cc45c89e914cb8826a966c73dd35e5f97815ece0a01ffa4a025a682604051610fe09190611291565b60405180910390a250565b60008054906101000a900473ffffffffffffffffffffffffffffffffffffffff1681565b600260019054906101000a900473ffffffffffffffffffffffffffffffffffffffff1681565b6000604051905090565b600080fd5b600080fd5b600073ffffffffffffffffffffffffffffffffffffffff82169050919050565b600061107482611049565b9050919050565b61108481611069565b811461108f57600080fd5b50565b6000813590506110a18161107b565b92915050565b6000602082840312156110bd576110bc61103f565b5b60006110cb84828501611092565b91505092915050565b60008115159050919050565b6110e9816110d4565b82525050565b600060208201905061110460008301846110e0565b92915050565b61111381611069565b82525050565b600060208201905061112e600083018461110a565b92915050565b7f4e487b7100000000000000000000000000000000000000000000000000000000600052602160045260246000fd5b6003811061117457611173611134565b5b50565b600081905061118582611163565b919050565b600061119582611177565b9050919050565b6111a58161118a565b82525050565b60006020820190506111c0600083018461119c565b92915050565b600081519050919050565b600082825260208201905092915050565b60005b838110156112005780820151818401526020810190506111e5565b60008484015250505050565b6000601f19601f8301169050919050565b6000611228826111c6565b61123281856111d1565b93506112428185602086016111e2565b61124b8161120c565b840191505092915050565b60006020820190508181036000830152611270818461121d565b905092915050565b6000819050919050565b61128b81611278565b82525050565b60006020820190506112a66000830184611282565b92915050565b600080fd5b600080fd5b7f4e487b7100000000000000000000000000000000000000000000000000000000600052604160045260246000fd5b6112ee8261120c565b810181811067ffffffffffffffff8211171561130d5761130c6112b6565b5b80604052505050565b6000611320611035565b905061132c82826112e5565b919050565b600067ffffffffffffffff82111561134c5761134b6112b6565b5b6113558261120c565b9050602081019050919050565b82818337600083830152505050565b600061138461137f84611331565b611316565b9050828152602081018484840111156113a05761139f6112b1565b5b6113ab848285611362565b509392505050565b600082601f8301126113c8576113c76112ac565b5b81356113d8848260208601611371565b91505092915050565b6000602082840312156113f7576113f661103f565b5b600082013567ffffffffffffffff81111561141557611414611044565b5b611421848285016113b3565b91505092915050565b61143381611278565b811461143e57600080fd5b50565b6000813590506114508161142a565b92915050565b600080600080608085870312156114705761146f61103f565b5b600085013567ffffffffffffffff81111561148e5761148d611044565b5b61149a878288016113b3565b945050602085013567ffffffffffffffff8111156114bb576114ba611044565b5b6114c7878288016113b3565b935050604085013567ffffffffffffffff8111156114e8576114e7611044565b5b6114f4878288016113b3565b925050606061150587828801611441565b91505092959194509250565b600067ffffffffffffffff82111561152c5761152b6112b6565b5b602082029050602081019050919050565b600080fd5b600061155561155084611511565b611316565b905080838252602082019050602084028301858111156115785761157761153d565b5b835b818110156115a1578061158d8882611092565b84526020840193505060208101905061157a565b5050509392505050565b600082601f8301126115c0576115bf6112ac565b5b81356115d0848260208601611542565b91505092915050565b600067ffffffffffffffff8211156115f4576115f36112b6565b5b602082029050602081019050919050565b6000611618611613846115d9565b611316565b9050808382526020820190506020840283018581111561163b5761163a61153d565b5b835b8181101561166457806116508882611441565b84526020840193505060208101905061163d565b5050509392505050565b600082601f830112611683576116826112ac565b5b8135611693848260208601611605565b91505092915050565b6116a5816110d4565b81146116b057600080fd5b50565b6000813590506116c28161169c565b92915050565b6000806000606084860312156116e1576116e061103f565b5b600084013567ffffffffffffffff8111156116ff576116fe611044565b5b61170b868287016115ab565b935050602084013567ffffffffffffffff81111561172c5761172b611044565b5b6117388682870161166e565b9250506040611749868287016116b3565b9150509250925092565b6000819050919050565b600061177861177361176e84611049565b611753565b611049565b9050919050565b600061178a8261175d565b9050919050565b600061179c8261177f565b9050919050565b6117ac81611791565b82525050565b60006020820190506117c760008301846117a3565b92915050565b7f4e487b7100000000000000000000000000000000000000000000000000000000600052602260045260246000fd5b6000600282049050600182168061181457607f821691505b602082108103611827576118266117cd565b5b50919050565b60008151905061183c8161142a565b92915050565b6000602082840312156118585761185761103f565b5b60006118668482850161182d565b91505092915050565b7f42657474696e67206973206e6f74206163746976650000000000000000000000600082015250565b60006118a56015836111d1565b91506118b08261186f565b602082019050919050565b600060208201905081810360008301526118d481611898565b9050919050565b60008190508160005260206000209050919050565b60006020601f8301049050919050565b600082821b905092915050565b60006008830261193d7fffffffffffffffffffffffffffffffffffffffffffffffffffffffffffffffff82611900565b6119478683611900565b95508019841693508086168417925050509392505050565b600061197a61197561197084611278565b611753565b611278565b9050919050565b6000819050919050565b6119948361195f565b6119a86119a082611981565b84845461190d565b825550505050565b600090565b6119bd6119b0565b6119c881848461198b565b505050565b5b818110156119ec576119e16000826119b5565b6001810190506119ce565b5050565b601f821115611a3157611a02816118db565b611a0b846118f0565b81016020851015611a1a578190505b611a2e611a26856118f0565b8301826119cd565b50505b505050565b600082821c905092915050565b6000611a5460001984600802611a36565b1980831691505092915050565b6000611a6d8383611a43565b9150826002028217905092915050565b611a86826111c6565b67ffffffffffffffff811115611a9f57611a9e6112b6565b5b611aa982546117fc565b611ab48282856119f0565b600060209050601f831160018114611ae75760008415611ad5578287015190505b611adf8582611a61565b865550611b47565b601f198416611af5866118db565b60005b82811015611b1d57848901518255600182019150602085019450602081019050611af8565b86831015611b3a5784890151611b36601f891682611a43565b8355505b6001600288020188555050505b505050505050565b7f4f6e6c792061646d696e2063616e2063616c6c20746869730000000000000000600082015250565b6000611b856018836111d1565b9150611b9082611b4f565b602082019050919050565b60006020820190508181036000830152611bb481611b78565b9050919050565b50565b6000611bcb6000836111d1565b9150611bd682611bbb565b600082019050919050565b60008154611bee816117fc565b611bf881866111d1565b94506001821660008114611c135760018114611c2957611c5c565b60ff198316865281151560200286019350611c5c565b611c32856118db565b60005b83811015611c5457815481890152600182019150602081019050611c35565b808801955050505b50505092915050565b60006040820190508181036000830152611c7e81611bbe565b90508181036020830152611c928184611be1565b905092915050565b7f4d75737420626574206120706f73697469766520616d6f756e74000000000000600082015250565b6000611cd0601a836111d1565b9150611cdb82611c9a565b602082019050919050565b60006020820190508181036000830152611cff81611cc3565b9050919050565b6000606082019050611d1b600083018661110a565b611d28602083018561110a565b611d356040830184611282565b949350505050565b600081519050611d4c8161169c565b92915050565b600060208284031215611d6857611d6761103f565b5b6000611d7684828501611d3d565b91505092915050565b7f546f6b656e207472616e73666572206661696c65640000000000000000000000600082015250565b6000611db56015836111d1565b9150611dc082611d7f565b602082019050919050565b60006020820190508181036000830152611de481611da8565b9050919050565b60006080820190508181036000830152611e05818761121d565b90508181036020830152611e19818661121d565b90508181036040830152611e2d818561121d565b9050611e3c6060830184611282565b95945050505050565b7f42657474696e67206e6f742066696e6973686564206f72207061796f7574732060008201527f616c726561647920736574000000000000000000000000000000000000000000602082015250565b6000611ea1602b836111d1565b9150611eac82611e45565b604082019050919050565b60006020820190508181036000830152611ed081611e94565b9050919050565b7f417272617973206c656e677468206d69736d6174636800000000000000000000600082015250565b6000611f0d6016836111d1565b9150611f1882611ed7565b602082019050919050565b60006020820190508181036000830152611f3c81611f00565b9050919050565b7f4e487b7100000000000000000000000000000000000000000000000000000000600052603260045260246000fd5b7f4e487b7100000000000000000000000000000000000000000000000000000000600052601160045260246000fd5b6000611fac82611278565b91507fffffffffffffffffffffffffffffffffffffffffffffffffffffffffffffffff8203611fde57611fdd611f72565b5b600182019050919050565b6000819050919050565b600061200e61200961200484611fe9565b611753565b611278565b9050919050565b61201e81611ff3565b82525050565b60006040820190506120396000830185611282565b6120466020830184612015565b9392505050565b7f5061796f757473206e6f74207365742079657400000000000000000000000000600082015250565b60006120836013836111d1565b915061208e8261204d565b602082019050919050565b600060208201905081810360008301526120b281612076565b9050919050565b7f4e6f207061796f757420617661696c61626c6500000000000000000000000000600082015250565b60006120ef6013836111d1565b91506120fa826120b9565b602082019050919050565b6000602082019050818103600083015261211e816120e2565b9050919050565b7f416c726561647920636c61696d65640000000000000000000000000000000000600082015250565b600061215b600f836111d1565b915061216682612125565b602082019050919050565b6000602082019050818103600083015261218a8161214e565b9050919050565b60006040820190506121a6600083018561110a565b6121b36020830184611282565b939250505056fea264697066735822122048eb7c2cf83ac407438070643b4bc88c92d7a32c3f209eff6212c80175e5c06464736f6c63430008140033",
  "linkReferences": {},
  "deployedLinkReferences": {}
}