{
  "_format": "hh-sol-artifact-1",
  "contractName": "PrivateBetting",
  "sourceName": "contracts/PrivateBetting.sol",
  "abi": [
    {
      "inputs": [
        {
          "internalType": "address",
          "name": "_tokenAddress",
          "type": "address"
        },
        {
          "internalType": "address",
          "name": "_teeAddress",
          "type": "address"
        }
      ],
      "stateMutability": "nonpayable",
      "type": "constructor"
    },
    {
      "inputs": [],
      "name": "ECDSAInvalidSignature",
      "type": "error"
    },
    {
      "inputs": [
        {
          "internalType": "uint256",
          "name": "length",
          "type": "uint256"
        }
      ],
      "name": "ECDSAInvalidSignatureLength",
      "type": "error"
    },
    {
      "inputs": [
        {
          "internalType": "bytes32",
          "name": "s",
          "type": "bytes32"
        }
      ],
      "name": "ECDSAInvalidSignatureS",
      "type": "error"
    },
    {
      "anonymous": false,
      "inputs": [
        {
          "indexed": true,
          "internalType": "uint256",
          "name": "marketId",
          "type": "uint256"
        },
        {
          "indexed": false,
          "internalType": "string",
          "name": "winningOption",
          "type": "string"
        },
        {
          "indexed": false,
          "internalType": "string",
          "name": "finalState",
          "type": "string"
        }
      ],
      "name": "BettingFinished",
      "type": "event"
    },
    {
      "anonymous": false,
      "inputs": [
        {
          "indexed": true,
          "internalType": "uint256",
          "name": "marketId",
          "type": "uint256"
        },
        {
          "indexed": false,
          "internalType": "string",
          "name": "title",
          "type": "string"
        },
        {
          "indexed": false,
          "internalType": "string",
          "name": "description",
          "type": "string"
        },
        {
          "indexed": false,
          "internalType": "uint256",
          "name": "createdAt",
          "type": "uint256"
        }
      ],
      "name": "MarketCreated",
      "type": "event"
    },
    {
      "anonymous": false,
      "inputs": [
        {
          "indexed": true,
          "internalType": "uint256",
          "name": "marketId",
          "type": "uint256"
        },
        {
          "indexed": true,
          "internalType": "address",
          "name": "winner",
          "type": "address"
        },
        {
          "indexed": false,
          "internalType": "uint256",
          "name": "amount",
          "type": "uint256"
        }
      ],
      "name": "PayoutClaimed",
      "type": "event"
    },
    {
      "anonymous": false,
      "inputs": [
        {
          "indexed": true,
          "internalType": "uint256",
          "name": "marketId",
          "type": "uint256"
        },
        {
          "indexed": false,
          "internalType": "uint256",
          "name": "totalWinners",
          "type": "uint256"
        },
        {
          "indexed": false,
          "internalType": "uint256",
          "name": "totalPool",
          "type": "uint256"
        }
      ],
      "name": "PayoutsSet",
      "type": "event"
    },
    {
      "anonymous": false,
      "inputs": [
        {
          "indexed": true,
          "internalType": "uint256",
          "name": "marketId",
          "type": "uint256"
        },
        {
          "indexed": false,
          "internalType": "string",
          "name": "newEncryptedState",
          "type": "string"
        }
      ],
      "name": "StateUpdated",
      "type": "event"
    },
    {
      "anonymous": false,
      "inputs": [
        {
          "indexed": true,
          "internalType": "uint256",
          "name": "marketId",
          "type": "uint256"
        },
        {
          "indexed": true,
          "internalType": "address",
          "name": "voter",
          "type": "address"
        },
        {
          "indexed": false,
          "internalType": "string",
          "name": "encryptedVote",
          "type": "string"
        },
        {
          "indexed": false,
          "internalType": "string",
          "name": "encryptedSymKey",
          "type": "string"
        },
        {
          "indexed": false,
          "internalType": "string",
          "name": "capsule",
          "type": "string"
        },
        {
          "indexed": false,
          "internalType": "uint256",
          "name": "amount",
          "type": "uint256"
        }
      ],
      "name": "VoteSubmitted",
      "type": "event"
    },
    {
      "inputs": [],
      "name": "admin",
      "outputs": [
        {
          "internalType": "address",
          "name": "",
          "type": "address"
        }
      ],
      "stateMutability": "view",
      "type": "function"
    },
    {
      "inputs": [
        {
          "internalType": "uint256",
          "name": "marketId",
          "type": "uint256"
        }
      ],
      "name": "claimPayout",
      "outputs": [],
      "stateMutability": "nonpayable",
      "type": "function"
    },
    {
      "inputs": [
        {
          "internalType": "string",
          "name": "title",
          "type": "string"
        },
        {
          "internalType": "string",
          "name": "description",
          "type": "string"
        },
        {
          "internalType": "string",
          "name": "initialEncryptedState",
          "type": "string"
        },
        {
          "internalType": "bytes",
          "name": "signature",
          "type": "bytes"
        }
      ],
      "name": "createMarket",
      "outputs": [
        {
          "internalType": "uint256",
          "name": "",
          "type": "uint256"
        }
      ],
      "stateMutability": "nonpayable",
      "type": "function"
    },
    {
      "inputs": [
        {
          "internalType": "uint256",
          "name": "marketId",
          "type": "uint256"
        }
      ],
      "name": "finishBetting",
      "outputs": [],
      "stateMutability": "nonpayable",
      "type": "function"
    },
    {
      "inputs": [],
      "name": "getAllMarketIds",
      "outputs": [
        {
          "internalType": "uint256[]",
          "name": "",
          "type": "uint256[]"
        }
      ],
      "stateMutability": "view",
      "type": "function"
    },
    {
      "inputs": [],
      "name": "getContractBalance",
      "outputs": [
        {
          "internalType": "uint256",
          "name": "",
          "type": "uint256"
        }
      ],
      "stateMutability": "view",
      "type": "function"
    },
    {
      "inputs": [
        {
          "internalType": "uint256",
          "name": "marketId",
          "type": "uint256"
        }
      ],
      "name": "getCurrentState",
      "outputs": [
        {
          "internalType": "string",
          "name": "",
          "type": "string"
        }
      ],
      "stateMutability": "view",
      "type": "function"
    },
    {
      "inputs": [
        {
          "internalType": "uint256",
          "name": "marketId",
          "type": "uint256"
        }
      ],
      "name": "getMarket",
      "outputs": [
        {
          "components": [
            {
              "internalType": "uint256",
              "name": "marketId",
              "type": "uint256"
            },
            {
              "internalType": "string",
              "name": "title",
              "type": "string"
            },
            {
              "internalType": "string",
              "name": "description",
              "type": "string"
            },
            {
              "internalType": "string",
              "name": "encryptedState",
              "type": "string"
            },
            {
              "internalType": "enum PrivateBetting.BettingStatus",
              "name": "status",
              "type": "uint8"
            },
            {
              "internalType": "bool",
              "name": "bettingFinished",
              "type": "bool"
            },
            {
              "internalType": "uint256",
              "name": "createdAt",
              "type": "uint256"
            },
            {
              "internalType": "uint256",
              "name": "totalVolume",
              "type": "uint256"
            }
          ],
          "internalType": "struct PrivateBetting.Market",
          "name": "",
          "type": "tuple"
        }
      ],
      "stateMutability": "view",
      "type": "function"
    },
    {
      "inputs": [
        {
          "internalType": "uint256",
          "name": "marketId",
          "type": "uint256"
        },
        {
          "internalType": "address",
          "name": "wallet",
          "type": "address"
        }
      ],
      "name": "getPayoutAmount",
      "outputs": [
        {
          "internalType": "uint256",
          "name": "",
          "type": "uint256"
        }
      ],
      "stateMutability": "view",
      "type": "function"
    },
    {
      "inputs": [],
      "name": "getTokenAddress",
      "outputs": [
        {
          "internalType": "address",
          "name": "",
          "type": "address"
        }
      ],
      "stateMutability": "view",
      "type": "function"
    },
    {
      "inputs": [
        {
          "internalType": "uint256",
          "name": "",
          "type": "uint256"
        },
        {
          "internalType": "address",
          "name": "",
          "type": "address"
        }
      ],
      "name": "hasClaimed",
      "outputs": [
        {
          "internalType": "bool",
          "name": "",
          "type": "bool"
        }
      ],
      "stateMutability": "view",
      "type": "function"
    },
    {
      "inputs": [
        {
          "internalType": "uint256",
          "name": "marketId",
          "type": "uint256"
        },
        {
          "internalType": "address",
          "name": "wallet",
          "type": "address"
        }
      ],
      "name": "hasClaimedPayout",
      "outputs": [
        {
          "internalType": "bool",
          "name": "",
          "type": "bool"
        }
      ],
      "stateMutability": "view",
      "type": "function"
    },
    {
      "inputs": [],
      "name": "marketCount",
      "outputs": [
        {
          "internalType": "uint256",
          "name": "",
          "type": "uint256"
        }
      ],
      "stateMutability": "view",
      "type": "function"
    },
    {
      "inputs": [
        {
          "internalType": "uint256",
          "name": "",
          "type": "uint256"
        }
      ],
      "name": "markets",
      "outputs": [
        {
          "internalType": "uint256",
          "name": "marketId",
          "type": "uint256"
        },
        {
          "internalType": "string",
          "name": "title",
          "type": "string"
        },
        {
          "internalType": "string",
          "name": "description",
          "type": "string"
        },
        {
          "internalType": "string",
          "name": "encryptedState",
          "type": "string"
        },
        {
          "internalType": "enum PrivateBetting.BettingStatus",
          "name": "status",
          "type": "uint8"
        },
        {
          "internalType": "bool",
          "name": "bettingFinished",
          "type": "bool"
        },
        {
          "internalType": "uint256",
          "name": "createdAt",
          "type": "uint256"
        },
        {
          "internalType": "uint256",
          "name": "totalVolume",
          "type": "uint256"
        }
      ],
      "stateMutability": "view",
      "type": "function"
    },
    {
      "inputs": [
        {
          "internalType": "uint256",
          "name": "",
          "type": "uint256"
        },
        {
          "internalType": "address",
          "name": "",
          "type": "address"
        }
      ],
      "name": "payouts",
      "outputs": [
        {
          "internalType": "uint256",
          "name": "",
          "type": "uint256"
        }
      ],
      "stateMutability": "view",
      "type": "function"
    },
    {
      "inputs": [
        {
          "internalType": "uint256",
          "name": "marketId",
          "type": "uint256"
        },
        {
          "internalType": "address[]",
          "name": "winners",
          "type": "address[]"
        },
        {
          "internalType": "uint256[]",
          "name": "amounts",
          "type": "uint256[]"
        },
        {
          "internalType": "bool",
          "name": "isLastBatch",
          "type": "bool"
        }
      ],
      "name": "setPayouts",
      "outputs": [],
      "stateMutability": "nonpayable",
      "type": "function"
    },
    {
      "inputs": [
        {
          "internalType": "address",
          "name": "_teeAddress",
          "type": "address"
        }
      ],
      "name": "setTEEAddress",
      "outputs": [],
      "stateMutability": "nonpayable",
      "type": "function"
    },
    {
      "inputs": [],
      "name": "teeAddress",
      "outputs": [
        {
          "internalType": "address",
          "name": "",
          "type": "address"
        }
      ],
      "stateMutability": "view",
      "type": "function"
    },
    {
      "inputs": [],
      "name": "token",
      "outputs": [
        {
          "internalType": "contract IERC20",
          "name": "",
          "type": "address"
        }
      ],
      "stateMutability": "view",
      "type": "function"
    },
    {
      "inputs": [
        {
          "internalType": "uint256",
          "name": "marketId",
          "type": "uint256"
        },
        {
          "internalType": "string",
          "name": "newEncryptedState",
          "type": "string"
        },
        {
          "internalType": "bytes",
          "name": "signature",
          "type": "bytes"
        }
      ],
      "name": "updateState",
      "outputs": [],
      "stateMutability": "nonpayable",
      "type": "function"
    },
    {
      "inputs": [
        {
          "internalType": "string",
          "name": "prevState",
          "type": "string"
        },
        {
          "internalType": "string",
          "name": "newState",
          "type": "string"
        },
        {
          "internalType": "bytes",
          "name": "signature",
          "type": "bytes"
        }
      ],
      "name": "verifyTEESignature",
      "outputs": [
        {
          "internalType": "bool",
          "name": "",
          "type": "bool"
        }
      ],
      "stateMutability": "view",
      "type": "function"
    },
    {
      "inputs": [
        {
          "internalType": "uint256",
          "name": "marketId",
          "type": "uint256"
        },
        {
          "internalType": "string",
          "name": "encryptedVote",
          "type": "string"
        },
        {
          "internalType": "string",
          "name": "encryptedSymKey",
          "type": "string"
        },
        {
          "internalType": "string",
          "name": "capsule",
          "type": "string"
        },
        {
          "internalType": "uint256",
          "name": "amount",
          "type": "uint256"
        }
      ],
      "name": "vote",
      "outputs": [],
      "stateMutability": "nonpayable",
      "type": "function"
    }
  ],
  "bytecode": "0x60806040523480156200001157600080fd5b5060405162003e4538038062003e45833981810160405281019062000037919062000173565b336000806101000a81548173ffffffffffffffffffffffffffffffffffffffff021916908373ffffffffffffffffffffffffffffffffffffffff16021790555081600260006101000a81548173ffffffffffffffffffffffffffffffffffffffff021916908373ffffffffffffffffffffffffffffffffffffffff16021790555080600160006101000a81548173ffffffffffffffffffffffffffffffffffffffff021916908373ffffffffffffffffffffffffffffffffffffffff16021790555060006003819055505050620001ba565b600080fd5b600073ffffffffffffffffffffffffffffffffffffffff82169050919050565b60006200013b826200010e565b9050919050565b6200014d816200012e565b81146200015957600080fd5b50565b6000815190506200016d8162000142565b92915050565b600080604083850312156200018d576200018c62000109565b5b60006200019d858286016200015c565b9250506020620001b0858286016200015c565b9150509250929050565b613c7b80620001ca6000396000f3fe608060405234801561001057600080fd5b50600436106101425760003560e01c8063873f6f9e116100b8578063b85ed6361161007c578063b85ed636146103a0578063e8429b9e146103be578063eb44fdd3146103ee578063ec9790821461041e578063f851a4401461043c578063fc0c546a1461045a57610142565b8063873f6f9e146102bd5780638a69614e146102ed5780639b5e049c14610309578063b1283e7714610339578063b1d9a0d21461037057610142565b80634c725ab51161010a5780634c725ab5146101e95780635352359f146102195780635748c13014610235578063694db861146102655780636f9fb98a1461028157806378b9e6201461029f57610142565b806310fe9ae814610147578063163d0af4146101655780632302da1c146101815780632bd0be1e1461019d57806334633f90146101b9575b600080fd5b61014f610478565b60405161015c9190612293565b60405180910390f35b61017f600480360381019061017a9190612578565b6104a2565b005b61019b60048036038101906101969190612617565b610777565b005b6101b760048036038101906101b2919061279a565b610849565b005b6101d360048036038101906101ce9190612825565b610a6a565b6040516101e09190612874565b60405180910390f35b61020360048036038101906101fe9190612825565b610b0b565b6040516102109190612874565b60405180910390f35b610233600480360381019061022e919061288f565b610b30565b005b61024f600480360381019061024a919061295e565b610daf565b60405161025c9190612a0a565b60405180910390f35b61027f600480360381019061027a919061295e565b610e9d565b005b6102896110bb565b6040516102969190612874565b60405180910390f35b6102a761115e565b6040516102b49190612293565b60405180910390f35b6102d760048036038101906102d29190612825565b611184565b6040516102e49190612a3b565b60405180910390f35b6103076004803603810190610302919061295e565b6111b3565b005b610323600480360381019061031e9190612a56565b6115a3565b6040516103309190612874565b60405180910390f35b610353600480360381019061034e919061295e565b61180b565b604051610367989796959493929190612ba4565b60405180910390f35b61038a60048036038101906103859190612c37565b611a05565b6040516103979190612a3b565b60405180910390f35b6103a8611aae565b6040516103b59190612d9c565b60405180910390f35b6103d860048036038101906103d39190612825565b611b47565b6040516103e59190612a3b565b60405180910390f35b6104086004803603810190610403919061295e565b611bf5565b6040516104159190612ee4565b60405180910390f35b610426611e93565b6040516104339190612874565b60405180910390f35b610444611e99565b6040516104519190612293565b60405180910390f35b610462611ebd565b60405161046f9190612f65565b60405180910390f35b6000600260009054906101000a900473ffffffffffffffffffffffffffffffffffffffff16905090565b60008054906101000a900473ffffffffffffffffffffffffffffffffffffffff1673ffffffffffffffffffffffffffffffffffffffff163373ffffffffffffffffffffffffffffffffffffffff1614610530576040517f08c379a000000000000000000000000000000000000000000000000000000000815260040161052790612fcc565b60405180910390fd5b836003548110610575576040517f08c379a000000000000000000000000000000000000000000000000000000000815260040161056c90613038565b60405180910390fd5b846001600281111561058a57610589612b2d565b5b6004600083815260200190815260200160002060040160009054906101000a900460ff1660028111156105c0576105bf612b2d565b5b14610600576040517f08c379a00000000000000000000000000000000000000000000000000000000081526004016105f7906130ca565b60405180910390fd5b8351855114610644576040517f08c379a000000000000000000000000000000000000000000000000000000000815260040161063b90613136565b60405180910390fd5b60005b85518110156106ec5784818151811061066357610662613156565b5b602002602001015160056000898152602001908152602001600020600088848151811061069357610692613156565b5b602002602001015173ffffffffffffffffffffffffffffffffffffffff1673ffffffffffffffffffffffffffffffffffffffff1681526020019081526020016000208190555080806106e4906131b4565b915050610647565b50821561076f5760026004600088815260200190815260200160002060040160006101000a81548160ff0219169083600281111561072d5761072c612b2d565b5b0217905550857fa30a10c8978183a0cb62788eec9a87a5ea1f860dbe2605d7fa06b73e7b61242e86516000604051610766929190613237565b60405180910390a25b505050505050565b60008054906101000a900473ffffffffffffffffffffffffffffffffffffffff1673ffffffffffffffffffffffffffffffffffffffff163373ffffffffffffffffffffffffffffffffffffffff1614610805576040517f08c379a00000000000000000000000000000000000000000000000000000000081526004016107fc90612fcc565b60405180910390fd5b80600160006101000a81548173ffffffffffffffffffffffffffffffffffffffff021916908373ffffffffffffffffffffffffffffffffffffffff16021790555050565b82600354811061088e576040517f08c379a000000000000000000000000000000000000000000000000000000000815260040161088590613038565b60405180910390fd5b83600060028111156108a3576108a2612b2d565b5b6004600083815260200190815260200160002060040160009054906101000a900460ff1660028111156108d9576108d8612b2d565b5b14610919576040517f08c379a0000000000000000000000000000000000000000000000000000000008152600401610910906132ac565b60405180910390fd5b600060046000878152602001908152602001600020600301805461093c906132fb565b80601f0160208091040260200160405190810160405280929190818152602001828054610968906132fb565b80156109b55780601f1061098a576101008083540402835291602001916109b5565b820191906000526020600020905b81548152906001019060200180831161099857829003601f168201915b505050505090506109c7818686611a05565b610a06576040517f08c379a00000000000000000000000000000000000000000000000000000000081526004016109fd90613378565b60405180910390fd5b84600460008881526020019081526020016000206003019081610a29919061353a565b50857f771d8231d98117b292d0f5560da5e8571ea2da00116acefb42226fe4353d591286604051610a5a9190612a0a565b60405180910390a2505050505050565b6000826003548110610ab1576040517f08c379a0000000000000000000000000000000000000000000000000000000008152600401610aa890613038565b60405180910390fd5b6005600085815260200190815260200160002060008473ffffffffffffffffffffffffffffffffffffffff1673ffffffffffffffffffffffffffffffffffffffff1681526020019081526020016000205491505092915050565b6005602052816000526040600020602052806000526040600020600091509150505481565b846003548110610b75576040517f08c379a0000000000000000000000000000000000000000000000000000000008152600401610b6c90613038565b60405180910390fd5b8560006002811115610b8a57610b89612b2d565b5b6004600083815260200190815260200160002060040160009054906101000a900460ff166002811115610bc057610bbf612b2d565b5b14610c00576040517f08c379a0000000000000000000000000000000000000000000000000000000008152600401610bf7906132ac565b60405180910390fd5b60008311610c43576040517f08c379a0000000000000000000000000000000000000000000000000000000008152600401610c3a90613658565b60405180910390fd5b600260009054906101000a900473ffffffffffffffffffffffffffffffffffffffff1673ffffffffffffffffffffffffffffffffffffffff166323b872dd3330866040518463ffffffff1660e01b8152600401610ca293929190613678565b6020604051808303816000875af1158015610cc1573d6000803e3d6000fd5b505050506040513d601f19601f82011682018060405250810190610ce591906136c4565b610d24576040517f08c379a0000000000000000000000000000000000000000000000000000000008152600401610d1b9061373d565b60405180910390fd5b82600460008981526020019081526020016000206006016000828254610d4a919061375d565b925050819055503373ffffffffffffffffffffffffffffffffffffffff16877f1d1da12838aeccab6f35aeca09e9bd8d5cf850b96adab93882522ffab897f44488888888604051610d9e9493929190613791565b60405180910390a350505050505050565b6060816003548110610df6576040517f08c379a0000000000000000000000000000000000000000000000000000000008152600401610ded90613038565b60405180910390fd5b600460008481526020019081526020016000206003018054610e17906132fb565b80601f0160208091040260200160405190810160405280929190818152602001828054610e43906132fb565b8015610e905780601f10610e6557610100808354040283529160200191610e90565b820191906000526020600020905b815481529060010190602001808311610e7357829003601f168201915b5050505050915050919050565b60008054906101000a900473ffffffffffffffffffffffffffffffffffffffff1673ffffffffffffffffffffffffffffffffffffffff163373ffffffffffffffffffffffffffffffffffffffff1614610f2b576040517f08c379a0000000000000000000000000000000000000000000000000000000008152600401610f2290612fcc565b60405180910390fd5b806003548110610f70576040517f08c379a0000000000000000000000000000000000000000000000000000000008152600401610f6790613038565b60405180910390fd5b8160006002811115610f8557610f84612b2d565b5b6004600083815260200190815260200160002060040160009054906101000a900460ff166002811115610fbb57610fba612b2d565b5b14610ffb576040517f08c379a0000000000000000000000000000000000000000000000000000000008152600401610ff2906132ac565b60405180910390fd5b60016004600085815260200190815260200160002060040160006101000a81548160ff0219169083600281111561103557611034612b2d565b5b021790555060016004600085815260200190815260200160002060040160016101000a81548160ff021916908315150217905550827f21fea16c68258ef02d831126b555e3422798a8a284e38fedeb66169de91ef262600460008681526020019081526020016000206003016040516110ae9190613895565b60405180910390a2505050565b6000600260009054906101000a900473ffffffffffffffffffffffffffffffffffffffff1673ffffffffffffffffffffffffffffffffffffffff166370a08231306040518263ffffffff1660e01b81526004016111189190612293565b602060405180830381865afa158015611135573d6000803e3d6000fd5b505050506040513d601f19601f8201168201806040525081019061115991906138df565b905090565b600160009054906101000a900473ffffffffffffffffffffffffffffffffffffffff1681565b60066020528160005260406000206020528060005260406000206000915091509054906101000a900460ff1681565b8060035481106111f8576040517f08c379a00000000000000000000000000000000000000000000000000000000081526004016111ef90613038565b60405180910390fd5b60028081111561120b5761120a612b2d565b5b6004600084815260200190815260200160002060040160009054906101000a900460ff16600281111561124157611240612b2d565b5b14611281576040517f08c379a000000000000000000000000000000000000000000000000000000000815260040161127890613958565b60405180910390fd5b60006005600084815260200190815260200160002060003373ffffffffffffffffffffffffffffffffffffffff1673ffffffffffffffffffffffffffffffffffffffff1681526020019081526020016000205411611314576040517f08c379a000000000000000000000000000000000000000000000000000000000815260040161130b906139c4565b60405180910390fd5b6006600083815260200190815260200160002060003373ffffffffffffffffffffffffffffffffffffffff1673ffffffffffffffffffffffffffffffffffffffff16815260200190815260200160002060009054906101000a900460ff16156113b2576040517f08c379a00000000000000000000000000000000000000000000000000000000081526004016113a990613a30565b60405180910390fd5b60006005600084815260200190815260200160002060003373ffffffffffffffffffffffffffffffffffffffff1673ffffffffffffffffffffffffffffffffffffffff16815260200190815260200160002054905060016006600085815260200190815260200160002060003373ffffffffffffffffffffffffffffffffffffffff1673ffffffffffffffffffffffffffffffffffffffff16815260200190815260200160002060006101000a81548160ff021916908315150217905550600260009054906101000a900473ffffffffffffffffffffffffffffffffffffffff1673ffffffffffffffffffffffffffffffffffffffff1663a9059cbb33836040518363ffffffff1660e01b81526004016114cd929190613a50565b6020604051808303816000875af11580156114ec573d6000803e3d6000fd5b505050506040513d601f19601f8201168201806040525081019061151091906136c4565b61154f576040517f08c379a00000000000000000000000000000000000000000000000000000000081526004016115469061373d565b60405180910390fd5b3373ffffffffffffffffffffffffffffffffffffffff16837fe97cee5a4c0549d3fdc81e322b718ddf0aeb3418ec87dce4f9a7fb28d117c312836040516115969190612874565b60405180910390a3505050565b60008060009054906101000a900473ffffffffffffffffffffffffffffffffffffffff1673ffffffffffffffffffffffffffffffffffffffff163373ffffffffffffffffffffffffffffffffffffffff1614611634576040517f08c379a000000000000000000000000000000000000000000000000000000000815260040161162b90612fcc565b60405180910390fd5b61164e604051806020016040528060008152508484611a05565b61168d576040517f08c379a000000000000000000000000000000000000000000000000000000000815260040161168490613aeb565b60405180910390fd5b60006003549050604051806101000160405280828152602001878152602001868152602001858152602001600060028111156116cc576116cb612b2d565b5b8152602001600015158152602001428152602001600081525060046000838152602001908152602001600020600082015181600001556020820151816001019081611717919061353a565b50604082015181600201908161172d919061353a565b506060820151816003019081611743919061353a565b5060808201518160040160006101000a81548160ff0219169083600281111561176f5761176e612b2d565b5b021790555060a08201518160040160016101000a81548160ff02191690831515021790555060c0820151816005015560e08201518160060155905050600360008154809291906117be906131b4565b9190505550807f5efbba1029bf313d611dcc18db8c401465f4a191b59cc799da765ddbafa68e708787426040516117f793929190613b0b565b60405180910390a280915050949350505050565b6004602052806000526040600020600091509050806000015490806001018054611834906132fb565b80601f0160208091040260200160405190810160405280929190818152602001828054611860906132fb565b80156118ad5780601f10611882576101008083540402835291602001916118ad565b820191906000526020600020905b81548152906001019060200180831161189057829003601f168201915b5050505050908060020180546118c2906132fb565b80601f01602080910402602001604051908101604052809291908181526020018280546118ee906132fb565b801561193b5780601f106119105761010080835404028352916020019161193b565b820191906000526020600020905b81548152906001019060200180831161191e57829003601f168201915b505050505090806003018054611950906132fb565b80601f016020809104026020016040519081016040528092919081815260200182805461197c906132fb565b80156119c95780601f1061199e576101008083540402835291602001916119c9565b820191906000526020600020905b8154815290600101906020018083116119ac57829003601f168201915b5050505050908060040160009054906101000a900460ff16908060040160019054906101000a900460ff16908060050154908060060154905088565b6000808484604051602001611a1b929190613b8c565b6040516020818303038152906040528051906020012090506000611a5084611a4284611ee3565b611f1990919063ffffffff16565b9050600160009054906101000a900473ffffffffffffffffffffffffffffffffffffffff1673ffffffffffffffffffffffffffffffffffffffff168173ffffffffffffffffffffffffffffffffffffffff1614925050509392505050565b6060600060035467ffffffffffffffff811115611ace57611acd61230e565b5b604051908082528060200260200182016040528015611afc5781602001602082028036833780820191505090505b50905060005b600354811015611b3f5780828281518110611b2057611b1f613156565b5b6020026020010181815250508080611b37906131b4565b915050611b02565b508091505090565b6000826003548110611b8e576040517f08c379a0000000000000000000000000000000000000000000000000000000008152600401611b8590613038565b60405180910390fd5b6006600085815260200190815260200160002060008473ffffffffffffffffffffffffffffffffffffffff1673ffffffffffffffffffffffffffffffffffffffff16815260200190815260200160002060009054906101000a900460ff1691505092915050565b611bfd6121f9565b816003548110611c42576040517f08c379a0000000000000000000000000000000000000000000000000000000008152600401611c3990613038565b60405180910390fd5b600460008481526020019081526020016000206040518061010001604052908160008201548152602001600182018054611c7b906132fb565b80601f0160208091040260200160405190810160405280929190818152602001828054611ca7906132fb565b8015611cf45780601f10611cc957610100808354040283529160200191611cf4565b820191906000526020600020905b815481529060010190602001808311611cd757829003601f168201915b50505050508152602001600282018054611d0d906132fb565b80601f0160208091040260200160405190810160405280929190818152602001828054611d39906132fb565b8015611d865780601f10611d5b57610100808354040283529160200191611d86565b820191906000526020600020905b815481529060010190602001808311611d6957829003601f168201915b50505050508152602001600382018054611d9f906132fb565b80601f0160208091040260200160405190810160405280929190818152602001828054611dcb906132fb565b8015611e185780601f10611ded57610100808354040283529160200191611e18565b820191906000526020600020905b815481529060010190602001808311611dfb57829003601f168201915b505050505081526020016004820160009054906101000a900460ff166002811115611e4657611e45612b2d565b5b6002811115611e5857611e57612b2d565b5b81526020016004820160019054906101000a900460ff1615151515815260200160058201548152602001600682015481525050915050919050565b60035481565b60008054906101000a900473ffffffffffffffffffffffffffffffffffffffff1681565b600260009054906101000a900473ffffffffffffffffffffffffffffffffffffffff1681565b60007f19457468657265756d205369676e6564204d6573736167653a0a33320000000060005281601c52603c6000209050919050565b600080600080611f298686611f45565b925092509250611f398282611fa1565b82935050505092915050565b60008060006041845103611f8a5760008060006020870151925060408701519150606087015160001a9050611f7c88828585612105565b955095509550505050611f9a565b60006002855160001b9250925092505b9250925092565b60006003811115611fb557611fb4612b2d565b5b826003811115611fc857611fc7612b2d565b5b03156121015760016003811115611fe257611fe1612b2d565b5b826003811115611ff557611ff4612b2d565b5b0361202c576040517ff645eedf00000000000000000000000000000000000000000000000000000000815260040160405180910390fd5b600260038111156120405761203f612b2d565b5b82600381111561205357612052612b2d565b5b03612098578060001c6040517ffce698f700000000000000000000000000000000000000000000000000000000815260040161208f9190612874565b60405180910390fd5b6003808111156120ab576120aa612b2d565b5b8260038111156120be576120bd612b2d565b5b0361210057806040517fd78bce0c0000000000000000000000000000000000000000000000000000000081526004016120f79190613bc9565b60405180910390fd5b5b5050565b60008060007f7fffffffffffffffffffffffffffffff5d576e7357a4501ddfe92f46681b20a08460001c11156121455760006003859250925092506121ef565b60006001888888886040516000815260200160405260405161216a9493929190613c00565b6020604051602081039080840390855afa15801561218c573d6000803e3d6000fd5b505050602060405103519050600073ffffffffffffffffffffffffffffffffffffffff168173ffffffffffffffffffffffffffffffffffffffff16036121e057600060016000801b935093509350506121ef565b8060008060001b935093509350505b9450945094915050565b604051806101000160405280600081526020016060815260200160608152602001606081526020016000600281111561223557612234612b2d565b5b815260200160001515815260200160008152602001600081525090565b600073ffffffffffffffffffffffffffffffffffffffff82169050919050565b600061227d82612252565b9050919050565b61228d81612272565b82525050565b60006020820190506122a86000830184612284565b92915050565b6000604051905090565b600080fd5b600080fd5b6000819050919050565b6122d5816122c2565b81146122e057600080fd5b50565b6000813590506122f2816122cc565b92915050565b600080fd5b6000601f19601f8301169050919050565b7f4e487b7100000000000000000000000000000000000000000000000000000000600052604160045260246000fd5b612346826122fd565b810181811067ffffffffffffffff821117156123655761236461230e565b5b80604052505050565b60006123786122ae565b9050612384828261233d565b919050565b600067ffffffffffffffff8211156123a4576123a361230e565b5b602082029050602081019050919050565b600080fd5b6123c381612272565b81146123ce57600080fd5b50565b6000813590506123e0816123ba565b92915050565b60006123f96123f484612389565b61236e565b9050808382526020820190506020840283018581111561241c5761241b6123b5565b5b835b81811015612445578061243188826123d1565b84526020840193505060208101905061241e565b5050509392505050565b600082601f830112612464576124636122f8565b5b81356124748482602086016123e6565b91505092915050565b600067ffffffffffffffff8211156124985761249761230e565b5b602082029050602081019050919050565b60006124bc6124b78461247d565b61236e565b905080838252602082019050602084028301858111156124df576124de6123b5565b5b835b8181101561250857806124f488826122e3565b8452602084019350506020810190506124e1565b5050509392505050565b600082601f830112612527576125266122f8565b5b81356125378482602086016124a9565b91505092915050565b60008115159050919050565b61255581612540565b811461256057600080fd5b50565b6000813590506125728161254c565b92915050565b60008060008060808587031215612592576125916122b8565b5b60006125a0878288016122e3565b945050602085013567ffffffffffffffff8111156125c1576125c06122bd565b5b6125cd8782880161244f565b935050604085013567ffffffffffffffff8111156125ee576125ed6122bd565b5b6125fa87828801612512565b925050606061260b87828801612563565b91505092959194509250565b60006020828403121561262d5761262c6122b8565b5b600061263b848285016123d1565b91505092915050565b600080fd5b600067ffffffffffffffff8211156126645761266361230e565b5b61266d826122fd565b9050602081019050919050565b82818337600083830152505050565b600061269c61269784612649565b61236e565b9050828152602081018484840111156126b8576126b7612644565b5b6126c384828561267a565b509392505050565b600082601f8301126126e0576126df6122f8565b5b81356126f0848260208601612689565b91505092915050565b600067ffffffffffffffff8211156127145761271361230e565b5b61271d826122fd565b9050602081019050919050565b600061273d612738846126f9565b61236e565b90508281526020810184848401111561275957612758612644565b5b61276484828561267a565b509392505050565b600082601f830112612781576127806122f8565b5b813561279184826020860161272a565b91505092915050565b6000806000606084860312156127b3576127b26122b8565b5b60006127c1868287016122e3565b935050602084013567ffffffffffffffff8111156127e2576127e16122bd565b5b6127ee868287016126cb565b925050604084013567ffffffffffffffff81111561280f5761280e6122bd565b5b61281b8682870161276c565b9150509250925092565b6000806040838503121561283c5761283b6122b8565b5b600061284a858286016122e3565b925050602061285b858286016123d1565b9150509250929050565b61286e816122c2565b82525050565b60006020820190506128896000830184612865565b92915050565b600080600080600060a086880312156128ab576128aa6122b8565b5b60006128b9888289016122e3565b955050602086013567ffffffffffffffff8111156128da576128d96122bd565b5b6128e6888289016126cb565b945050604086013567ffffffffffffffff811115612907576129066122bd565b5b612913888289016126cb565b935050606086013567ffffffffffffffff811115612934576129336122bd565b5b612940888289016126cb565b9250506080612951888289016122e3565b9150509295509295909350565b600060208284031215612974576129736122b8565b5b6000612982848285016122e3565b91505092915050565b600081519050919050565b600082825260208201905092915050565b60005b838110156129c55780820151818401526020810190506129aa565b60008484015250505050565b60006129dc8261298b565b6129e68185612996565b93506129f68185602086016129a7565b6129ff816122fd565b840191505092915050565b60006020820190508181036000830152612a2481846129d1565b905092915050565b612a3581612540565b82525050565b6000602082019050612a506000830184612a2c565b92915050565b60008060008060808587031215612a7057612a6f6122b8565b5b600085013567ffffffffffffffff811115612a8e57612a8d6122bd565b5b612a9a878288016126cb565b945050602085013567ffffffffffffffff811115612abb57612aba6122bd565b5b612ac7878288016126cb565b935050604085013567ffffffffffffffff811115612ae857612ae76122bd565b5b612af4878288016126cb565b925050606085013567ffffffffffffffff811115612b1557612b146122bd565b5b612b218782880161276c565b91505092959194509250565b7f4e487b7100000000000000000000000000000000000000000000000000000000600052602160045260246000fd5b60038110612b6d57612b6c612b2d565b5b50565b6000819050612b7e82612b5c565b919050565b6000612b8e82612b70565b9050919050565b612b9e81612b83565b82525050565b600061010082019050612bba600083018b612865565b8181036020830152612bcc818a6129d1565b90508181036040830152612be081896129d1565b90508181036060830152612bf481886129d1565b9050612c036080830187612b95565b612c1060a0830186612a2c565b612c1d60c0830185612865565b612c2a60e0830184612865565b9998505050505050505050565b600080600060608486031215612c5057612c4f6122b8565b5b600084013567ffffffffffffffff811115612c6e57612c6d6122bd565b5b612c7a868287016126cb565b935050602084013567ffffffffffffffff811115612c9b57612c9a6122bd565b5b612ca7868287016126cb565b925050604084013567ffffffffffffffff811115612cc857612cc76122bd565b5b612cd48682870161276c565b9150509250925092565b600081519050919050565b600082825260208201905092915050565b6000819050602082019050919050565b612d13816122c2565b82525050565b6000612d258383612d0a565b60208301905092915050565b6000602082019050919050565b6000612d4982612cde565b612d538185612ce9565b9350612d5e83612cfa565b8060005b83811015612d8f578151612d768882612d19565b9750612d8183612d31565b925050600181019050612d62565b5085935050505092915050565b60006020820190508181036000830152612db68184612d3e565b905092915050565b600082825260208201905092915050565b6000612dda8261298b565b612de48185612dbe565b9350612df48185602086016129a7565b612dfd816122fd565b840191505092915050565b612e1181612b83565b82525050565b612e2081612540565b82525050565b600061010083016000830151612e3f6000860182612d0a565b5060208301518482036020860152612e578282612dcf565b91505060408301518482036040860152612e718282612dcf565b91505060608301518482036060860152612e8b8282612dcf565b9150506080830151612ea06080860182612e08565b5060a0830151612eb360a0860182612e17565b5060c0830151612ec660c0860182612d0a565b5060e0830151612ed960e0860182612d0a565b508091505092915050565b60006020820190508181036000830152612efe8184612e26565b905092915050565b6000819050919050565b6000612f2b612f26612f2184612252565b612f06565b612252565b9050919050565b6000612f3d82612f10565b9050919050565b6000612f4f82612f32565b9050919050565b612f5f81612f44565b82525050565b6000602082019050612f7a6000830184612f56565b92915050565b7f4f6e6c792061646d696e2063616e2063616c6c20746869730000000000000000600082015250565b6000612fb6601883612996565b9150612fc182612f80565b602082019050919050565b60006020820190508181036000830152612fe581612fa9565b9050919050565b7f4d61726b657420646f6573206e6f742065786973740000000000000000000000600082015250565b6000613022601583612996565b915061302d82612fec565b602082019050919050565b6000602082019050818103600083015261305181613015565b9050919050565b7f42657474696e67206e6f742066696e6973686564206f72207061796f7574732060008201527f616c726561647920736574000000000000000000000000000000000000000000602082015250565b60006130b4602b83612996565b91506130bf82613058565b604082019050919050565b600060208201905081810360008301526130e3816130a7565b9050919050565b7f417272617973206c656e677468206d69736d6174636800000000000000000000600082015250565b6000613120601683612996565b915061312b826130ea565b602082019050919050565b6000602082019050818103600083015261314f81613113565b9050919050565b7f4e487b7100000000000000000000000000000000000000000000000000000000600052603260045260246000fd5b7f4e487b7100000000000000000000000000000000000000000000000000000000600052601160045260246000fd5b60006131bf826122c2565b91507fffffffffffffffffffffffffffffffffffffffffffffffffffffffffffffffff82036131f1576131f0613185565b5b600182019050919050565b6000819050919050565b600061322161321c613217846131fc565b612f06565b6122c2565b9050919050565b61323181613206565b82525050565b600060408201905061324c6000830185612865565b6132596020830184613228565b9392505050565b7f42657474696e67206973206e6f74206163746976650000000000000000000000600082015250565b6000613296601583612996565b91506132a182613260565b602082019050919050565b600060208201905081810360008301526132c581613289565b9050919050565b7f4e487b7100000000000000000000000000000000000000000000000000000000600052602260045260246000fd5b6000600282049050600182168061331357607f821691505b602082108103613326576133256132cc565b5b50919050565b7f496e76616c696420544545207369676e61747572650000000000000000000000600082015250565b6000613362601583612996565b915061336d8261332c565b602082019050919050565b6000602082019050818103600083015261339181613355565b9050919050565b60008190508160005260206000209050919050565b60006020601f8301049050919050565b600082821b905092915050565b6000600883026133fa7fffffffffffffffffffffffffffffffffffffffffffffffffffffffffffffffff826133bd565b61340486836133bd565b95508019841693508086168417925050509392505050565b600061343761343261342d846122c2565b612f06565b6122c2565b9050919050565b6000819050919050565b6134518361341c565b61346561345d8261343e565b8484546133ca565b825550505050565b600090565b61347a61346d565b613485818484613448565b505050565b5b818110156134a95761349e600082613472565b60018101905061348b565b5050565b601f8211156134ee576134bf81613398565b6134c8846133ad565b810160208510156134d7578190505b6134eb6134e3856133ad565b83018261348a565b50505b505050565b600082821c905092915050565b6000613511600019846008026134f3565b1980831691505092915050565b600061352a8383613500565b9150826002028217905092915050565b6135438261298b565b67ffffffffffffffff81111561355c5761355b61230e565b5b61356682546132fb565b6135718282856134ad565b600060209050601f8311600181146135a45760008415613592578287015190505b61359c858261351e565b865550613604565b601f1984166135b286613398565b60005b828110156135da578489015182556001820191506020850194506020810190506135b5565b868310156135f757848901516135f3601f891682613500565b8355505b6001600288020188555050505b505050505050565b7f4d75737420626574206120706f73697469766520616d6f756e74000000000000600082015250565b6000613642601a83612996565b915061364d8261360c565b602082019050919050565b6000602082019050818103600083015261367181613635565b9050919050565b600060608201905061368d6000830186612284565b61369a6020830185612284565b6136a76040830184612865565b949350505050565b6000815190506136be8161254c565b92915050565b6000602082840312156136da576136d96122b8565b5b60006136e8848285016136af565b91505092915050565b7f546f6b656e207472616e73666572206661696c65640000000000000000000000600082015250565b6000613727601583612996565b9150613732826136f1565b602082019050919050565b600060208201905081810360008301526137568161371a565b9050919050565b6000613768826122c2565b9150613773836122c2565b925082820190508082111561378b5761378a613185565b5b92915050565b600060808201905081810360008301526137ab81876129d1565b905081810360208301526137bf81866129d1565b905081810360408301526137d381856129d1565b90506137e26060830184612865565b95945050505050565b50565b60006137fb600083612996565b9150613806826137eb565b600082019050919050565b6000815461381e816132fb565b6138288186612996565b9450600182166000811461384357600181146138595761388c565b60ff19831686528115156020028601935061388c565b61386285613398565b60005b8381101561388457815481890152600182019150602081019050613865565b808801955050505b50505092915050565b600060408201905081810360008301526138ae816137ee565b905081810360208301526138c28184613811565b905092915050565b6000815190506138d9816122cc565b92915050565b6000602082840312156138f5576138f46122b8565b5b6000613903848285016138ca565b91505092915050565b7f5061796f757473206e6f74207365742079657400000000000000000000000000600082015250565b6000613942601383612996565b915061394d8261390c565b602082019050919050565b6000602082019050818103600083015261397181613935565b9050919050565b7f4e6f207061796f757420617661696c61626c6500000000000000000000000000600082015250565b60006139ae601383612996565b91506139b982613978565b602082019050919050565b600060208201905081810360008301526139dd816139a1565b9050919050565b7f416c726561647920636c61696d65640000000000000000000000000000000000600082015250565b6000613a1a600f83612996565b9150613a25826139e4565b602082019050919050565b60006020820190508181036000830152613a4981613a0d565b9050919050565b6000604082019050613a656000830185612284565b613a726020830184612865565b9392505050565b7f496e76616c696420544545207369676e617475726520666f7220696e6974696160008201527f6c20737461746500000000000000000000000000000000000000000000000000602082015250565b6000613ad5602783612996565b9150613ae082613a79565b604082019050919050565b60006020820190508181036000830152613b0481613ac8565b9050919050565b60006060820190508181036000830152613b2581866129d1565b90508181036020830152613b3981856129d1565b9050613b486040830184612865565b949350505050565b600081905092915050565b6000613b668261298b565b613b708185613b50565b9350613b808185602086016129a7565b80840191505092915050565b6000613b988285613b5b565b9150613ba48284613b5b565b91508190509392505050565b6000819050919050565b613bc381613bb0565b82525050565b6000602082019050613bde6000830184613bba565b92915050565b600060ff82169050919050565b613bfa81613be4565b82525050565b6000608082019050613c156000830187613bba565b613c226020830186613bf1565b613c2f6040830185613bba565b613c3c6060830184613bba565b9594505050505056fea264697066735822122041d7d3f2c3eb97479551af40d100b60e08f436ca503842017527745a253fe29764736f6c63430008140033",
  "linkReferences": {},
  "deployedLinkReferences": {}
}