{
  "_format": "hh-sol-artifact-1",
  "contractName": "PrivateBetting",
  "sourceName": "contracts/PrivateBetting.sol",
  "abi": [
    {
      "inputs": [
        {
          "internalType": "string",
          "name": "_initialEncryptedState",
          "type": "string"
        }
      ],
      "stateMutability": "nonpayable",
      "type": "constructor"
    },
    {
      "anonymous": false,
      "inputs": [
        {
          "indexed": false,
          "internalType": "string",
          "name": "winningOption",
          "type": "string"
        },
        {
          "indexed": false,
          "internalType": "string",
          "name": "finalState",
          "type": "string"
        }
      ],
      "name": "BettingFinished",
      "type": "event"
    },
    {
      "anonymous": false,
      "inputs": [
        {
          "indexed": true,
          "internalType": "address",
          "name": "winner",
          "type": "address"
        },
        {
          "indexed": false,
          "internalType": "uint256",
          "name": "amount",
          "type": "uint256"
        }
      ],
      "name": "PayoutClaimed",
      "type": "event"
    },
    {
      "anonymous": false,
      "inputs": [
        {
          "indexed": false,
          "internalType": "uint256",
          "name": "totalWinners",
          "type": "uint256"
        },
        {
          "indexed": false,
          "internalType": "uint256",
          "name": "totalPool",
          "type": "uint256"
        }
      ],
      "name": "PayoutsSet",
      "type": "event"
    },
    {
      "anonymous": false,
      "inputs": [
        {
          "indexed": false,
          "internalType": "string",
          "name": "newEncryptedState",
          "type": "string"
        }
      ],
      "name": "StateUpdated",
      "type": "event"
    },
    {
      "anonymous": false,
      "inputs": [
        {
          "indexed": true,
          "internalType": "address",
          "name": "voter",
          "type": "address"
        },
        {
          "indexed": false,
          "internalType": "string",
          "name": "encryptedVote",
          "type": "string"
        },
        {
          "indexed": false,
          "internalType": "string",
          "name": "encryptedSymKey",
          "type": "string"
        },
        {
          "indexed": false,
          "internalType": "string",
          "name": "capsule",
          "type": "string"
        },
        {
          "indexed": false,
          "internalType": "uint256",
          "name": "amount",
          "type": "uint256"
        }
      ],
      "name": "VoteSubmitted",
      "type": "event"
    },
    {
      "inputs": [],
      "name": "admin",
      "outputs": [
        {
          "internalType": "address",
          "name": "",
          "type": "address"
        }
      ],
      "stateMutability": "view",
      "type": "function"
    },
    {
      "inputs": [],
      "name": "bettingFinished",
      "outputs": [
        {
          "internalType": "bool",
          "name": "",
          "type": "bool"
        }
      ],
      "stateMutability": "view",
      "type": "function"
    },
    {
      "inputs": [],
      "name": "claimPayout",
      "outputs": [],
      "stateMutability": "nonpayable",
      "type": "function"
    },
    {
      "inputs": [],
      "name": "encryptedState",
      "outputs": [
        {
          "internalType": "string",
          "name": "",
          "type": "string"
        }
      ],
      "stateMutability": "view",
      "type": "function"
    },
    {
      "inputs": [],
      "name": "finishBetting",
      "outputs": [],
      "stateMutability": "nonpayable",
      "type": "function"
    },
    {
      "inputs": [],
      "name": "getContractBalance",
      "outputs": [
        {
          "internalType": "uint256",
          "name": "",
          "type": "uint256"
        }
      ],
      "stateMutability": "view",
      "type": "function"
    },
    {
      "inputs": [],
      "name": "getCurrentState",
      "outputs": [
        {
          "internalType": "string",
          "name": "",
          "type": "string"
        }
      ],
      "stateMutability": "view",
      "type": "function"
    },
    {
      "inputs": [
        {
          "internalType": "address",
          "name": "wallet",
          "type": "address"
        }
      ],
      "name": "getPayoutAmount",
      "outputs": [
        {
          "internalType": "uint256",
          "name": "",
          "type": "uint256"
        }
      ],
      "stateMutability": "view",
      "type": "function"
    },
    {
      "inputs": [
        {
          "internalType": "address",
          "name": "",
          "type": "address"
        }
      ],
      "name": "hasClaimed",
      "outputs": [
        {
          "internalType": "bool",
          "name": "",
          "type": "bool"
        }
      ],
      "stateMutability": "view",
      "type": "function"
    },
    {
      "inputs": [
        {
          "internalType": "address",
          "name": "wallet",
          "type": "address"
        }
      ],
      "name": "hasClaimedPayout",
      "outputs": [
        {
          "internalType": "bool",
          "name": "",
          "type": "bool"
        }
      ],
      "stateMutability": "view",
      "type": "function"
    },
    {
      "inputs": [
        {
          "internalType": "address",
          "name": "",
          "type": "address"
        }
      ],
      "name": "payouts",
      "outputs": [
        {
          "internalType": "uint256",
          "name": "",
          "type": "uint256"
        }
      ],
      "stateMutability": "view",
      "type": "function"
    },
    {
      "inputs": [
        {
          "internalType": "address[]",
          "name": "winners",
          "type": "address[]"
        },
        {
          "internalType": "uint256[]",
          "name": "amounts",
          "type": "uint256[]"
        },
        {
          "internalType": "bool",
          "name": "isLastBatch",
          "type": "bool"
        }
      ],
      "name": "setPayouts",
      "outputs": [],
      "stateMutability": "nonpayable",
      "type": "function"
    },
    {
      "inputs": [],
      "name": "status",
      "outputs": [
        {
          "internalType": "enum PrivateBetting.BettingStatus",
          "name": "",
          "type": "uint8"
        }
      ],
      "stateMutability": "view",
      "type": "function"
    },
    {
      "inputs": [
        {
          "internalType": "string",
          "name": "newEncryptedState",
          "type": "string"
        }
      ],
      "name": "updateState",
      "outputs": [],
      "stateMutability": "nonpayable",
      "type": "function"
    },
    {
      "inputs": [
        {
          "internalType": "string",
          "name": "encryptedVote",
          "type": "string"
        },
        {
          "internalType": "string",
          "name": "encryptedSymKey",
          "type": "string"
        },
        {
          "internalType": "string",
          "name": "capsule",
          "type": "string"
        }
      ],
      "name": "vote",
      "outputs": [],
      "stateMutability": "payable",
      "type": "function"
    }
  ],
  "bytecode": "0x60806040523480156200001157600080fd5b50604051620025513803806200255183398181016040528101906200003791906200026c565b336000806101000a81548173ffffffffffffffffffffffffffffffffffffffff021916908373ffffffffffffffffffffffffffffffffffffffff160217905550806001908162000088919062000508565b506000600260016101000a81548160ff02191690836002811115620000b257620000b1620005ef565b5b02179055506000600260006101000a81548160ff021916908315150217905550506200061e565b6000604051905090565b600080fd5b600080fd5b600080fd5b600080fd5b6000601f19601f8301169050919050565b7f4e487b7100000000000000000000000000000000000000000000000000000000600052604160045260246000fd5b6200014282620000f7565b810181811067ffffffffffffffff8211171562000164576200016362000108565b5b80604052505050565b600062000179620000d9565b905062000187828262000137565b919050565b600067ffffffffffffffff821115620001aa57620001a962000108565b5b620001b582620000f7565b9050602081019050919050565b60005b83811015620001e2578082015181840152602081019050620001c5565b60008484015250505050565b600062000205620001ff846200018c565b6200016d565b905082815260208101848484011115620002245762000223620000f2565b5b62000231848285620001c2565b509392505050565b600082601f830112620002515762000250620000ed565b5b815162000263848260208601620001ee565b91505092915050565b600060208284031215620002855762000284620000e3565b5b600082015167ffffffffffffffff811115620002a657620002a5620000e8565b5b620002b48482850162000239565b91505092915050565b600081519050919050565b7f4e487b7100000000000000000000000000000000000000000000000000000000600052602260045260246000fd5b600060028204905060018216806200031057607f821691505b602082108103620003265762000325620002c8565b5b50919050565b60008190508160005260206000209050919050565b60006020601f8301049050919050565b600082821b905092915050565b600060088302620003907fffffffffffffffffffffffffffffffffffffffffffffffffffffffffffffffff8262000351565b6200039c868362000351565b95508019841693508086168417925050509392505050565b6000819050919050565b6000819050919050565b6000620003e9620003e3620003dd84620003b4565b620003be565b620003b4565b9050919050565b6000819050919050565b6200040583620003c8565b6200041d6200041482620003f0565b8484546200035e565b825550505050565b600090565b6200043462000425565b62000441818484620003fa565b505050565b5b8181101562000469576200045d6000826200042a565b60018101905062000447565b5050565b601f821115620004b85762000482816200032c565b6200048d8462000341565b810160208510156200049d578190505b620004b5620004ac8562000341565b83018262000446565b50505b505050565b600082821c905092915050565b6000620004dd60001984600802620004bd565b1980831691505092915050565b6000620004f88383620004ca565b9150826002028217905092915050565b6200051382620002bd565b67ffffffffffffffff8111156200052f576200052e62000108565b5b6200053b8254620002f7565b620005488282856200046d565b600060209050601f8311600181146200058057600084156200056b578287015190505b620005778582620004ea565b865550620005e7565b601f19841662000590866200032c565b60005b82811015620005ba5784890151825560018201915060208501945060208101905062000593565b86831015620005da5784890151620005d6601f891682620004ca565b8355505b6001600288020188555050505b505050505050565b7f4e487b7100000000000000000000000000000000000000000000000000000000600052602160045260246000fd5b611f23806200062e6000396000f3fe6080604052600436106100e85760003560e01c806394138cac1161008a578063d6db319c11610059578063d6db319c146102d7578063e17685de14610300578063e88499a91461033d578063f851a44014610354576100e8565b806394138cac1461024e57806395f59fe11461026557806397d2f8c814610281578063c14f5c64146102ac576100e8565b806365bcfbe7116100c657806365bcfbe7146101805780636f9fb98a146101bd57806373b2e80e146101e857806379ff2e6d14610225576100e8565b80630349d98f146100ed578063200d2ed21461012a578063378aa70114610155575b600080fd5b3480156100f957600080fd5b50610114600480360381019061010f9190610eff565b61037f565b6040516101219190610f47565b60405180910390f35b34801561013657600080fd5b5061013f6103d5565b60405161014c9190610fd9565b60405180910390f35b34801561016157600080fd5b5061016a6103e8565b6040516101779190611084565b60405180910390f35b34801561018c57600080fd5b506101a760048036038101906101a29190610eff565b61047a565b6040516101b491906110bf565b60405180910390f35b3480156101c957600080fd5b506101d2610492565b6040516101df91906110bf565b60405180910390f35b3480156101f457600080fd5b5061020f600480360381019061020a9190610eff565b61049a565b60405161021c9190610f47565b60405180910390f35b34801561023157600080fd5b5061024c6004803603810190610247919061120f565b6104ba565b005b34801561025a57600080fd5b5061026361057a565b005b61027f600480360381019061027a9190611258565b6106fe565b005b34801561028d57600080fd5b50610296610810565b6040516102a39190611084565b60405180910390f35b3480156102b857600080fd5b506102c161089e565b6040516102ce9190610f47565b60405180910390f35b3480156102e357600080fd5b506102fe60048036038101906102f991906114e2565b6108b1565b005b34801561030c57600080fd5b5061032760048036038101906103229190610eff565b610b02565b60405161033491906110bf565b60405180910390f35b34801561034957600080fd5b50610352610b4b565b005b34801561036057600080fd5b50610369610e69565b604051610376919061157c565b60405180910390f35b6000600460008373ffffffffffffffffffffffffffffffffffffffff1673ffffffffffffffffffffffffffffffffffffffff16815260200190815260200160002060009054906101000a900460ff169050919050565b600260019054906101000a900460ff1681565b6060600180546103f7906115c6565b80601f0160208091040260200160405190810160405280929190818152602001828054610423906115c6565b80156104705780601f1061044557610100808354040283529160200191610470565b820191906000526020600020905b81548152906001019060200180831161045357829003601f168201915b5050505050905090565b60036020528060005260406000206000915090505481565b600047905090565b60046020528060005260406000206000915054906101000a900460ff1681565b600060028111156104ce576104cd610f62565b5b600260019054906101000a900460ff1660028111156104f0576104ef610f62565b5b14610530576040517f08c379a000000000000000000000000000000000000000000000000000000000815260040161052790611643565b60405180910390fd5b806001908161053f919061180f565b507f40a166db587ec103f66a58962fcbee2d88c47b4b400e972cd23af7e15ef7908b8160405161056f9190611084565b60405180910390a150565b60008054906101000a900473ffffffffffffffffffffffffffffffffffffffff1673ffffffffffffffffffffffffffffffffffffffff163373ffffffffffffffffffffffffffffffffffffffff1614610608576040517f08c379a00000000000000000000000000000000000000000000000000000000081526004016105ff9061192d565b60405180910390fd5b6000600281111561061c5761061b610f62565b5b600260019054906101000a900460ff16600281111561063e5761063d610f62565b5b1461067e576040517f08c379a000000000000000000000000000000000000000000000000000000000815260040161067590611643565b60405180910390fd5b6001600260016101000a81548160ff021916908360028111156106a4576106a3610f62565b5b02179055506001600260006101000a81548160ff0219169083151502179055507f57016a9bd3d759d064d909ae761152766da08d08599dcd0bc6527d0c4a28c8c760016040516106f491906119f7565b60405180910390a1565b6000600281111561071257610711610f62565b5b600260019054906101000a900460ff16600281111561073457610733610f62565b5b14610774576040517f08c379a000000000000000000000000000000000000000000000000000000000815260040161076b90611643565b60405180910390fd5b600034116107b7576040517f08c379a00000000000000000000000000000000000000000000000000000000081526004016107ae90611a78565b60405180910390fd5b3373ffffffffffffffffffffffffffffffffffffffff167f3ac3e7b4f5ab6f44c9c853409a305738fbfd4e666c9b70ba2723092f694c73e7848484346040516108039493929190611a98565b60405180910390a2505050565b6001805461081d906115c6565b80601f0160208091040260200160405190810160405280929190818152602001828054610849906115c6565b80156108965780601f1061086b57610100808354040283529160200191610896565b820191906000526020600020905b81548152906001019060200180831161087957829003601f168201915b505050505081565b600260009054906101000a900460ff1681565b60008054906101000a900473ffffffffffffffffffffffffffffffffffffffff1673ffffffffffffffffffffffffffffffffffffffff163373ffffffffffffffffffffffffffffffffffffffff161461093f576040517f08c379a00000000000000000000000000000000000000000000000000000000081526004016109369061192d565b60405180910390fd5b6001600281111561095357610952610f62565b5b600260019054906101000a900460ff16600281111561097557610974610f62565b5b146109b5576040517f08c379a00000000000000000000000000000000000000000000000000000000081526004016109ac90611b64565b60405180910390fd5b81518351146109f9576040517f08c379a00000000000000000000000000000000000000000000000000000000081526004016109f090611bd0565b60405180910390fd5b60005b8351811015610a9057828181518110610a1857610a17611bf0565b5b602002602001015160036000868481518110610a3757610a36611bf0565b5b602002602001015173ffffffffffffffffffffffffffffffffffffffff1673ffffffffffffffffffffffffffffffffffffffff168152602001908152602001600020819055508080610a8890611c4e565b9150506109fc565b508015610afd5760028060016101000a81548160ff02191690836002811115610abc57610abb610f62565b5b02179055507fd5d5d049e9608f1efc24130fb8104fb6919491de8667a9d7aad9efe3d24892d283516000604051610af4929190611cd1565b60405180910390a15b505050565b6000600360008373ffffffffffffffffffffffffffffffffffffffff1673ffffffffffffffffffffffffffffffffffffffff168152602001908152602001600020549050919050565b600280811115610b5e57610b5d610f62565b5b600260019054906101000a900460ff166002811115610b8057610b7f610f62565b5b14610bc0576040517f08c379a0000000000000000000000000000000000000000000000000000000008152600401610bb790611d46565b60405180910390fd5b6000600360003373ffffffffffffffffffffffffffffffffffffffff1673ffffffffffffffffffffffffffffffffffffffff1681526020019081526020016000205411610c42576040517f08c379a0000000000000000000000000000000000000000000000000000000008152600401610c3990611db2565b60405180910390fd5b600460003373ffffffffffffffffffffffffffffffffffffffff1673ffffffffffffffffffffffffffffffffffffffff16815260200190815260200160002060009054906101000a900460ff1615610ccf576040517f08c379a0000000000000000000000000000000000000000000000000000000008152600401610cc690611e1e565b60405180910390fd5b6000600360003373ffffffffffffffffffffffffffffffffffffffff1673ffffffffffffffffffffffffffffffffffffffff1681526020019081526020016000205490506001600460003373ffffffffffffffffffffffffffffffffffffffff1673ffffffffffffffffffffffffffffffffffffffff16815260200190815260200160002060006101000a81548160ff02191690831515021790555060003373ffffffffffffffffffffffffffffffffffffffff1682604051610d9190611e6c565b60006040518083038185875af1925050503d8060008114610dce576040519150601f19603f3d011682016040523d82523d6000602084013e610dd3565b606091505b5050905080610e17576040517f08c379a0000000000000000000000000000000000000000000000000000000008152600401610e0e90611ecd565b60405180910390fd5b3373ffffffffffffffffffffffffffffffffffffffff167fec68461f5d4cc45c89e914cb8826a966c73dd35e5f97815ece0a01ffa4a025a683604051610e5d91906110bf565b60405180910390a25050565b60008054906101000a900473ffffffffffffffffffffffffffffffffffffffff1681565b6000604051905090565b600080fd5b600080fd5b600073ffffffffffffffffffffffffffffffffffffffff82169050919050565b6000610ecc82610ea1565b9050919050565b610edc81610ec1565b8114610ee757600080fd5b50565b600081359050610ef981610ed3565b92915050565b600060208284031215610f1557610f14610e97565b5b6000610f2384828501610eea565b91505092915050565b60008115159050919050565b610f4181610f2c565b82525050565b6000602082019050610f5c6000830184610f38565b92915050565b7f4e487b7100000000000000000000000000000000000000000000000000000000600052602160045260246000fd5b60038110610fa257610fa1610f62565b5b50565b6000819050610fb382610f91565b919050565b6000610fc382610fa5565b9050919050565b610fd381610fb8565b82525050565b6000602082019050610fee6000830184610fca565b92915050565b600081519050919050565b600082825260208201905092915050565b60005b8381101561102e578082015181840152602081019050611013565b60008484015250505050565b6000601f19601f8301169050919050565b600061105682610ff4565b6110608185610fff565b9350611070818560208601611010565b6110798161103a565b840191505092915050565b6000602082019050818103600083015261109e818461104b565b905092915050565b6000819050919050565b6110b9816110a6565b82525050565b60006020820190506110d460008301846110b0565b92915050565b600080fd5b600080fd5b7f4e487b7100000000000000000000000000000000000000000000000000000000600052604160045260246000fd5b61111c8261103a565b810181811067ffffffffffffffff8211171561113b5761113a6110e4565b5b80604052505050565b600061114e610e8d565b905061115a8282611113565b919050565b600067ffffffffffffffff82111561117a576111796110e4565b5b6111838261103a565b9050602081019050919050565b82818337600083830152505050565b60006111b26111ad8461115f565b611144565b9050828152602081018484840111156111ce576111cd6110df565b5b6111d9848285611190565b509392505050565b600082601f8301126111f6576111f56110da565b5b813561120684826020860161119f565b91505092915050565b60006020828403121561122557611224610e97565b5b600082013567ffffffffffffffff81111561124357611242610e9c565b5b61124f848285016111e1565b91505092915050565b60008060006060848603121561127157611270610e97565b5b600084013567ffffffffffffffff81111561128f5761128e610e9c565b5b61129b868287016111e1565b935050602084013567ffffffffffffffff8111156112bc576112bb610e9c565b5b6112c8868287016111e1565b925050604084013567ffffffffffffffff8111156112e9576112e8610e9c565b5b6112f5868287016111e1565b9150509250925092565b600067ffffffffffffffff82111561131a576113196110e4565b5b602082029050602081019050919050565b600080fd5b600061134361133e846112ff565b611144565b905080838252602082019050602084028301858111156113665761136561132b565b5b835b8181101561138f578061137b8882610eea565b845260208401935050602081019050611368565b5050509392505050565b600082601f8301126113ae576113ad6110da565b5b81356113be848260208601611330565b91505092915050565b600067ffffffffffffffff8211156113e2576113e16110e4565b5b602082029050602081019050919050565b6113fc816110a6565b811461140757600080fd5b50565b600081359050611419816113f3565b92915050565b600061143261142d846113c7565b611144565b905080838252602082019050602084028301858111156114555761145461132b565b5b835b8181101561147e578061146a888261140a565b845260208401935050602081019050611457565b5050509392505050565b600082601f83011261149d5761149c6110da565b5b81356114ad84826020860161141f565b91505092915050565b6114bf81610f2c565b81146114ca57600080fd5b50565b6000813590506114dc816114b6565b92915050565b6000806000606084860312156114fb576114fa610e97565b5b600084013567ffffffffffffffff81111561151957611518610e9c565b5b61152586828701611399565b935050602084013567ffffffffffffffff81111561154657611545610e9c565b5b61155286828701611488565b9250506040611563868287016114cd565b9150509250925092565b61157681610ec1565b82525050565b6000602082019050611591600083018461156d565b92915050565b7f4e487b7100000000000000000000000000000000000000000000000000000000600052602260045260246000fd5b600060028204905060018216806115de57607f821691505b6020821081036115f1576115f0611597565b5b50919050565b7f42657474696e67206973206e6f74206163746976650000000000000000000000600082015250565b600061162d601583610fff565b9150611638826115f7565b602082019050919050565b6000602082019050818103600083015261165c81611620565b9050919050565b60008190508160005260206000209050919050565b60006020601f8301049050919050565b600082821b905092915050565b6000600883026116c57fffffffffffffffffffffffffffffffffffffffffffffffffffffffffffffffff82611688565b6116cf8683611688565b95508019841693508086168417925050509392505050565b6000819050919050565b600061170c611707611702846110a6565b6116e7565b6110a6565b9050919050565b6000819050919050565b611726836116f1565b61173a61173282611713565b848454611695565b825550505050565b600090565b61174f611742565b61175a81848461171d565b505050565b5b8181101561177e57611773600082611747565b600181019050611760565b5050565b601f8211156117c35761179481611663565b61179d84611678565b810160208510156117ac578190505b6117c06117b885611678565b83018261175f565b50505b505050565b600082821c905092915050565b60006117e6600019846008026117c8565b1980831691505092915050565b60006117ff83836117d5565b9150826002028217905092915050565b61181882610ff4565b67ffffffffffffffff811115611831576118306110e4565b5b61183b82546115c6565b611846828285611782565b600060209050601f8311600181146118795760008415611867578287015190505b61187185826117f3565b8655506118d9565b601f19841661188786611663565b60005b828110156118af5784890151825560018201915060208501945060208101905061188a565b868310156118cc57848901516118c8601f8916826117d5565b8355505b6001600288020188555050505b505050505050565b7f4f6e6c792061646d696e2063616e2063616c6c20746869730000000000000000600082015250565b6000611917601883610fff565b9150611922826118e1565b602082019050919050565b600060208201905081810360008301526119468161190a565b9050919050565b50565b600061195d600083610fff565b91506119688261194d565b600082019050919050565b60008154611980816115c6565b61198a8186610fff565b945060018216600081146119a557600181146119bb576119ee565b60ff1983168652811515602002860193506119ee565b6119c485611663565b60005b838110156119e6578154818901526001820191506020810190506119c7565b808801955050505b50505092915050565b60006040820190508181036000830152611a1081611950565b90508181036020830152611a248184611973565b905092915050565b7f4d7573742073656e642066756e6473207769746820766f746500000000000000600082015250565b6000611a62601983610fff565b9150611a6d82611a2c565b602082019050919050565b60006020820190508181036000830152611a9181611a55565b9050919050565b60006080820190508181036000830152611ab2818761104b565b90508181036020830152611ac6818661104b565b90508181036040830152611ada818561104b565b9050611ae960608301846110b0565b95945050505050565b7f42657474696e67206e6f742066696e6973686564206f72207061796f7574732060008201527f616c726561647920736574000000000000000000000000000000000000000000602082015250565b6000611b4e602b83610fff565b9150611b5982611af2565b604082019050919050565b60006020820190508181036000830152611b7d81611b41565b9050919050565b7f417272617973206c656e677468206d69736d6174636800000000000000000000600082015250565b6000611bba601683610fff565b9150611bc582611b84565b602082019050919050565b60006020820190508181036000830152611be981611bad565b9050919050565b7f4e487b7100000000000000000000000000000000000000000000000000000000600052603260045260246000fd5b7f4e487b7100000000000000000000000000000000000000000000000000000000600052601160045260246000fd5b6000611c59826110a6565b91507fffffffffffffffffffffffffffffffffffffffffffffffffffffffffffffffff8203611c8b57611c8a611c1f565b5b600182019050919050565b6000819050919050565b6000611cbb611cb6611cb184611c96565b6116e7565b6110a6565b9050919050565b611ccb81611ca0565b82525050565b6000604082019050611ce660008301856110b0565b611cf36020830184611cc2565b9392505050565b7f5061796f757473206e6f74207365742079657400000000000000000000000000600082015250565b6000611d30601383610fff565b9150611d3b82611cfa565b602082019050919050565b60006020820190508181036000830152611d5f81611d23565b9050919050565b7f4e6f207061796f757420617661696c61626c6500000000000000000000000000600082015250565b6000611d9c601383610fff565b9150611da782611d66565b602082019050919050565b60006020820190508181036000830152611dcb81611d8f565b9050919050565b7f416c726561647920636c61696d65640000000000000000000000000000000000600082015250565b6000611e08600f83610fff565b9150611e1382611dd2565b602082019050919050565b60006020820190508181036000830152611e3781611dfb565b9050919050565b600081905092915050565b6000611e56600083611e3e565b9150611e618261194d565b600082019050919050565b6000611e7782611e49565b9150819050919050565b7f5472616e73666572206661696c65640000000000000000000000000000000000600082015250565b6000611eb7600f83610fff565b9150611ec282611e81565b602082019050919050565b60006020820190508181036000830152611ee681611eaa565b905091905056fea26469706673582212204d0f0d4727466d104467724a9100d65ca94a0749c7a1c21a6ed72caaf4311f6764736f6c63430008140033",
  "linkReferences": {},
  "deployedLinkReferences": {}
}