{
  "_format": "hh-sol-artifact-1",
  "contractName": "PrivateBetting",
  "sourceName": "contracts/PrivateBetting.sol",
  "abi": [
    {
      "inputs": [
        {
          "internalType": "address",
          "name": "_teeAddress",
          "type": "address"
        }
      ],
      "stateMutability": "nonpayable",
      "type": "constructor"
    },
    {
      "inputs": [],
      "name": "ECDSAInvalidSignature",
      "type": "error"
    },
    {
      "inputs": [
        {
          "internalType": "uint256",
          "name": "length",
          "type": "uint256"
        }
      ],
      "name": "ECDSAInvalidSignatureLength",
      "type": "error"
    },
    {
      "inputs": [
        {
          "internalType": "bytes32",
          "name": "s",
          "type": "bytes32"
        }
      ],
      "name": "ECDSAInvalidSignatureS",
      "type": "error"
    },
    {
      "anonymous": false,
      "inputs": [
        {
          "indexed": true,
          "internalType": "uint256",
          "name": "marketId",
          "type": "uint256"
        },
        {
          "indexed": false,
          "internalType": "string",
          "name": "winningOption",
          "type": "string"
        },
        {
          "indexed": false,
          "internalType": "string",
          "name": "finalState",
          "type": "string"
        }
      ],
      "name": "BettingFinished",
      "type": "event"
    },
    {
      "anonymous": false,
      "inputs": [
        {
          "indexed": true,
          "internalType": "uint256",
          "name": "marketId",
          "type": "uint256"
        },
        {
          "indexed": false,
          "internalType": "string",
          "name": "title",
          "type": "string"
        },
        {
          "indexed": false,
          "internalType": "string",
          "name": "description",
          "type": "string"
        },
        {
          "indexed": false,
          "internalType": "address",
          "name": "tokenAddress",
          "type": "address"
        },
        {
          "indexed": false,
          "internalType": "uint256",
          "name": "createdAt",
          "type": "uint256"
        }
      ],
      "name": "MarketCreated",
      "type": "event"
    },
    {
      "anonymous": false,
      "inputs": [
        {
          "indexed": true,
          "internalType": "uint256",
          "name": "marketId",
          "type": "uint256"
        },
        {
          "indexed": true,
          "internalType": "address",
          "name": "winner",
          "type": "address"
        },
        {
          "indexed": false,
          "internalType": "uint256",
          "name": "amount",
          "type": "uint256"
        }
      ],
      "name": "PayoutClaimed",
      "type": "event"
    },
    {
      "anonymous": false,
      "inputs": [
        {
          "indexed": true,
          "internalType": "uint256",
          "name": "marketId",
          "type": "uint256"
        },
        {
          "indexed": false,
          "internalType": "uint256",
          "name": "totalWinners",
          "type": "uint256"
        },
        {
          "indexed": false,
          "internalType": "uint256",
          "name": "totalPool",
          "type": "uint256"
        }
      ],
      "name": "PayoutsSet",
      "type": "event"
    },
    {
      "anonymous": false,
      "inputs": [
        {
          "indexed": true,
          "internalType": "uint256",
          "name": "marketId",
          "type": "uint256"
        },
        {
          "indexed": false,
          "internalType": "string",
          "name": "newEncryptedState",
          "type": "string"
        }
      ],
      "name": "StateUpdated",
      "type": "event"
    },
    {
      "anonymous": false,
      "inputs": [
        {
          "indexed": true,
          "internalType": "uint256",
          "name": "marketId",
          "type": "uint256"
        },
        {
          "indexed": true,
          "internalType": "address",
          "name": "voter",
          "type": "address"
        },
        {
          "indexed": false,
          "internalType": "string",
          "name": "encryptedVote",
          "type": "string"
        },
        {
          "indexed": false,
          "internalType": "string",
          "name": "encryptedSymKey",
          "type": "string"
        },
        {
          "indexed": false,
          "internalType": "string",
          "name": "capsule",
          "type": "string"
        },
        {
          "indexed": false,
          "internalType": "uint256",
          "name": "amount",
          "type": "uint256"
        }
      ],
      "name": "VoteSubmitted",
      "type": "event"
    },
    {
      "inputs": [],
      "name": "admin",
      "outputs": [
        {
          "internalType": "address",
          "name": "",
          "type": "address"
        }
      ],
      "stateMutability": "view",
      "type": "function"
    },
    {
      "inputs": [
        {
          "internalType": "uint256",
          "name": "marketId",
          "type": "uint256"
        }
      ],
      "name": "claimPayout",
      "outputs": [],
      "stateMutability": "nonpayable",
      "type": "function"
    },
    {
      "inputs": [
        {
          "internalType": "string",
          "name": "title",
          "type": "string"
        },
        {
          "internalType": "string",
          "name": "description",
          "type": "string"
        },
        {
          "internalType": "address",
          "name": "tokenAddress",
          "type": "address"
        },
        {
          "internalType": "string",
          "name": "initialEncryptedState",
          "type": "string"
        },
        {
          "internalType": "bytes",
          "name": "signature",
          "type": "bytes"
        }
      ],
      "name": "createMarket",
      "outputs": [
        {
          "internalType": "uint256",
          "name": "",
          "type": "uint256"
        }
      ],
      "stateMutability": "nonpayable",
      "type": "function"
    },
    {
      "inputs": [
        {
          "internalType": "uint256",
          "name": "marketId",
          "type": "uint256"
        }
      ],
      "name": "finishBetting",
      "outputs": [],
      "stateMutability": "nonpayable",
      "type": "function"
    },
    {
      "inputs": [],
      "name": "getAllMarketIds",
      "outputs": [
        {
          "internalType": "uint256[]",
          "name": "",
          "type": "uint256[]"
        }
      ],
      "stateMutability": "view",
      "type": "function"
    },
    {
      "inputs": [
        {
          "internalType": "uint256",
          "name": "marketId",
          "type": "uint256"
        }
      ],
      "name": "getContractBalance",
      "outputs": [
        {
          "internalType": "uint256",
          "name": "",
          "type": "uint256"
        }
      ],
      "stateMutability": "view",
      "type": "function"
    },
    {
      "inputs": [
        {
          "internalType": "uint256",
          "name": "marketId",
          "type": "uint256"
        }
      ],
      "name": "getCurrentState",
      "outputs": [
        {
          "internalType": "string",
          "name": "",
          "type": "string"
        }
      ],
      "stateMutability": "view",
      "type": "function"
    },
    {
      "inputs": [
        {
          "internalType": "uint256",
          "name": "marketId",
          "type": "uint256"
        }
      ],
      "name": "getMarket",
      "outputs": [
        {
          "components": [
            {
              "internalType": "uint256",
              "name": "marketId",
              "type": "uint256"
            },
            {
              "internalType": "string",
              "name": "title",
              "type": "string"
            },
            {
              "internalType": "string",
              "name": "description",
              "type": "string"
            },
            {
              "internalType": "address",
              "name": "tokenAddress",
              "type": "address"
            },
            {
              "internalType": "string",
              "name": "encryptedState",
              "type": "string"
            },
            {
              "internalType": "enum PrivateBetting.BettingStatus",
              "name": "status",
              "type": "uint8"
            },
            {
              "internalType": "bool",
              "name": "bettingFinished",
              "type": "bool"
            },
            {
              "internalType": "uint256",
              "name": "createdAt",
              "type": "uint256"
            },
            {
              "internalType": "uint256",
              "name": "totalVolume",
              "type": "uint256"
            }
          ],
          "internalType": "struct PrivateBetting.Market",
          "name": "",
          "type": "tuple"
        }
      ],
      "stateMutability": "view",
      "type": "function"
    },
    {
      "inputs": [
        {
          "internalType": "uint256",
          "name": "marketId",
          "type": "uint256"
        },
        {
          "internalType": "address",
          "name": "wallet",
          "type": "address"
        }
      ],
      "name": "getPayoutAmount",
      "outputs": [
        {
          "internalType": "uint256",
          "name": "",
          "type": "uint256"
        }
      ],
      "stateMutability": "view",
      "type": "function"
    },
    {
      "inputs": [
        {
          "internalType": "uint256",
          "name": "marketId",
          "type": "uint256"
        }
      ],
      "name": "getTokenAddress",
      "outputs": [
        {
          "internalType": "address",
          "name": "",
          "type": "address"
        }
      ],
      "stateMutability": "view",
      "type": "function"
    },
    {
      "inputs": [
        {
          "internalType": "uint256",
          "name": "",
          "type": "uint256"
        },
        {
          "internalType": "address",
          "name": "",
          "type": "address"
        }
      ],
      "name": "hasClaimed",
      "outputs": [
        {
          "internalType": "bool",
          "name": "",
          "type": "bool"
        }
      ],
      "stateMutability": "view",
      "type": "function"
    },
    {
      "inputs": [
        {
          "internalType": "uint256",
          "name": "marketId",
          "type": "uint256"
        },
        {
          "internalType": "address",
          "name": "wallet",
          "type": "address"
        }
      ],
      "name": "hasClaimedPayout",
      "outputs": [
        {
          "internalType": "bool",
          "name": "",
          "type": "bool"
        }
      ],
      "stateMutability": "view",
      "type": "function"
    },
    {
      "inputs": [],
      "name": "marketCount",
      "outputs": [
        {
          "internalType": "uint256",
          "name": "",
          "type": "uint256"
        }
      ],
      "stateMutability": "view",
      "type": "function"
    },
    {
      "inputs": [
        {
          "internalType": "uint256",
          "name": "",
          "type": "uint256"
        }
      ],
      "name": "markets",
      "outputs": [
        {
          "internalType": "uint256",
          "name": "marketId",
          "type": "uint256"
        },
        {
          "internalType": "string",
          "name": "title",
          "type": "string"
        },
        {
          "internalType": "string",
          "name": "description",
          "type": "string"
        },
        {
          "internalType": "address",
          "name": "tokenAddress",
          "type": "address"
        },
        {
          "internalType": "string",
          "name": "encryptedState",
          "type": "string"
        },
        {
          "internalType": "enum PrivateBetting.BettingStatus",
          "name": "status",
          "type": "uint8"
        },
        {
          "internalType": "bool",
          "name": "bettingFinished",
          "type": "bool"
        },
        {
          "internalType": "uint256",
          "name": "createdAt",
          "type": "uint256"
        },
        {
          "internalType": "uint256",
          "name": "totalVolume",
          "type": "uint256"
        }
      ],
      "stateMutability": "view",
      "type": "function"
    },
    {
      "inputs": [
        {
          "internalType": "uint256",
          "name": "",
          "type": "uint256"
        },
        {
          "internalType": "address",
          "name": "",
          "type": "address"
        }
      ],
      "name": "payouts",
      "outputs": [
        {
          "internalType": "uint256",
          "name": "",
          "type": "uint256"
        }
      ],
      "stateMutability": "view",
      "type": "function"
    },
    {
      "inputs": [
        {
          "internalType": "uint256",
          "name": "marketId",
          "type": "uint256"
        },
        {
          "internalType": "address[]",
          "name": "winners",
          "type": "address[]"
        },
        {
          "internalType": "uint256[]",
          "name": "amounts",
          "type": "uint256[]"
        },
        {
          "internalType": "bool",
          "name": "isLastBatch",
          "type": "bool"
        }
      ],
      "name": "setPayouts",
      "outputs": [],
      "stateMutability": "nonpayable",
      "type": "function"
    },
    {
      "inputs": [
        {
          "internalType": "address",
          "name": "_teeAddress",
          "type": "address"
        }
      ],
      "name": "setTEEAddress",
      "outputs": [],
      "stateMutability": "nonpayable",
      "type": "function"
    },
    {
      "inputs": [],
      "name": "teeAddress",
      "outputs": [
        {
          "internalType": "address",
          "name": "",
          "type": "address"
        }
      ],
      "stateMutability": "view",
      "type": "function"
    },
    {
      "inputs": [
        {
          "internalType": "uint256",
          "name": "marketId",
          "type": "uint256"
        },
        {
          "internalType": "string",
          "name": "newEncryptedState",
          "type": "string"
        },
        {
          "internalType": "bytes",
          "name": "signature",
          "type": "bytes"
        }
      ],
      "name": "updateState",
      "outputs": [],
      "stateMutability": "nonpayable",
      "type": "function"
    },
    {
      "inputs": [
        {
          "internalType": "string",
          "name": "prevState",
          "type": "string"
        },
        {
          "internalType": "string",
          "name": "newState",
          "type": "string"
        },
        {
          "internalType": "bytes",
          "name": "signature",
          "type": "bytes"
        }
      ],
      "name": "verifyTEESignature",
      "outputs": [
        {
          "internalType": "bool",
          "name": "",
          "type": "bool"
        }
      ],
      "stateMutability": "view",
      "type": "function"
    },
    {
      "inputs": [
        {
          "internalType": "uint256",
          "name": "marketId",
          "type": "uint256"
        },
        {
          "internalType": "string",
          "name": "encryptedVote",
          "type": "string"
        },
        {
          "internalType": "string",
          "name": "encryptedSymKey",
          "type": "string"
        },
        {
          "internalType": "string",
          "name": "capsule",
          "type": "string"
        },
        {
          "internalType": "uint256",
          "name": "amount",
          "type": "uint256"
        }
      ],
      "name": "vote",
      "outputs": [],
      "stateMutability": "nonpayable",
      "type": "function"
    }
  ],
  "bytecode": "0x60806040523480156200001157600080fd5b506040516200407638038062004076833981810160405281019062000037919062000131565b336000806101000a81548173ffffffffffffffffffffffffffffffffffffffff021916908373ffffffffffffffffffffffffffffffffffffffff16021790555080600160006101000a81548173ffffffffffffffffffffffffffffffffffffffff021916908373ffffffffffffffffffffffffffffffffffffffff16021790555060006002819055505062000163565b600080fd5b600073ffffffffffffffffffffffffffffffffffffffff82169050919050565b6000620000f982620000cc565b9050919050565b6200010b81620000ec565b81146200011757600080fd5b50565b6000815190506200012b8162000100565b92915050565b6000602082840312156200014a5762000149620000c7565b5b60006200015a848285016200011a565b91505092915050565b613f0380620001736000396000f3fe608060405234801561001057600080fd5b50600436106101375760003560e01c806378b9e620116100b8578063b85ed6361161007c578063b85ed6361461038a578063c3ffa297146103a8578063e8429b9e146103d8578063eb44fdd314610408578063ec97908214610438578063f851a4401461045657610137565b806378b9e620146102b8578063873f6f9e146102d65780638a69614e14610306578063b1283e7714610322578063b1d9a0d21461035a57610137565b80634c725ab5116100ff5780634c725ab5146101f05780635352359f146102205780635748c1301461023c57806367ccdf381461026c578063694db8611461029c57610137565b806305d630701461013c578063163d0af41461016c5780632302da1c146101885780632bd0be1e146101a457806334633f90146101c0575b600080fd5b610156600480360381019061015191906124d3565b610474565b604051610163919061250f565b60405180910390f35b610186600480360381019061018191906127dc565b610579565b005b6101a2600480360381019061019d919061287b565b61084e565b005b6101be60048036038101906101b991906129fe565b610920565b005b6101da60048036038101906101d59190612a89565b610b41565b6040516101e7919061250f565b60405180910390f35b61020a60048036038101906102059190612a89565b610be2565b604051610217919061250f565b60405180910390f35b61023a60048036038101906102359190612ac9565b610c07565b005b610256600480360381019061025191906124d3565b610ea0565b6040516102639190612c17565b60405180910390f35b610286600480360381019061028191906124d3565b610f8e565b6040516102939190612c48565b60405180910390f35b6102b660048036038101906102b191906124d3565b611014565b005b6102c0611232565b6040516102cd9190612c48565b60405180910390f35b6102f060048036038101906102eb9190612a89565b611258565b6040516102fd9190612c72565b60405180910390f35b610320600480360381019061031b91906124d3565b611287565b005b61033c600480360381019061033791906124d3565b611691565b60405161035199989796959493929190612d04565b60405180910390f35b610374600480360381019061036f9190612da6565b6118b1565b6040516103819190612c72565b60405180910390f35b61039261195a565b60405161039f9190612f0b565b60405180910390f35b6103c260048036038101906103bd9190612f2d565b6119f3565b6040516103cf919061250f565b60405180910390f35b6103f260048036038101906103ed9190612a89565b611d31565b6040516103ff9190612c72565b60405180910390f35b610422600480360381019061041d91906124d3565b611ddf565b60405161042f9190613162565b60405180910390f35b6104406120d3565b60405161044d919061250f565b60405180910390f35b61045e6120d9565b60405161046b9190612c48565b60405180910390f35b60008160025481106104bb576040517f08c379a00000000000000000000000000000000000000000000000000000000081526004016104b2906131d0565b60405180910390fd5b60006003600085815260200190815260200160002060030160009054906101000a900473ffffffffffffffffffffffffffffffffffffffff1690508073ffffffffffffffffffffffffffffffffffffffff166370a08231306040518263ffffffff1660e01b815260040161052f9190612c48565b602060405180830381865afa15801561054c573d6000803e3d6000fd5b505050506040513d601f19601f820116820180604052508101906105709190613205565b92505050919050565b60008054906101000a900473ffffffffffffffffffffffffffffffffffffffff1673ffffffffffffffffffffffffffffffffffffffff163373ffffffffffffffffffffffffffffffffffffffff1614610607576040517f08c379a00000000000000000000000000000000000000000000000000000000081526004016105fe9061327e565b60405180910390fd5b83600254811061064c576040517f08c379a0000000000000000000000000000000000000000000000000000000008152600401610643906131d0565b60405180910390fd5b846001600281111561066157610660612c8d565b5b6003600083815260200190815260200160002060050160009054906101000a900460ff16600281111561069757610696612c8d565b5b146106d7576040517f08c379a00000000000000000000000000000000000000000000000000000000081526004016106ce90613310565b60405180910390fd5b835185511461071b576040517f08c379a00000000000000000000000000000000000000000000000000000000081526004016107129061337c565b60405180910390fd5b60005b85518110156107c35784818151811061073a5761073961339c565b5b602002602001015160046000898152602001908152602001600020600088848151811061076a5761076961339c565b5b602002602001015173ffffffffffffffffffffffffffffffffffffffff1673ffffffffffffffffffffffffffffffffffffffff1681526020019081526020016000208190555080806107bb906133fa565b91505061071e565b5082156108465760026003600088815260200190815260200160002060050160006101000a81548160ff0219169083600281111561080457610803612c8d565b5b0217905550857fa30a10c8978183a0cb62788eec9a87a5ea1f860dbe2605d7fa06b73e7b61242e8651600060405161083d929190613487565b60405180910390a25b505050505050565b60008054906101000a900473ffffffffffffffffffffffffffffffffffffffff1673ffffffffffffffffffffffffffffffffffffffff163373ffffffffffffffffffffffffffffffffffffffff16146108dc576040517f08c379a00000000000000000000000000000000000000000000000000000000081526004016108d39061327e565b60405180910390fd5b80600160006101000a81548173ffffffffffffffffffffffffffffffffffffffff021916908373ffffffffffffffffffffffffffffffffffffffff16021790555050565b826002548110610965576040517f08c379a000000000000000000000000000000000000000000000000000000000815260040161095c906131d0565b60405180910390fd5b836000600281111561097a57610979612c8d565b5b6003600083815260200190815260200160002060050160009054906101000a900460ff1660028111156109b0576109af612c8d565b5b146109f0576040517f08c379a00000000000000000000000000000000000000000000000000000000081526004016109e7906134fc565b60405180910390fd5b6000600360008781526020019081526020016000206004018054610a139061354b565b80601f0160208091040260200160405190810160405280929190818152602001828054610a3f9061354b565b8015610a8c5780601f10610a6157610100808354040283529160200191610a8c565b820191906000526020600020905b815481529060010190602001808311610a6f57829003601f168201915b50505050509050610a9e8186866118b1565b610add576040517f08c379a0000000000000000000000000000000000000000000000000000000008152600401610ad4906135c8565b60405180910390fd5b84600360008881526020019081526020016000206004019081610b00919061378a565b50857f771d8231d98117b292d0f5560da5e8571ea2da00116acefb42226fe4353d591286604051610b319190612c17565b60405180910390a2505050505050565b6000826002548110610b88576040517f08c379a0000000000000000000000000000000000000000000000000000000008152600401610b7f906131d0565b60405180910390fd5b6004600085815260200190815260200160002060008473ffffffffffffffffffffffffffffffffffffffff1673ffffffffffffffffffffffffffffffffffffffff1681526020019081526020016000205491505092915050565b6004602052816000526040600020602052806000526040600020600091509150505481565b846002548110610c4c576040517f08c379a0000000000000000000000000000000000000000000000000000000008152600401610c43906131d0565b60405180910390fd5b8560006002811115610c6157610c60612c8d565b5b6003600083815260200190815260200160002060050160009054906101000a900460ff166002811115610c9757610c96612c8d565b5b14610cd7576040517f08c379a0000000000000000000000000000000000000000000000000000000008152600401610cce906134fc565b60405180910390fd5b60008311610d1a576040517f08c379a0000000000000000000000000000000000000000000000000000000008152600401610d11906138a8565b60405180910390fd5b60006003600089815260200190815260200160002060030160009054906101000a900473ffffffffffffffffffffffffffffffffffffffff1690508073ffffffffffffffffffffffffffffffffffffffff166323b872dd3330876040518463ffffffff1660e01b8152600401610d92939291906138c8565b6020604051808303816000875af1158015610db1573d6000803e3d6000fd5b505050506040513d601f19601f82011682018060405250810190610dd59190613914565b610e14576040517f08c379a0000000000000000000000000000000000000000000000000000000008152600401610e0b9061398d565b60405180910390fd5b83600360008a81526020019081526020016000206007016000828254610e3a91906139ad565b925050819055503373ffffffffffffffffffffffffffffffffffffffff16887f1d1da12838aeccab6f35aeca09e9bd8d5cf850b96adab93882522ffab897f44489898989604051610e8e94939291906139e1565b60405180910390a35050505050505050565b6060816002548110610ee7576040517f08c379a0000000000000000000000000000000000000000000000000000000008152600401610ede906131d0565b60405180910390fd5b600360008481526020019081526020016000206004018054610f089061354b565b80601f0160208091040260200160405190810160405280929190818152602001828054610f349061354b565b8015610f815780601f10610f5657610100808354040283529160200191610f81565b820191906000526020600020905b815481529060010190602001808311610f6457829003601f168201915b5050505050915050919050565b6000816002548110610fd5576040517f08c379a0000000000000000000000000000000000000000000000000000000008152600401610fcc906131d0565b60405180910390fd5b6003600084815260200190815260200160002060030160009054906101000a900473ffffffffffffffffffffffffffffffffffffffff16915050919050565b60008054906101000a900473ffffffffffffffffffffffffffffffffffffffff1673ffffffffffffffffffffffffffffffffffffffff163373ffffffffffffffffffffffffffffffffffffffff16146110a2576040517f08c379a00000000000000000000000000000000000000000000000000000000081526004016110999061327e565b60405180910390fd5b8060025481106110e7576040517f08c379a00000000000000000000000000000000000000000000000000000000081526004016110de906131d0565b60405180910390fd5b81600060028111156110fc576110fb612c8d565b5b6003600083815260200190815260200160002060050160009054906101000a900460ff16600281111561113257611131612c8d565b5b14611172576040517f08c379a0000000000000000000000000000000000000000000000000000000008152600401611169906134fc565b60405180910390fd5b60016003600085815260200190815260200160002060050160006101000a81548160ff021916908360028111156111ac576111ab612c8d565b5b021790555060016003600085815260200190815260200160002060050160016101000a81548160ff021916908315150217905550827f21fea16c68258ef02d831126b555e3422798a8a284e38fedeb66169de91ef262600360008681526020019081526020016000206004016040516112259190613ae5565b60405180910390a2505050565b600160009054906101000a900473ffffffffffffffffffffffffffffffffffffffff1681565b60056020528160005260406000206020528060005260406000206000915091509054906101000a900460ff1681565b8060025481106112cc576040517f08c379a00000000000000000000000000000000000000000000000000000000081526004016112c3906131d0565b60405180910390fd5b6002808111156112df576112de612c8d565b5b6003600084815260200190815260200160002060050160009054906101000a900460ff16600281111561131557611314612c8d565b5b14611355576040517f08c379a000000000000000000000000000000000000000000000000000000000815260040161134c90613b66565b60405180910390fd5b60006004600084815260200190815260200160002060003373ffffffffffffffffffffffffffffffffffffffff1673ffffffffffffffffffffffffffffffffffffffff16815260200190815260200160002054116113e8576040517f08c379a00000000000000000000000000000000000000000000000000000000081526004016113df90613bd2565b60405180910390fd5b6005600083815260200190815260200160002060003373ffffffffffffffffffffffffffffffffffffffff1673ffffffffffffffffffffffffffffffffffffffff16815260200190815260200160002060009054906101000a900460ff1615611486576040517f08c379a000000000000000000000000000000000000000000000000000000000815260040161147d90613c3e565b60405180910390fd5b60006004600084815260200190815260200160002060003373ffffffffffffffffffffffffffffffffffffffff1673ffffffffffffffffffffffffffffffffffffffff16815260200190815260200160002054905060016005600085815260200190815260200160002060003373ffffffffffffffffffffffffffffffffffffffff1673ffffffffffffffffffffffffffffffffffffffff16815260200190815260200160002060006101000a81548160ff02191690831515021790555060006003600085815260200190815260200160002060030160009054906101000a900473ffffffffffffffffffffffffffffffffffffffff1690508073ffffffffffffffffffffffffffffffffffffffff1663a9059cbb33846040518363ffffffff1660e01b81526004016115ba929190613c5e565b6020604051808303816000875af11580156115d9573d6000803e3d6000fd5b505050506040513d601f19601f820116820180604052508101906115fd9190613914565b61163c576040517f08c379a00000000000000000000000000000000000000000000000000000000081526004016116339061398d565b60405180910390fd5b3373ffffffffffffffffffffffffffffffffffffffff16847fe97cee5a4c0549d3fdc81e322b718ddf0aeb3418ec87dce4f9a7fb28d117c31284604051611683919061250f565b60405180910390a350505050565b60036020528060005260406000206000915090508060000154908060010180546116ba9061354b565b80601f01602080910402602001604051908101604052809291908181526020018280546116e69061354b565b80156117335780601f1061170857610100808354040283529160200191611733565b820191906000526020600020905b81548152906001019060200180831161171657829003601f168201915b5050505050908060020180546117489061354b565b80601f01602080910402602001604051908101604052809291908181526020018280546117749061354b565b80156117c15780601f10611796576101008083540402835291602001916117c1565b820191906000526020600020905b8154815290600101906020018083116117a457829003601f168201915b5050505050908060030160009054906101000a900473ffffffffffffffffffffffffffffffffffffffff16908060040180546117fc9061354b565b80601f01602080910402602001604051908101604052809291908181526020018280546118289061354b565b80156118755780601f1061184a57610100808354040283529160200191611875565b820191906000526020600020905b81548152906001019060200180831161185857829003601f168201915b5050505050908060050160009054906101000a900460ff16908060050160019054906101000a900460ff16908060060154908060070154905089565b60008084846040516020016118c7929190613cc3565b60405160208183030381529060405280519060200120905060006118fc846118ee846120fd565b61213390919063ffffffff16565b9050600160009054906101000a900473ffffffffffffffffffffffffffffffffffffffff1673ffffffffffffffffffffffffffffffffffffffff168173ffffffffffffffffffffffffffffffffffffffff1614925050509392505050565b6060600060025467ffffffffffffffff81111561197a57611979612540565b5b6040519080825280602002602001820160405280156119a85781602001602082028036833780820191505090505b50905060005b6002548110156119eb57808282815181106119cc576119cb61339c565b5b60200260200101818152505080806119e3906133fa565b9150506119ae565b508091505090565b60008060009054906101000a900473ffffffffffffffffffffffffffffffffffffffff1673ffffffffffffffffffffffffffffffffffffffff163373ffffffffffffffffffffffffffffffffffffffff1614611a84576040517f08c379a0000000000000000000000000000000000000000000000000000000008152600401611a7b9061327e565b60405180910390fd5b600073ffffffffffffffffffffffffffffffffffffffff168473ffffffffffffffffffffffffffffffffffffffff1603611af3576040517f08c379a0000000000000000000000000000000000000000000000000000000008152600401611aea90613d33565b60405180910390fd5b611b0d6040518060200160405280600081525084846118b1565b611b4c576040517f08c379a0000000000000000000000000000000000000000000000000000000008152600401611b4390613dc5565b60405180910390fd5b600060025490506040518061012001604052808281526020018881526020018781526020018673ffffffffffffffffffffffffffffffffffffffff16815260200185815260200160006002811115611ba757611ba6612c8d565b5b8152602001600015158152602001428152602001600081525060036000838152602001908152602001600020600082015181600001556020820151816001019081611bf2919061378a565b506040820151816002019081611c08919061378a565b5060608201518160030160006101000a81548173ffffffffffffffffffffffffffffffffffffffff021916908373ffffffffffffffffffffffffffffffffffffffff1602179055506080820151816004019081611c65919061378a565b5060a08201518160050160006101000a81548160ff02191690836002811115611c9157611c90612c8d565b5b021790555060c08201518160050160016101000a81548160ff02191690831515021790555060e08201518160060155610100820151816007015590505060026000815480929190611ce1906133fa565b9190505550807fb838d81d9431f4b90cec9a9a2b93b5287ff78972bf6be42aac4fd34cf1e7d24888888842604051611d1c9493929190613de5565b60405180910390a28091505095945050505050565b6000826002548110611d78576040517f08c379a0000000000000000000000000000000000000000000000000000000008152600401611d6f906131d0565b60405180910390fd5b6005600085815260200190815260200160002060008473ffffffffffffffffffffffffffffffffffffffff1673ffffffffffffffffffffffffffffffffffffffff16815260200190815260200160002060009054906101000a900460ff1691505092915050565b611de7612413565b816002548110611e2c576040517f08c379a0000000000000000000000000000000000000000000000000000000008152600401611e23906131d0565b60405180910390fd5b600360008481526020019081526020016000206040518061012001604052908160008201548152602001600182018054611e659061354b565b80601f0160208091040260200160405190810160405280929190818152602001828054611e919061354b565b8015611ede5780601f10611eb357610100808354040283529160200191611ede565b820191906000526020600020905b815481529060010190602001808311611ec157829003601f168201915b50505050508152602001600282018054611ef79061354b565b80601f0160208091040260200160405190810160405280929190818152602001828054611f239061354b565b8015611f705780601f10611f4557610100808354040283529160200191611f70565b820191906000526020600020905b815481529060010190602001808311611f5357829003601f168201915b505050505081526020016003820160009054906101000a900473ffffffffffffffffffffffffffffffffffffffff1673ffffffffffffffffffffffffffffffffffffffff1673ffffffffffffffffffffffffffffffffffffffff168152602001600482018054611fdf9061354b565b80601f016020809104026020016040519081016040528092919081815260200182805461200b9061354b565b80156120585780601f1061202d57610100808354040283529160200191612058565b820191906000526020600020905b81548152906001019060200180831161203b57829003601f168201915b505050505081526020016005820160009054906101000a900460ff16600281111561208657612085612c8d565b5b600281111561209857612097612c8d565b5b81526020016005820160019054906101000a900460ff1615151515815260200160068201548152602001600782015481525050915050919050565b60025481565b60008054906101000a900473ffffffffffffffffffffffffffffffffffffffff1681565b60007f19457468657265756d205369676e6564204d6573736167653a0a33320000000060005281601c52603c6000209050919050565b600080600080612143868661215f565b92509250925061215382826121bb565b82935050505092915050565b600080600060418451036121a45760008060006020870151925060408701519150606087015160001a90506121968882858561231f565b9550955095505050506121b4565b60006002855160001b9250925092505b9250925092565b600060038111156121cf576121ce612c8d565b5b8260038111156121e2576121e1612c8d565b5b031561231b57600160038111156121fc576121fb612c8d565b5b82600381111561220f5761220e612c8d565b5b03612246576040517ff645eedf00000000000000000000000000000000000000000000000000000000815260040160405180910390fd5b6002600381111561225a57612259612c8d565b5b82600381111561226d5761226c612c8d565b5b036122b2578060001c6040517ffce698f70000000000000000000000000000000000000000000000000000000081526004016122a9919061250f565b60405180910390fd5b6003808111156122c5576122c4612c8d565b5b8260038111156122d8576122d7612c8d565b5b0361231a57806040517fd78bce0c0000000000000000000000000000000000000000000000000000000081526004016123119190613e51565b60405180910390fd5b5b5050565b60008060007f7fffffffffffffffffffffffffffffff5d576e7357a4501ddfe92f46681b20a08460001c111561235f576000600385925092509250612409565b6000600188888888604051600081526020016040526040516123849493929190613e88565b6020604051602081039080840390855afa1580156123a6573d6000803e3d6000fd5b505050602060405103519050600073ffffffffffffffffffffffffffffffffffffffff168173ffffffffffffffffffffffffffffffffffffffff16036123fa57600060016000801b93509350935050612409565b8060008060001b935093509350505b9450945094915050565b604051806101200160405280600081526020016060815260200160608152602001600073ffffffffffffffffffffffffffffffffffffffff168152602001606081526020016000600281111561246c5761246b612c8d565b5b815260200160001515815260200160008152602001600081525090565b6000604051905090565b600080fd5b600080fd5b6000819050919050565b6124b08161249d565b81146124bb57600080fd5b50565b6000813590506124cd816124a7565b92915050565b6000602082840312156124e9576124e8612493565b5b60006124f7848285016124be565b91505092915050565b6125098161249d565b82525050565b60006020820190506125246000830184612500565b92915050565b600080fd5b6000601f19601f8301169050919050565b7f4e487b7100000000000000000000000000000000000000000000000000000000600052604160045260246000fd5b6125788261252f565b810181811067ffffffffffffffff8211171561259757612596612540565b5b80604052505050565b60006125aa612489565b90506125b6828261256f565b919050565b600067ffffffffffffffff8211156125d6576125d5612540565b5b602082029050602081019050919050565b600080fd5b600073ffffffffffffffffffffffffffffffffffffffff82169050919050565b6000612617826125ec565b9050919050565b6126278161260c565b811461263257600080fd5b50565b6000813590506126448161261e565b92915050565b600061265d612658846125bb565b6125a0565b905080838252602082019050602084028301858111156126805761267f6125e7565b5b835b818110156126a957806126958882612635565b845260208401935050602081019050612682565b5050509392505050565b600082601f8301126126c8576126c761252a565b5b81356126d884826020860161264a565b91505092915050565b600067ffffffffffffffff8211156126fc576126fb612540565b5b602082029050602081019050919050565b600061272061271b846126e1565b6125a0565b90508083825260208201905060208402830185811115612743576127426125e7565b5b835b8181101561276c578061275888826124be565b845260208401935050602081019050612745565b5050509392505050565b600082601f83011261278b5761278a61252a565b5b813561279b84826020860161270d565b91505092915050565b60008115159050919050565b6127b9816127a4565b81146127c457600080fd5b50565b6000813590506127d6816127b0565b92915050565b600080600080608085870312156127f6576127f5612493565b5b6000612804878288016124be565b945050602085013567ffffffffffffffff81111561282557612824612498565b5b612831878288016126b3565b935050604085013567ffffffffffffffff81111561285257612851612498565b5b61285e87828801612776565b925050606061286f878288016127c7565b91505092959194509250565b60006020828403121561289157612890612493565b5b600061289f84828501612635565b91505092915050565b600080fd5b600067ffffffffffffffff8211156128c8576128c7612540565b5b6128d18261252f565b9050602081019050919050565b82818337600083830152505050565b60006129006128fb846128ad565b6125a0565b90508281526020810184848401111561291c5761291b6128a8565b5b6129278482856128de565b509392505050565b600082601f8301126129445761294361252a565b5b81356129548482602086016128ed565b91505092915050565b600067ffffffffffffffff82111561297857612977612540565b5b6129818261252f565b9050602081019050919050565b60006129a161299c8461295d565b6125a0565b9050828152602081018484840111156129bd576129bc6128a8565b5b6129c88482856128de565b509392505050565b600082601f8301126129e5576129e461252a565b5b81356129f584826020860161298e565b91505092915050565b600080600060608486031215612a1757612a16612493565b5b6000612a25868287016124be565b935050602084013567ffffffffffffffff811115612a4657612a45612498565b5b612a528682870161292f565b925050604084013567ffffffffffffffff811115612a7357612a72612498565b5b612a7f868287016129d0565b9150509250925092565b60008060408385031215612aa057612a9f612493565b5b6000612aae858286016124be565b9250506020612abf85828601612635565b9150509250929050565b600080600080600060a08688031215612ae557612ae4612493565b5b6000612af3888289016124be565b955050602086013567ffffffffffffffff811115612b1457612b13612498565b5b612b208882890161292f565b945050604086013567ffffffffffffffff811115612b4157612b40612498565b5b612b4d8882890161292f565b935050606086013567ffffffffffffffff811115612b6e57612b6d612498565b5b612b7a8882890161292f565b9250506080612b8b888289016124be565b9150509295509295909350565b600081519050919050565b600082825260208201905092915050565b60005b83811015612bd2578082015181840152602081019050612bb7565b60008484015250505050565b6000612be982612b98565b612bf38185612ba3565b9350612c03818560208601612bb4565b612c0c8161252f565b840191505092915050565b60006020820190508181036000830152612c318184612bde565b905092915050565b612c428161260c565b82525050565b6000602082019050612c5d6000830184612c39565b92915050565b612c6c816127a4565b82525050565b6000602082019050612c876000830184612c63565b92915050565b7f4e487b7100000000000000000000000000000000000000000000000000000000600052602160045260246000fd5b60038110612ccd57612ccc612c8d565b5b50565b6000819050612cde82612cbc565b919050565b6000612cee82612cd0565b9050919050565b612cfe81612ce3565b82525050565b600061012082019050612d1a600083018c612500565b8181036020830152612d2c818b612bde565b90508181036040830152612d40818a612bde565b9050612d4f6060830189612c39565b8181036080830152612d618188612bde565b9050612d7060a0830187612cf5565b612d7d60c0830186612c63565b612d8a60e0830185612500565b612d98610100830184612500565b9a9950505050505050505050565b600080600060608486031215612dbf57612dbe612493565b5b600084013567ffffffffffffffff811115612ddd57612ddc612498565b5b612de98682870161292f565b935050602084013567ffffffffffffffff811115612e0a57612e09612498565b5b612e168682870161292f565b925050604084013567ffffffffffffffff811115612e3757612e36612498565b5b612e43868287016129d0565b9150509250925092565b600081519050919050565b600082825260208201905092915050565b6000819050602082019050919050565b612e828161249d565b82525050565b6000612e948383612e79565b60208301905092915050565b6000602082019050919050565b6000612eb882612e4d565b612ec28185612e58565b9350612ecd83612e69565b8060005b83811015612efe578151612ee58882612e88565b9750612ef083612ea0565b925050600181019050612ed1565b5085935050505092915050565b60006020820190508181036000830152612f258184612ead565b905092915050565b600080600080600060a08688031215612f4957612f48612493565b5b600086013567ffffffffffffffff811115612f6757612f66612498565b5b612f738882890161292f565b955050602086013567ffffffffffffffff811115612f9457612f93612498565b5b612fa08882890161292f565b9450506040612fb188828901612635565b935050606086013567ffffffffffffffff811115612fd257612fd1612498565b5b612fde8882890161292f565b925050608086013567ffffffffffffffff811115612fff57612ffe612498565b5b61300b888289016129d0565b9150509295509295909350565b600082825260208201905092915050565b600061303482612b98565b61303e8185613018565b935061304e818560208601612bb4565b6130578161252f565b840191505092915050565b61306b8161260c565b82525050565b61307a81612ce3565b82525050565b613089816127a4565b82525050565b6000610120830160008301516130a86000860182612e79565b50602083015184820360208601526130c08282613029565b915050604083015184820360408601526130da8282613029565b91505060608301516130ef6060860182613062565b50608083015184820360808601526131078282613029565b91505060a083015161311c60a0860182613071565b5060c083015161312f60c0860182613080565b5060e083015161314260e0860182612e79565b50610100830151613157610100860182612e79565b508091505092915050565b6000602082019050818103600083015261317c818461308f565b905092915050565b7f4d61726b657420646f6573206e6f742065786973740000000000000000000000600082015250565b60006131ba601583612ba3565b91506131c582613184565b602082019050919050565b600060208201905081810360008301526131e9816131ad565b9050919050565b6000815190506131ff816124a7565b92915050565b60006020828403121561321b5761321a612493565b5b6000613229848285016131f0565b91505092915050565b7f4f6e6c792061646d696e2063616e2063616c6c20746869730000000000000000600082015250565b6000613268601883612ba3565b915061327382613232565b602082019050919050565b600060208201905081810360008301526132978161325b565b9050919050565b7f42657474696e67206e6f742066696e6973686564206f72207061796f7574732060008201527f616c726561647920736574000000000000000000000000000000000000000000602082015250565b60006132fa602b83612ba3565b91506133058261329e565b604082019050919050565b60006020820190508181036000830152613329816132ed565b9050919050565b7f417272617973206c656e677468206d69736d6174636800000000000000000000600082015250565b6000613366601683612ba3565b915061337182613330565b602082019050919050565b6000602082019050818103600083015261339581613359565b9050919050565b7f4e487b7100000000000000000000000000000000000000000000000000000000600052603260045260246000fd5b7f4e487b7100000000000000000000000000000000000000000000000000000000600052601160045260246000fd5b60006134058261249d565b91507fffffffffffffffffffffffffffffffffffffffffffffffffffffffffffffffff8203613437576134366133cb565b5b600182019050919050565b6000819050919050565b6000819050919050565b600061347161346c61346784613442565b61344c565b61249d565b9050919050565b61348181613456565b82525050565b600060408201905061349c6000830185612500565b6134a96020830184613478565b9392505050565b7f42657474696e67206973206e6f74206163746976650000000000000000000000600082015250565b60006134e6601583612ba3565b91506134f1826134b0565b602082019050919050565b60006020820190508181036000830152613515816134d9565b9050919050565b7f4e487b7100000000000000000000000000000000000000000000000000000000600052602260045260246000fd5b6000600282049050600182168061356357607f821691505b6020821081036135765761357561351c565b5b50919050565b7f496e76616c696420544545207369676e61747572650000000000000000000000600082015250565b60006135b2601583612ba3565b91506135bd8261357c565b602082019050919050565b600060208201905081810360008301526135e1816135a5565b9050919050565b60008190508160005260206000209050919050565b60006020601f8301049050919050565b600082821b905092915050565b60006008830261364a7fffffffffffffffffffffffffffffffffffffffffffffffffffffffffffffffff8261360d565b613654868361360d565b95508019841693508086168417925050509392505050565b600061368761368261367d8461249d565b61344c565b61249d565b9050919050565b6000819050919050565b6136a18361366c565b6136b56136ad8261368e565b84845461361a565b825550505050565b600090565b6136ca6136bd565b6136d5818484613698565b505050565b5b818110156136f9576136ee6000826136c2565b6001810190506136db565b5050565b601f82111561373e5761370f816135e8565b613718846135fd565b81016020851015613727578190505b61373b613733856135fd565b8301826136da565b50505b505050565b600082821c905092915050565b600061376160001984600802613743565b1980831691505092915050565b600061377a8383613750565b9150826002028217905092915050565b61379382612b98565b67ffffffffffffffff8111156137ac576137ab612540565b5b6137b6825461354b565b6137c18282856136fd565b600060209050601f8311600181146137f457600084156137e2578287015190505b6137ec858261376e565b865550613854565b601f198416613802866135e8565b60005b8281101561382a57848901518255600182019150602085019450602081019050613805565b868310156138475784890151613843601f891682613750565b8355505b6001600288020188555050505b505050505050565b7f4d75737420626574206120706f73697469766520616d6f756e74000000000000600082015250565b6000613892601a83612ba3565b915061389d8261385c565b602082019050919050565b600060208201905081810360008301526138c181613885565b9050919050565b60006060820190506138dd6000830186612c39565b6138ea6020830185612c39565b6138f76040830184612500565b949350505050565b60008151905061390e816127b0565b92915050565b60006020828403121561392a57613929612493565b5b6000613938848285016138ff565b91505092915050565b7f546f6b656e207472616e73666572206661696c65640000000000000000000000600082015250565b6000613977601583612ba3565b915061398282613941565b602082019050919050565b600060208201905081810360008301526139a68161396a565b9050919050565b60006139b88261249d565b91506139c38361249d565b92508282019050808211156139db576139da6133cb565b5b92915050565b600060808201905081810360008301526139fb8187612bde565b90508181036020830152613a0f8186612bde565b90508181036040830152613a238185612bde565b9050613a326060830184612500565b95945050505050565b50565b6000613a4b600083612ba3565b9150613a5682613a3b565b600082019050919050565b60008154613a6e8161354b565b613a788186612ba3565b94506001821660008114613a935760018114613aa957613adc565b60ff198316865281151560200286019350613adc565b613ab2856135e8565b60005b83811015613ad457815481890152600182019150602081019050613ab5565b808801955050505b50505092915050565b60006040820190508181036000830152613afe81613a3e565b90508181036020830152613b128184613a61565b905092915050565b7f5061796f757473206e6f74207365742079657400000000000000000000000000600082015250565b6000613b50601383612ba3565b9150613b5b82613b1a565b602082019050919050565b60006020820190508181036000830152613b7f81613b43565b9050919050565b7f4e6f207061796f757420617661696c61626c6500000000000000000000000000600082015250565b6000613bbc601383612ba3565b9150613bc782613b86565b602082019050919050565b60006020820190508181036000830152613beb81613baf565b9050919050565b7f416c726561647920636c61696d65640000000000000000000000000000000000600082015250565b6000613c28600f83612ba3565b9150613c3382613bf2565b602082019050919050565b60006020820190508181036000830152613c5781613c1b565b9050919050565b6000604082019050613c736000830185612c39565b613c806020830184612500565b9392505050565b600081905092915050565b6000613c9d82612b98565b613ca78185613c87565b9350613cb7818560208601612bb4565b80840191505092915050565b6000613ccf8285613c92565b9150613cdb8284613c92565b91508190509392505050565b7f496e76616c696420746f6b656e20616464726573730000000000000000000000600082015250565b6000613d1d601583612ba3565b9150613d2882613ce7565b602082019050919050565b60006020820190508181036000830152613d4c81613d10565b9050919050565b7f496e76616c696420544545207369676e617475726520666f7220696e6974696160008201527f6c20737461746500000000000000000000000000000000000000000000000000602082015250565b6000613daf602783612ba3565b9150613dba82613d53565b604082019050919050565b60006020820190508181036000830152613dde81613da2565b9050919050565b60006080820190508181036000830152613dff8187612bde565b90508181036020830152613e138186612bde565b9050613e226040830185612c39565b613e2f6060830184612500565b95945050505050565b6000819050919050565b613e4b81613e38565b82525050565b6000602082019050613e666000830184613e42565b92915050565b600060ff82169050919050565b613e8281613e6c565b82525050565b6000608082019050613e9d6000830187613e42565b613eaa6020830186613e79565b613eb76040830185613e42565b613ec46060830184613e42565b9594505050505056fea2646970667358221220b7c001a7ff950920645600e8755a72180edb61a595d501bec05d96c395aebc4964736f6c63430008140033",
  "linkReferences": {},
  "deployedLinkReferences": {}
}