{
  "_format": "hh-sol-artifact-1",
  "contractName": "PrivateBetting",
  "sourceName": "contracts/PrivateBetting.sol",
  "abi": [
    {
      "inputs": [
        {
          "internalType": "string",
          "name": "_initialEncryptedState",
          "type": "string"
        }
      ],
      "stateMutability": "nonpayable",
      "type": "constructor"
    },
    {
      "anonymous": false,
      "inputs": [
        {
          "indexed": false,
          "internalType": "string",
          "name": "winningOption",
          "type": "string"
        },
        {
          "indexed": false,
          "internalType": "string",
          "name": "finalState",
          "type": "string"
        }
      ],
      "name": "BettingFinished",
      "type": "event"
    },
    {
      "anonymous": false,
      "inputs": [
        {
          "indexed": true,
          "internalType": "address",
          "name": "winner",
          "type": "address"
        },
        {
          "indexed": false,
          "internalType": "uint256",
          "name": "amount",
          "type": "uint256"
        }
      ],
      "name": "PayoutClaimed",
      "type": "event"
    },
    {
      "anonymous": false,
      "inputs": [
        {
          "indexed": false,
          "internalType": "uint256",
          "name": "totalWinners",
          "type": "uint256"
        },
        {
          "indexed": false,
          "internalType": "uint256",
          "name": "totalPool",
          "type": "uint256"
        }
      ],
      "name": "PayoutsSet",
      "type": "event"
    },
    {
      "anonymous": false,
      "inputs": [
        {
          "indexed": false,
          "internalType": "string",
          "name": "newEncryptedState",
          "type": "string"
        }
      ],
      "name": "StateUpdated",
      "type": "event"
    },
    {
      "anonymous": false,
      "inputs": [
        {
          "indexed": true,
          "internalType": "address",
          "name": "voter",
          "type": "address"
        },
        {
          "indexed": false,
          "internalType": "string",
          "name": "encryptedVote",
          "type": "string"
        },
        {
          "indexed": false,
          "internalType": "string",
          "name": "encryptedSymKey",
          "type": "string"
        },
        {
          "indexed": false,
          "internalType": "string",
          "name": "capsule",
          "type": "string"
        },
        {
          "indexed": false,
          "internalType": "uint256",
          "name": "amount",
          "type": "uint256"
        }
      ],
      "name": "VoteSubmitted",
      "type": "event"
    },
    {
      "inputs": [],
      "name": "admin",
      "outputs": [
        {
          "internalType": "address",
          "name": "",
          "type": "address"
        }
      ],
      "stateMutability": "view",
      "type": "function"
    },
    {
      "inputs": [],
      "name": "bettingFinished",
      "outputs": [
        {
          "internalType": "bool",
          "name": "",
          "type": "bool"
        }
      ],
      "stateMutability": "view",
      "type": "function"
    },
    {
      "inputs": [],
      "name": "claimPayout",
      "outputs": [],
      "stateMutability": "nonpayable",
      "type": "function"
    },
    {
      "inputs": [],
      "name": "encryptedState",
      "outputs": [
        {
          "internalType": "string",
          "name": "",
          "type": "string"
        }
      ],
      "stateMutability": "view",
      "type": "function"
    },
    {
      "inputs": [],
      "name": "finishBetting",
      "outputs": [],
      "stateMutability": "nonpayable",
      "type": "function"
    },
    {
      "inputs": [],
      "name": "getContractBalance",
      "outputs": [
        {
          "internalType": "uint256",
          "name": "",
          "type": "uint256"
        }
      ],
      "stateMutability": "view",
      "type": "function"
    },
    {
      "inputs": [],
      "name": "getCurrentState",
      "outputs": [
        {
          "internalType": "string",
          "name": "",
          "type": "string"
        }
      ],
      "stateMutability": "view",
      "type": "function"
    },
    {
      "inputs": [
        {
          "internalType": "address",
          "name": "wallet",
          "type": "address"
        }
      ],
      "name": "getPayoutAmount",
      "outputs": [
        {
          "internalType": "uint256",
          "name": "",
          "type": "uint256"
        }
      ],
      "stateMutability": "view",
      "type": "function"
    },
    {
      "inputs": [
        {
          "internalType": "address",
          "name": "",
          "type": "address"
        }
      ],
      "name": "hasClaimed",
      "outputs": [
        {
          "internalType": "bool",
          "name": "",
          "type": "bool"
        }
      ],
      "stateMutability": "view",
      "type": "function"
    },
    {
      "inputs": [
        {
          "internalType": "address",
          "name": "wallet",
          "type": "address"
        }
      ],
      "name": "hasClaimedPayout",
      "outputs": [
        {
          "internalType": "bool",
          "name": "",
          "type": "bool"
        }
      ],
      "stateMutability": "view",
      "type": "function"
    },
    {
      "inputs": [
        {
          "internalType": "address",
          "name": "",
          "type": "address"
        }
      ],
      "name": "payouts",
      "outputs": [
        {
          "internalType": "uint256",
          "name": "",
          "type": "uint256"
        }
      ],
      "stateMutability": "view",
      "type": "function"
    },
    {
      "inputs": [
        {
          "internalType": "address[]",
          "name": "winners",
          "type": "address[]"
        },
        {
          "internalType": "uint256[]",
          "name": "amounts",
          "type": "uint256[]"
        }
      ],
      "name": "setPayouts",
      "outputs": [],
      "stateMutability": "nonpayable",
      "type": "function"
    },
    {
      "inputs": [],
      "name": "status",
      "outputs": [
        {
          "internalType": "enum PrivateBetting.BettingStatus",
          "name": "",
          "type": "uint8"
        }
      ],
      "stateMutability": "view",
      "type": "function"
    },
    {
      "inputs": [
        {
          "internalType": "string",
          "name": "newEncryptedState",
          "type": "string"
        }
      ],
      "name": "updateState",
      "outputs": [],
      "stateMutability": "nonpayable",
      "type": "function"
    },
    {
      "inputs": [
        {
          "internalType": "string",
          "name": "encryptedVote",
          "type": "string"
        },
        {
          "internalType": "string",
          "name": "encryptedSymKey",
          "type": "string"
        },
        {
          "internalType": "string",
          "name": "capsule",
          "type": "string"
        }
      ],
      "name": "vote",
      "outputs": [],
      "stateMutability": "payable",
      "type": "function"
    }
  ],
  "bytecode": "0x60806040523480156200001157600080fd5b506040516200252c3803806200252c83398181016040528101906200003791906200026c565b336000806101000a81548173ffffffffffffffffffffffffffffffffffffffff021916908373ffffffffffffffffffffffffffffffffffffffff160217905550806001908162000088919062000508565b506000600260016101000a81548160ff02191690836002811115620000b257620000b1620005ef565b5b02179055506000600260006101000a81548160ff021916908315150217905550506200061e565b6000604051905090565b600080fd5b600080fd5b600080fd5b600080fd5b6000601f19601f8301169050919050565b7f4e487b7100000000000000000000000000000000000000000000000000000000600052604160045260246000fd5b6200014282620000f7565b810181811067ffffffffffffffff8211171562000164576200016362000108565b5b80604052505050565b600062000179620000d9565b905062000187828262000137565b919050565b600067ffffffffffffffff821115620001aa57620001a962000108565b5b620001b582620000f7565b9050602081019050919050565b60005b83811015620001e2578082015181840152602081019050620001c5565b60008484015250505050565b600062000205620001ff846200018c565b6200016d565b905082815260208101848484011115620002245762000223620000f2565b5b62000231848285620001c2565b509392505050565b600082601f830112620002515762000250620000ed565b5b815162000263848260208601620001ee565b91505092915050565b600060208284031215620002855762000284620000e3565b5b600082015167ffffffffffffffff811115620002a657620002a5620000e8565b5b620002b48482850162000239565b91505092915050565b600081519050919050565b7f4e487b7100000000000000000000000000000000000000000000000000000000600052602260045260246000fd5b600060028204905060018216806200031057607f821691505b602082108103620003265762000325620002c8565b5b50919050565b60008190508160005260206000209050919050565b60006020601f8301049050919050565b600082821b905092915050565b600060088302620003907fffffffffffffffffffffffffffffffffffffffffffffffffffffffffffffffff8262000351565b6200039c868362000351565b95508019841693508086168417925050509392505050565b6000819050919050565b6000819050919050565b6000620003e9620003e3620003dd84620003b4565b620003be565b620003b4565b9050919050565b6000819050919050565b6200040583620003c8565b6200041d6200041482620003f0565b8484546200035e565b825550505050565b600090565b6200043462000425565b62000441818484620003fa565b505050565b5b8181101562000469576200045d6000826200042a565b60018101905062000447565b5050565b601f821115620004b85762000482816200032c565b6200048d8462000341565b810160208510156200049d578190505b620004b5620004ac8562000341565b83018262000446565b50505b505050565b600082821c905092915050565b6000620004dd60001984600802620004bd565b1980831691505092915050565b6000620004f88383620004ca565b9150826002028217905092915050565b6200051382620002bd565b67ffffffffffffffff8111156200052f576200052e62000108565b5b6200053b8254620002f7565b620005488282856200046d565b600060209050601f8311600181146200058057600084156200056b578287015190505b620005778582620004ea565b865550620005e7565b601f19841662000590866200032c565b60005b82811015620005ba5784890151825560018201915060208501945060208101905062000593565b86831015620005da5784890151620005d6601f891682620004ca565b8355505b6001600288020188555050505b505050505050565b7f4e487b7100000000000000000000000000000000000000000000000000000000600052602160045260246000fd5b611efe806200062e6000396000f3fe6080604052600436106100e85760003560e01c806379ff2e6d1161008a578063c14f5c6411610059578063c14f5c64146102d5578063e17685de14610300578063e88499a91461033d578063f851a44014610354576100e8565b806379ff2e6d1461024e57806394138cac1461027757806395f59fe11461028e57806397d2f8c8146102aa576100e8565b80635362e464116100c65780635362e4641461018057806365bcfbe7146101a95780636f9fb98a146101e657806373b2e80e14610211576100e8565b80630349d98f146100ed578063200d2ed21461012a578063378aa70114610155575b600080fd5b3480156100f957600080fd5b50610114600480360381019061010f9190610f20565b61037f565b6040516101219190610f68565b60405180910390f35b34801561013657600080fd5b5061013f6103d5565b60405161014c9190610ffa565b60405180910390f35b34801561016157600080fd5b5061016a6103e8565b60405161017791906110a5565b60405180910390f35b34801561018c57600080fd5b506101a760048036038101906101a29190611308565b61047a565b005b3480156101b557600080fd5b506101d060048036038101906101cb9190610f20565b6106ec565b6040516101dd919061138f565b60405180910390f35b3480156101f257600080fd5b506101fb610704565b604051610208919061138f565b60405180910390f35b34801561021d57600080fd5b5061023860048036038101906102339190610f20565b61070c565b6040516102459190610f68565b60405180910390f35b34801561025a57600080fd5b506102756004803603810190610270919061145f565b61072c565b005b34801561028357600080fd5b5061028c6107ec565b005b6102a860048036038101906102a391906114a8565b610970565b005b3480156102b657600080fd5b506102bf610a82565b6040516102cc91906110a5565b60405180910390f35b3480156102e157600080fd5b506102ea610b10565b6040516102f79190610f68565b60405180910390f35b34801561030c57600080fd5b5061032760048036038101906103229190610f20565b610b23565b604051610334919061138f565b60405180910390f35b34801561034957600080fd5b50610352610b6c565b005b34801561036057600080fd5b50610369610e8a565b604051610376919061155e565b60405180910390f35b6000600460008373ffffffffffffffffffffffffffffffffffffffff1673ffffffffffffffffffffffffffffffffffffffff16815260200190815260200160002060009054906101000a900460ff169050919050565b600260019054906101000a900460ff1681565b6060600180546103f7906115a8565b80601f0160208091040260200160405190810160405280929190818152602001828054610423906115a8565b80156104705780601f1061044557610100808354040283529160200191610470565b820191906000526020600020905b81548152906001019060200180831161045357829003601f168201915b5050505050905090565b60008054906101000a900473ffffffffffffffffffffffffffffffffffffffff1673ffffffffffffffffffffffffffffffffffffffff163373ffffffffffffffffffffffffffffffffffffffff1614610508576040517f08c379a00000000000000000000000000000000000000000000000000000000081526004016104ff90611625565b60405180910390fd5b6001600281111561051c5761051b610f83565b5b600260019054906101000a900460ff16600281111561053e5761053d610f83565b5b1461057e576040517f08c379a0000000000000000000000000000000000000000000000000000000008152600401610575906116b7565b60405180910390fd5b80518251146105c2576040517f08c379a00000000000000000000000000000000000000000000000000000000081526004016105b990611723565b60405180910390fd5b6000805b8351811015610682578281815181106105e2576105e1611743565b5b60200260200101516003600086848151811061060157610600611743565b5b602002602001015173ffffffffffffffffffffffffffffffffffffffff1673ffffffffffffffffffffffffffffffffffffffff1681526020019081526020016000208190555082818151811061065a57610659611743565b5b60200260200101518261066d91906117a1565b9150808061067a906117d5565b9150506105c6565b5060028060016101000a81548160ff021916908360028111156106a8576106a7610f83565b5b02179055507fd5d5d049e9608f1efc24130fb8104fb6919491de8667a9d7aad9efe3d24892d28351826040516106df92919061181d565b60405180910390a1505050565b60036020528060005260406000206000915090505481565b600047905090565b60046020528060005260406000206000915054906101000a900460ff1681565b600060028111156107405761073f610f83565b5b600260019054906101000a900460ff16600281111561076257610761610f83565b5b146107a2576040517f08c379a000000000000000000000000000000000000000000000000000000000815260040161079990611892565b60405180910390fd5b80600190816107b19190611a5e565b507f40a166db587ec103f66a58962fcbee2d88c47b4b400e972cd23af7e15ef7908b816040516107e191906110a5565b60405180910390a150565b60008054906101000a900473ffffffffffffffffffffffffffffffffffffffff1673ffffffffffffffffffffffffffffffffffffffff163373ffffffffffffffffffffffffffffffffffffffff161461087a576040517f08c379a000000000000000000000000000000000000000000000000000000000815260040161087190611625565b60405180910390fd5b6000600281111561088e5761088d610f83565b5b600260019054906101000a900460ff1660028111156108b0576108af610f83565b5b146108f0576040517f08c379a00000000000000000000000000000000000000000000000000000000081526004016108e790611892565b60405180910390fd5b6001600260016101000a81548160ff0219169083600281111561091657610915610f83565b5b02179055506001600260006101000a81548160ff0219169083151502179055507f57016a9bd3d759d064d909ae761152766da08d08599dcd0bc6527d0c4a28c8c760016040516109669190611bda565b60405180910390a1565b6000600281111561098457610983610f83565b5b600260019054906101000a900460ff1660028111156109a6576109a5610f83565b5b146109e6576040517f08c379a00000000000000000000000000000000000000000000000000000000081526004016109dd90611892565b60405180910390fd5b60003411610a29576040517f08c379a0000000000000000000000000000000000000000000000000000000008152600401610a2090611c5b565b60405180910390fd5b3373ffffffffffffffffffffffffffffffffffffffff167f3ac3e7b4f5ab6f44c9c853409a305738fbfd4e666c9b70ba2723092f694c73e784848434604051610a759493929190611c7b565b60405180910390a2505050565b60018054610a8f906115a8565b80601f0160208091040260200160405190810160405280929190818152602001828054610abb906115a8565b8015610b085780601f10610add57610100808354040283529160200191610b08565b820191906000526020600020905b815481529060010190602001808311610aeb57829003601f168201915b505050505081565b600260009054906101000a900460ff1681565b6000600360008373ffffffffffffffffffffffffffffffffffffffff1673ffffffffffffffffffffffffffffffffffffffff168152602001908152602001600020549050919050565b600280811115610b7f57610b7e610f83565b5b600260019054906101000a900460ff166002811115610ba157610ba0610f83565b5b14610be1576040517f08c379a0000000000000000000000000000000000000000000000000000000008152600401610bd890611d21565b60405180910390fd5b6000600360003373ffffffffffffffffffffffffffffffffffffffff1673ffffffffffffffffffffffffffffffffffffffff1681526020019081526020016000205411610c63576040517f08c379a0000000000000000000000000000000000000000000000000000000008152600401610c5a90611d8d565b60405180910390fd5b600460003373ffffffffffffffffffffffffffffffffffffffff1673ffffffffffffffffffffffffffffffffffffffff16815260200190815260200160002060009054906101000a900460ff1615610cf0576040517f08c379a0000000000000000000000000000000000000000000000000000000008152600401610ce790611df9565b60405180910390fd5b6000600360003373ffffffffffffffffffffffffffffffffffffffff1673ffffffffffffffffffffffffffffffffffffffff1681526020019081526020016000205490506001600460003373ffffffffffffffffffffffffffffffffffffffff1673ffffffffffffffffffffffffffffffffffffffff16815260200190815260200160002060006101000a81548160ff02191690831515021790555060003373ffffffffffffffffffffffffffffffffffffffff1682604051610db290611e47565b60006040518083038185875af1925050503d8060008114610def576040519150601f19603f3d011682016040523d82523d6000602084013e610df4565b606091505b5050905080610e38576040517f08c379a0000000000000000000000000000000000000000000000000000000008152600401610e2f90611ea8565b60405180910390fd5b3373ffffffffffffffffffffffffffffffffffffffff167fec68461f5d4cc45c89e914cb8826a966c73dd35e5f97815ece0a01ffa4a025a683604051610e7e919061138f565b60405180910390a25050565b60008054906101000a900473ffffffffffffffffffffffffffffffffffffffff1681565b6000604051905090565b600080fd5b600080fd5b600073ffffffffffffffffffffffffffffffffffffffff82169050919050565b6000610eed82610ec2565b9050919050565b610efd81610ee2565b8114610f0857600080fd5b50565b600081359050610f1a81610ef4565b92915050565b600060208284031215610f3657610f35610eb8565b5b6000610f4484828501610f0b565b91505092915050565b60008115159050919050565b610f6281610f4d565b82525050565b6000602082019050610f7d6000830184610f59565b92915050565b7f4e487b7100000000000000000000000000000000000000000000000000000000600052602160045260246000fd5b60038110610fc357610fc2610f83565b5b50565b6000819050610fd482610fb2565b919050565b6000610fe482610fc6565b9050919050565b610ff481610fd9565b82525050565b600060208201905061100f6000830184610feb565b92915050565b600081519050919050565b600082825260208201905092915050565b60005b8381101561104f578082015181840152602081019050611034565b60008484015250505050565b6000601f19601f8301169050919050565b600061107782611015565b6110818185611020565b9350611091818560208601611031565b61109a8161105b565b840191505092915050565b600060208201905081810360008301526110bf818461106c565b905092915050565b600080fd5b7f4e487b7100000000000000000000000000000000000000000000000000000000600052604160045260246000fd5b6111048261105b565b810181811067ffffffffffffffff82111715611123576111226110cc565b5b80604052505050565b6000611136610eae565b905061114282826110fb565b919050565b600067ffffffffffffffff821115611162576111616110cc565b5b602082029050602081019050919050565b600080fd5b600061118b61118684611147565b61112c565b905080838252602082019050602084028301858111156111ae576111ad611173565b5b835b818110156111d757806111c38882610f0b565b8452602084019350506020810190506111b0565b5050509392505050565b600082601f8301126111f6576111f56110c7565b5b8135611206848260208601611178565b91505092915050565b600067ffffffffffffffff82111561122a576112296110cc565b5b602082029050602081019050919050565b6000819050919050565b61124e8161123b565b811461125957600080fd5b50565b60008135905061126b81611245565b92915050565b600061128461127f8461120f565b61112c565b905080838252602082019050602084028301858111156112a7576112a6611173565b5b835b818110156112d057806112bc888261125c565b8452602084019350506020810190506112a9565b5050509392505050565b600082601f8301126112ef576112ee6110c7565b5b81356112ff848260208601611271565b91505092915050565b6000806040838503121561131f5761131e610eb8565b5b600083013567ffffffffffffffff81111561133d5761133c610ebd565b5b611349858286016111e1565b925050602083013567ffffffffffffffff81111561136a57611369610ebd565b5b611376858286016112da565b9150509250929050565b6113898161123b565b82525050565b60006020820190506113a46000830184611380565b92915050565b600080fd5b600067ffffffffffffffff8211156113ca576113c96110cc565b5b6113d38261105b565b9050602081019050919050565b82818337600083830152505050565b60006114026113fd846113af565b61112c565b90508281526020810184848401111561141e5761141d6113aa565b5b6114298482856113e0565b509392505050565b600082601f830112611446576114456110c7565b5b81356114568482602086016113ef565b91505092915050565b60006020828403121561147557611474610eb8565b5b600082013567ffffffffffffffff81111561149357611492610ebd565b5b61149f84828501611431565b91505092915050565b6000806000606084860312156114c1576114c0610eb8565b5b600084013567ffffffffffffffff8111156114df576114de610ebd565b5b6114eb86828701611431565b935050602084013567ffffffffffffffff81111561150c5761150b610ebd565b5b61151886828701611431565b925050604084013567ffffffffffffffff81111561153957611538610ebd565b5b61154586828701611431565b9150509250925092565b61155881610ee2565b82525050565b6000602082019050611573600083018461154f565b92915050565b7f4e487b7100000000000000000000000000000000000000000000000000000000600052602260045260246000fd5b600060028204905060018216806115c057607f821691505b6020821081036115d3576115d2611579565b5b50919050565b7f4f6e6c792061646d696e2063616e2063616c6c20746869730000000000000000600082015250565b600061160f601883611020565b915061161a826115d9565b602082019050919050565b6000602082019050818103600083015261163e81611602565b9050919050565b7f42657474696e67206e6f742066696e6973686564206f72207061796f7574732060008201527f616c726561647920736574000000000000000000000000000000000000000000602082015250565b60006116a1602b83611020565b91506116ac82611645565b604082019050919050565b600060208201905081810360008301526116d081611694565b9050919050565b7f417272617973206c656e677468206d69736d6174636800000000000000000000600082015250565b600061170d601683611020565b9150611718826116d7565b602082019050919050565b6000602082019050818103600083015261173c81611700565b9050919050565b7f4e487b7100000000000000000000000000000000000000000000000000000000600052603260045260246000fd5b7f4e487b7100000000000000000000000000000000000000000000000000000000600052601160045260246000fd5b60006117ac8261123b565b91506117b78361123b565b92508282019050808211156117cf576117ce611772565b5b92915050565b60006117e08261123b565b91507fffffffffffffffffffffffffffffffffffffffffffffffffffffffffffffffff820361181257611811611772565b5b600182019050919050565b60006040820190506118326000830185611380565b61183f6020830184611380565b9392505050565b7f42657474696e67206973206e6f74206163746976650000000000000000000000600082015250565b600061187c601583611020565b915061188782611846565b602082019050919050565b600060208201905081810360008301526118ab8161186f565b9050919050565b60008190508160005260206000209050919050565b60006020601f8301049050919050565b600082821b905092915050565b6000600883026119147fffffffffffffffffffffffffffffffffffffffffffffffffffffffffffffffff826118d7565b61191e86836118d7565b95508019841693508086168417925050509392505050565b6000819050919050565b600061195b6119566119518461123b565b611936565b61123b565b9050919050565b6000819050919050565b61197583611940565b61198961198182611962565b8484546118e4565b825550505050565b600090565b61199e611991565b6119a981848461196c565b505050565b5b818110156119cd576119c2600082611996565b6001810190506119af565b5050565b601f821115611a12576119e3816118b2565b6119ec846118c7565b810160208510156119fb578190505b611a0f611a07856118c7565b8301826119ae565b50505b505050565b600082821c905092915050565b6000611a3560001984600802611a17565b1980831691505092915050565b6000611a4e8383611a24565b9150826002028217905092915050565b611a6782611015565b67ffffffffffffffff811115611a8057611a7f6110cc565b5b611a8a82546115a8565b611a958282856119d1565b600060209050601f831160018114611ac85760008415611ab6578287015190505b611ac08582611a42565b865550611b28565b601f198416611ad6866118b2565b60005b82811015611afe57848901518255600182019150602085019450602081019050611ad9565b86831015611b1b5784890151611b17601f891682611a24565b8355505b6001600288020188555050505b505050505050565b50565b6000611b40600083611020565b9150611b4b82611b30565b600082019050919050565b60008154611b63816115a8565b611b6d8186611020565b94506001821660008114611b885760018114611b9e57611bd1565b60ff198316865281151560200286019350611bd1565b611ba7856118b2565b60005b83811015611bc957815481890152600182019150602081019050611baa565b808801955050505b50505092915050565b60006040820190508181036000830152611bf381611b33565b90508181036020830152611c078184611b56565b905092915050565b7f4d7573742073656e642066756e6473207769746820766f746500000000000000600082015250565b6000611c45601983611020565b9150611c5082611c0f565b602082019050919050565b60006020820190508181036000830152611c7481611c38565b9050919050565b60006080820190508181036000830152611c95818761106c565b90508181036020830152611ca9818661106c565b90508181036040830152611cbd818561106c565b9050611ccc6060830184611380565b95945050505050565b7f5061796f757473206e6f74207365742079657400000000000000000000000000600082015250565b6000611d0b601383611020565b9150611d1682611cd5565b602082019050919050565b60006020820190508181036000830152611d3a81611cfe565b9050919050565b7f4e6f207061796f757420617661696c61626c6500000000000000000000000000600082015250565b6000611d77601383611020565b9150611d8282611d41565b602082019050919050565b60006020820190508181036000830152611da681611d6a565b9050919050565b7f416c726561647920636c61696d65640000000000000000000000000000000000600082015250565b6000611de3600f83611020565b9150611dee82611dad565b602082019050919050565b60006020820190508181036000830152611e1281611dd6565b9050919050565b600081905092915050565b6000611e31600083611e19565b9150611e3c82611b30565b600082019050919050565b6000611e5282611e24565b9150819050919050565b7f5472616e73666572206661696c65640000000000000000000000000000000000600082015250565b6000611e92600f83611020565b9150611e9d82611e5c565b602082019050919050565b60006020820190508181036000830152611ec181611e85565b905091905056fea2646970667358221220ca3cb93161f09533d349ff4257d399a1240acec5e921eb751f7292e4bd45b8d964736f6c63430008140033",
  "linkReferences": {},
  "deployedLinkReferences": {}
}