{
  "_format": "hh-sol-artifact-1",
  "contractName": "PrivateBetting",
  "sourceName": "contracts/PrivateBetting.sol",
  "abi": [
    {
      "inputs": [
        {
          "internalType": "address",
          "name": "_tokenAddress",
          "type": "address"
        }
      ],
      "stateMutability": "nonpayable",
      "type": "constructor"
    },
    {
      "anonymous": false,
      "inputs": [
        {
          "indexed": true,
          "internalType": "uint256",
          "name": "marketId",
          "type": "uint256"
        },
        {
          "indexed": false,
          "internalType": "string",
          "name": "winningOption",
          "type": "string"
        },
        {
          "indexed": false,
          "internalType": "string",
          "name": "finalState",
          "type": "string"
        }
      ],
      "name": "BettingFinished",
      "type": "event"
    },
    {
      "anonymous": false,
      "inputs": [
        {
          "indexed": true,
          "internalType": "uint256",
          "name": "marketId",
          "type": "uint256"
        },
        {
          "indexed": false,
          "internalType": "string",
          "name": "title",
          "type": "string"
        },
        {
          "indexed": false,
          "internalType": "string",
          "name": "description",
          "type": "string"
        },
        {
          "indexed": false,
          "internalType": "uint256",
          "name": "createdAt",
          "type": "uint256"
        }
      ],
      "name": "MarketCreated",
      "type": "event"
    },
    {
      "anonymous": false,
      "inputs": [
        {
          "indexed": true,
          "internalType": "uint256",
          "name": "marketId",
          "type": "uint256"
        },
        {
          "indexed": true,
          "internalType": "address",
          "name": "winner",
          "type": "address"
        },
        {
          "indexed": false,
          "internalType": "uint256",
          "name": "amount",
          "type": "uint256"
        }
      ],
      "name": "PayoutClaimed",
      "type": "event"
    },
    {
      "anonymous": false,
      "inputs": [
        {
          "indexed": true,
          "internalType": "uint256",
          "name": "marketId",
          "type": "uint256"
        },
        {
          "indexed": false,
          "internalType": "uint256",
          "name": "totalWinners",
          "type": "uint256"
        },
        {
          "indexed": false,
          "internalType": "uint256",
          "name": "totalPool",
          "type": "uint256"
        }
      ],
      "name": "PayoutsSet",
      "type": "event"
    },
    {
      "anonymous": false,
      "inputs": [
        {
          "indexed": true,
          "internalType": "uint256",
          "name": "marketId",
          "type": "uint256"
        },
        {
          "indexed": false,
          "internalType": "string",
          "name": "newEncryptedState",
          "type": "string"
        }
      ],
      "name": "StateUpdated",
      "type": "event"
    },
    {
      "anonymous": false,
      "inputs": [
        {
          "indexed": true,
          "internalType": "uint256",
          "name": "marketId",
          "type": "uint256"
        },
        {
          "indexed": true,
          "internalType": "address",
          "name": "voter",
          "type": "address"
        },
        {
          "indexed": false,
          "internalType": "string",
          "name": "encryptedVote",
          "type": "string"
        },
        {
          "indexed": false,
          "internalType": "string",
          "name": "encryptedSymKey",
          "type": "string"
        },
        {
          "indexed": false,
          "internalType": "string",
          "name": "capsule",
          "type": "string"
        },
        {
          "indexed": false,
          "internalType": "uint256",
          "name": "amount",
          "type": "uint256"
        }
      ],
      "name": "VoteSubmitted",
      "type": "event"
    },
    {
      "inputs": [],
      "name": "admin",
      "outputs": [
        {
          "internalType": "address",
          "name": "",
          "type": "address"
        }
      ],
      "stateMutability": "view",
      "type": "function"
    },
    {
      "inputs": [
        {
          "internalType": "uint256",
          "name": "marketId",
          "type": "uint256"
        }
      ],
      "name": "claimPayout",
      "outputs": [],
      "stateMutability": "nonpayable",
      "type": "function"
    },
    {
      "inputs": [
        {
          "internalType": "string",
          "name": "title",
          "type": "string"
        },
        {
          "internalType": "string",
          "name": "description",
          "type": "string"
        },
        {
          "internalType": "string",
          "name": "initialEncryptedState",
          "type": "string"
        }
      ],
      "name": "createMarket",
      "outputs": [
        {
          "internalType": "uint256",
          "name": "",
          "type": "uint256"
        }
      ],
      "stateMutability": "nonpayable",
      "type": "function"
    },
    {
      "inputs": [
        {
          "internalType": "uint256",
          "name": "marketId",
          "type": "uint256"
        }
      ],
      "name": "finishBetting",
      "outputs": [],
      "stateMutability": "nonpayable",
      "type": "function"
    },
    {
      "inputs": [],
      "name": "getAllMarketIds",
      "outputs": [
        {
          "internalType": "uint256[]",
          "name": "",
          "type": "uint256[]"
        }
      ],
      "stateMutability": "view",
      "type": "function"
    },
    {
      "inputs": [],
      "name": "getContractBalance",
      "outputs": [
        {
          "internalType": "uint256",
          "name": "",
          "type": "uint256"
        }
      ],
      "stateMutability": "view",
      "type": "function"
    },
    {
      "inputs": [
        {
          "internalType": "uint256",
          "name": "marketId",
          "type": "uint256"
        }
      ],
      "name": "getCurrentState",
      "outputs": [
        {
          "internalType": "string",
          "name": "",
          "type": "string"
        }
      ],
      "stateMutability": "view",
      "type": "function"
    },
    {
      "inputs": [
        {
          "internalType": "uint256",
          "name": "marketId",
          "type": "uint256"
        }
      ],
      "name": "getMarket",
      "outputs": [
        {
          "components": [
            {
              "internalType": "uint256",
              "name": "marketId",
              "type": "uint256"
            },
            {
              "internalType": "string",
              "name": "title",
              "type": "string"
            },
            {
              "internalType": "string",
              "name": "description",
              "type": "string"
            },
            {
              "internalType": "string",
              "name": "encryptedState",
              "type": "string"
            },
            {
              "internalType": "enum PrivateBetting.BettingStatus",
              "name": "status",
              "type": "uint8"
            },
            {
              "internalType": "bool",
              "name": "bettingFinished",
              "type": "bool"
            },
            {
              "internalType": "uint256",
              "name": "createdAt",
              "type": "uint256"
            },
            {
              "internalType": "uint256",
              "name": "totalVolume",
              "type": "uint256"
            }
          ],
          "internalType": "struct PrivateBetting.Market",
          "name": "",
          "type": "tuple"
        }
      ],
      "stateMutability": "view",
      "type": "function"
    },
    {
      "inputs": [
        {
          "internalType": "uint256",
          "name": "marketId",
          "type": "uint256"
        },
        {
          "internalType": "address",
          "name": "wallet",
          "type": "address"
        }
      ],
      "name": "getPayoutAmount",
      "outputs": [
        {
          "internalType": "uint256",
          "name": "",
          "type": "uint256"
        }
      ],
      "stateMutability": "view",
      "type": "function"
    },
    {
      "inputs": [],
      "name": "getTokenAddress",
      "outputs": [
        {
          "internalType": "address",
          "name": "",
          "type": "address"
        }
      ],
      "stateMutability": "view",
      "type": "function"
    },
    {
      "inputs": [
        {
          "internalType": "uint256",
          "name": "",
          "type": "uint256"
        },
        {
          "internalType": "address",
          "name": "",
          "type": "address"
        }
      ],
      "name": "hasClaimed",
      "outputs": [
        {
          "internalType": "bool",
          "name": "",
          "type": "bool"
        }
      ],
      "stateMutability": "view",
      "type": "function"
    },
    {
      "inputs": [
        {
          "internalType": "uint256",
          "name": "marketId",
          "type": "uint256"
        },
        {
          "internalType": "address",
          "name": "wallet",
          "type": "address"
        }
      ],
      "name": "hasClaimedPayout",
      "outputs": [
        {
          "internalType": "bool",
          "name": "",
          "type": "bool"
        }
      ],
      "stateMutability": "view",
      "type": "function"
    },
    {
      "inputs": [],
      "name": "marketCount",
      "outputs": [
        {
          "internalType": "uint256",
          "name": "",
          "type": "uint256"
        }
      ],
      "stateMutability": "view",
      "type": "function"
    },
    {
      "inputs": [
        {
          "internalType": "uint256",
          "name": "",
          "type": "uint256"
        }
      ],
      "name": "markets",
      "outputs": [
        {
          "internalType": "uint256",
          "name": "marketId",
          "type": "uint256"
        },
        {
          "internalType": "string",
          "name": "title",
          "type": "string"
        },
        {
          "internalType": "string",
          "name": "description",
          "type": "string"
        },
        {
          "internalType": "string",
          "name": "encryptedState",
          "type": "string"
        },
        {
          "internalType": "enum PrivateBetting.BettingStatus",
          "name": "status",
          "type": "uint8"
        },
        {
          "internalType": "bool",
          "name": "bettingFinished",
          "type": "bool"
        },
        {
          "internalType": "uint256",
          "name": "createdAt",
          "type": "uint256"
        },
        {
          "internalType": "uint256",
          "name": "totalVolume",
          "type": "uint256"
        }
      ],
      "stateMutability": "view",
      "type": "function"
    },
    {
      "inputs": [
        {
          "internalType": "uint256",
          "name": "",
          "type": "uint256"
        },
        {
          "internalType": "address",
          "name": "",
          "type": "address"
        }
      ],
      "name": "payouts",
      "outputs": [
        {
          "internalType": "uint256",
          "name": "",
          "type": "uint256"
        }
      ],
      "stateMutability": "view",
      "type": "function"
    },
    {
      "inputs": [
        {
          "internalType": "uint256",
          "name": "marketId",
          "type": "uint256"
        },
        {
          "internalType": "address[]",
          "name": "winners",
          "type": "address[]"
        },
        {
          "internalType": "uint256[]",
          "name": "amounts",
          "type": "uint256[]"
        },
        {
          "internalType": "bool",
          "name": "isLastBatch",
          "type": "bool"
        }
      ],
      "name": "setPayouts",
      "outputs": [],
      "stateMutability": "nonpayable",
      "type": "function"
    },
    {
      "inputs": [],
      "name": "token",
      "outputs": [
        {
          "internalType": "contract IERC20",
          "name": "",
          "type": "address"
        }
      ],
      "stateMutability": "view",
      "type": "function"
    },
    {
      "inputs": [
        {
          "internalType": "uint256",
          "name": "marketId",
          "type": "uint256"
        },
        {
          "internalType": "string",
          "name": "newEncryptedState",
          "type": "string"
        }
      ],
      "name": "updateState",
      "outputs": [],
      "stateMutability": "nonpayable",
      "type": "function"
    },
    {
      "inputs": [
        {
          "internalType": "uint256",
          "name": "marketId",
          "type": "uint256"
        },
        {
          "internalType": "string",
          "name": "encryptedVote",
          "type": "string"
        },
        {
          "internalType": "string",
          "name": "encryptedSymKey",
          "type": "string"
        },
        {
          "internalType": "string",
          "name": "capsule",
          "type": "string"
        },
        {
          "internalType": "uint256",
          "name": "amount",
          "type": "uint256"
        }
      ],
      "name": "vote",
      "outputs": [],
      "stateMutability": "nonpayable",
      "type": "function"
    }
  ],
  "bytecode": "0x60806040523480156200001157600080fd5b506040516200339c3803806200339c833981810160405281019062000037919062000131565b336000806101000a81548173ffffffffffffffffffffffffffffffffffffffff021916908373ffffffffffffffffffffffffffffffffffffffff16021790555080600160006101000a81548173ffffffffffffffffffffffffffffffffffffffff021916908373ffffffffffffffffffffffffffffffffffffffff16021790555060006002819055505062000163565b600080fd5b600073ffffffffffffffffffffffffffffffffffffffff82169050919050565b6000620000f982620000cc565b9050919050565b6200010b81620000ec565b81146200011757600080fd5b50565b6000815190506200012b8162000100565b92915050565b6000602082840312156200014a5762000149620000c7565b5b60006200015a848285016200011a565b91505092915050565b61322980620001736000396000f3fe608060405234801561001057600080fd5b50600436106101215760003560e01c80638a69614e116100ad578063e8429b9e11610071578063e8429b9e14610333578063eb44fdd314610363578063ec97908214610393578063f851a440146103b1578063fc0c546a146103cf57610121565b80638a69614e14610276578063b1283e7714610292578063b85ed636146102c9578063c0bbc9f1146102e7578063d96860ad1461030357610121565b80635352359f116100f45780635352359f146101c05780635748c130146101dc578063694db8611461020c5780636f9fb98a14610228578063873f6f9e1461024657610121565b806310fe9ae814610126578063163d0af41461014457806334633f90146101605780634c725ab514610190575b600080fd5b61012e6103ed565b60405161013b9190611c08565b60405180910390f35b61015e60048036038101906101599190611eed565b610417565b005b61017a60048036038101906101759190611f8c565b6106ec565b6040516101879190611fdb565b60405180910390f35b6101aa60048036038101906101a59190611f8c565b61078d565b6040516101b79190611fdb565b60405180910390f35b6101da60048036038101906101d591906120ab565b6107b2565b005b6101f660048036038101906101f1919061217a565b610a31565b6040516102039190612226565b60405180910390f35b6102266004803603810190610221919061217a565b610b1f565b005b610230610d3d565b60405161023d9190611fdb565b60405180910390f35b610260600480360381019061025b9190611f8c565b610de0565b60405161026d9190612257565b60405180910390f35b610290600480360381019061028b919061217a565b610e0f565b005b6102ac60048036038101906102a7919061217a565b6111ff565b6040516102c09897969594939291906122e9565b60405180910390f35b6102d16113f9565b6040516102de919061243a565b60405180910390f35b61030160048036038101906102fc919061245c565b611492565b005b61031d600480360381019061031891906124b8565b6115c4565b60405161032a9190611fdb565b60405180910390f35b61034d60048036038101906103489190611f8c565b6117d2565b60405161035a9190612257565b60405180910390f35b61037d6004803603810190610378919061217a565b611880565b60405161038a9190612685565b60405180910390f35b61039b611b1e565b6040516103a89190611fdb565b60405180910390f35b6103b9611b24565b6040516103c69190611c08565b60405180910390f35b6103d7611b48565b6040516103e49190612706565b60405180910390f35b6000600160009054906101000a900473ffffffffffffffffffffffffffffffffffffffff16905090565b60008054906101000a900473ffffffffffffffffffffffffffffffffffffffff1673ffffffffffffffffffffffffffffffffffffffff163373ffffffffffffffffffffffffffffffffffffffff16146104a5576040517f08c379a000000000000000000000000000000000000000000000000000000000815260040161049c9061276d565b60405180910390fd5b8360025481106104ea576040517f08c379a00000000000000000000000000000000000000000000000000000000081526004016104e1906127d9565b60405180910390fd5b84600160028111156104ff576104fe612272565b5b6003600083815260200190815260200160002060040160009054906101000a900460ff16600281111561053557610534612272565b5b14610575576040517f08c379a000000000000000000000000000000000000000000000000000000000815260040161056c9061286b565b60405180910390fd5b83518551146105b9576040517f08c379a00000000000000000000000000000000000000000000000000000000081526004016105b0906128d7565b60405180910390fd5b60005b8551811015610661578481815181106105d8576105d76128f7565b5b6020026020010151600460008981526020019081526020016000206000888481518110610608576106076128f7565b5b602002602001015173ffffffffffffffffffffffffffffffffffffffff1673ffffffffffffffffffffffffffffffffffffffff16815260200190815260200160002081905550808061065990612955565b9150506105bc565b5082156106e45760026003600088815260200190815260200160002060040160006101000a81548160ff021916908360028111156106a2576106a1612272565b5b0217905550857fa30a10c8978183a0cb62788eec9a87a5ea1f860dbe2605d7fa06b73e7b61242e865160006040516106db9291906129d8565b60405180910390a25b505050505050565b6000826002548110610733576040517f08c379a000000000000000000000000000000000000000000000000000000000815260040161072a906127d9565b60405180910390fd5b6004600085815260200190815260200160002060008473ffffffffffffffffffffffffffffffffffffffff1673ffffffffffffffffffffffffffffffffffffffff1681526020019081526020016000205491505092915050565b6004602052816000526040600020602052806000526040600020600091509150505481565b8460025481106107f7576040517f08c379a00000000000000000000000000000000000000000000000000000000081526004016107ee906127d9565b60405180910390fd5b856000600281111561080c5761080b612272565b5b6003600083815260200190815260200160002060040160009054906101000a900460ff16600281111561084257610841612272565b5b14610882576040517f08c379a000000000000000000000000000000000000000000000000000000000815260040161087990612a4d565b60405180910390fd5b600083116108c5576040517f08c379a00000000000000000000000000000000000000000000000000000000081526004016108bc90612ab9565b60405180910390fd5b600160009054906101000a900473ffffffffffffffffffffffffffffffffffffffff1673ffffffffffffffffffffffffffffffffffffffff166323b872dd3330866040518463ffffffff1660e01b815260040161092493929190612ad9565b6020604051808303816000875af1158015610943573d6000803e3d6000fd5b505050506040513d601f19601f820116820180604052508101906109679190612b25565b6109a6576040517f08c379a000000000000000000000000000000000000000000000000000000000815260040161099d90612b9e565b60405180910390fd5b826003600089815260200190815260200160002060060160008282546109cc9190612bbe565b925050819055503373ffffffffffffffffffffffffffffffffffffffff16877f1d1da12838aeccab6f35aeca09e9bd8d5cf850b96adab93882522ffab897f44488888888604051610a209493929190612bf2565b60405180910390a350505050505050565b6060816002548110610a78576040517f08c379a0000000000000000000000000000000000000000000000000000000008152600401610a6f906127d9565b60405180910390fd5b600360008481526020019081526020016000206003018054610a9990612c7b565b80601f0160208091040260200160405190810160405280929190818152602001828054610ac590612c7b565b8015610b125780601f10610ae757610100808354040283529160200191610b12565b820191906000526020600020905b815481529060010190602001808311610af557829003601f168201915b5050505050915050919050565b60008054906101000a900473ffffffffffffffffffffffffffffffffffffffff1673ffffffffffffffffffffffffffffffffffffffff163373ffffffffffffffffffffffffffffffffffffffff1614610bad576040517f08c379a0000000000000000000000000000000000000000000000000000000008152600401610ba49061276d565b60405180910390fd5b806002548110610bf2576040517f08c379a0000000000000000000000000000000000000000000000000000000008152600401610be9906127d9565b60405180910390fd5b8160006002811115610c0757610c06612272565b5b6003600083815260200190815260200160002060040160009054906101000a900460ff166002811115610c3d57610c3c612272565b5b14610c7d576040517f08c379a0000000000000000000000000000000000000000000000000000000008152600401610c7490612a4d565b60405180910390fd5b60016003600085815260200190815260200160002060040160006101000a81548160ff02191690836002811115610cb757610cb6612272565b5b021790555060016003600085815260200190815260200160002060040160016101000a81548160ff021916908315150217905550827f21fea16c68258ef02d831126b555e3422798a8a284e38fedeb66169de91ef26260036000868152602001908152602001600020600301604051610d309190612d6b565b60405180910390a2505050565b6000600160009054906101000a900473ffffffffffffffffffffffffffffffffffffffff1673ffffffffffffffffffffffffffffffffffffffff166370a08231306040518263ffffffff1660e01b8152600401610d9a9190611c08565b602060405180830381865afa158015610db7573d6000803e3d6000fd5b505050506040513d601f19601f82011682018060405250810190610ddb9190612db5565b905090565b60056020528160005260406000206020528060005260406000206000915091509054906101000a900460ff1681565b806002548110610e54576040517f08c379a0000000000000000000000000000000000000000000000000000000008152600401610e4b906127d9565b60405180910390fd5b600280811115610e6757610e66612272565b5b6003600084815260200190815260200160002060040160009054906101000a900460ff166002811115610e9d57610e9c612272565b5b14610edd576040517f08c379a0000000000000000000000000000000000000000000000000000000008152600401610ed490612e2e565b60405180910390fd5b60006004600084815260200190815260200160002060003373ffffffffffffffffffffffffffffffffffffffff1673ffffffffffffffffffffffffffffffffffffffff1681526020019081526020016000205411610f70576040517f08c379a0000000000000000000000000000000000000000000000000000000008152600401610f6790612e9a565b60405180910390fd5b6005600083815260200190815260200160002060003373ffffffffffffffffffffffffffffffffffffffff1673ffffffffffffffffffffffffffffffffffffffff16815260200190815260200160002060009054906101000a900460ff161561100e576040517f08c379a000000000000000000000000000000000000000000000000000000000815260040161100590612f06565b60405180910390fd5b60006004600084815260200190815260200160002060003373ffffffffffffffffffffffffffffffffffffffff1673ffffffffffffffffffffffffffffffffffffffff16815260200190815260200160002054905060016005600085815260200190815260200160002060003373ffffffffffffffffffffffffffffffffffffffff1673ffffffffffffffffffffffffffffffffffffffff16815260200190815260200160002060006101000a81548160ff021916908315150217905550600160009054906101000a900473ffffffffffffffffffffffffffffffffffffffff1673ffffffffffffffffffffffffffffffffffffffff1663a9059cbb33836040518363ffffffff1660e01b8152600401611129929190612f26565b6020604051808303816000875af1158015611148573d6000803e3d6000fd5b505050506040513d601f19601f8201168201806040525081019061116c9190612b25565b6111ab576040517f08c379a00000000000000000000000000000000000000000000000000000000081526004016111a290612b9e565b60405180910390fd5b3373ffffffffffffffffffffffffffffffffffffffff16837fe97cee5a4c0549d3fdc81e322b718ddf0aeb3418ec87dce4f9a7fb28d117c312836040516111f29190611fdb565b60405180910390a3505050565b600360205280600052604060002060009150905080600001549080600101805461122890612c7b565b80601f016020809104026020016040519081016040528092919081815260200182805461125490612c7b565b80156112a15780601f10611276576101008083540402835291602001916112a1565b820191906000526020600020905b81548152906001019060200180831161128457829003601f168201915b5050505050908060020180546112b690612c7b565b80601f01602080910402602001604051908101604052809291908181526020018280546112e290612c7b565b801561132f5780601f106113045761010080835404028352916020019161132f565b820191906000526020600020905b81548152906001019060200180831161131257829003601f168201915b50505050509080600301805461134490612c7b565b80601f016020809104026020016040519081016040528092919081815260200182805461137090612c7b565b80156113bd5780601f10611392576101008083540402835291602001916113bd565b820191906000526020600020905b8154815290600101906020018083116113a057829003601f168201915b5050505050908060040160009054906101000a900460ff16908060040160019054906101000a900460ff16908060050154908060060154905088565b6060600060025467ffffffffffffffff81111561141957611418611c83565b5b6040519080825280602002602001820160405280156114475781602001602082028036833780820191505090505b50905060005b60025481101561148a578082828151811061146b5761146a6128f7565b5b602002602001018181525050808061148290612955565b91505061144d565b508091505090565b8160025481106114d7576040517f08c379a00000000000000000000000000000000000000000000000000000000081526004016114ce906127d9565b60405180910390fd5b82600060028111156114ec576114eb612272565b5b6003600083815260200190815260200160002060040160009054906101000a900460ff16600281111561152257611521612272565b5b14611562576040517f08c379a000000000000000000000000000000000000000000000000000000000815260040161155990612a4d565b60405180910390fd5b8260036000868152602001908152602001600020600301908161158591906130dc565b50837f771d8231d98117b292d0f5560da5e8571ea2da00116acefb42226fe4353d5912846040516115b69190612226565b60405180910390a250505050565b60008060009054906101000a900473ffffffffffffffffffffffffffffffffffffffff1673ffffffffffffffffffffffffffffffffffffffff163373ffffffffffffffffffffffffffffffffffffffff1614611655576040517f08c379a000000000000000000000000000000000000000000000000000000000815260040161164c9061276d565b60405180910390fd5b600060025490506040518061010001604052808281526020018681526020018581526020018481526020016000600281111561169457611693612272565b5b81526020016000151581526020014281526020016000815250600360008381526020019081526020016000206000820151816000015560208201518160010190816116df91906130dc565b5060408201518160020190816116f591906130dc565b50606082015181600301908161170b91906130dc565b5060808201518160040160006101000a81548160ff0219169083600281111561173757611736612272565b5b021790555060a08201518160040160016101000a81548160ff02191690831515021790555060c0820151816005015560e082015181600601559050506002600081548092919061178690612955565b9190505550807f5efbba1029bf313d611dcc18db8c401465f4a191b59cc799da765ddbafa68e708686426040516117bf939291906131ae565b60405180910390a2809150509392505050565b6000826002548110611819576040517f08c379a0000000000000000000000000000000000000000000000000000000008152600401611810906127d9565b60405180910390fd5b6005600085815260200190815260200160002060008473ffffffffffffffffffffffffffffffffffffffff1673ffffffffffffffffffffffffffffffffffffffff16815260200190815260200160002060009054906101000a900460ff1691505092915050565b611888611b6e565b8160025481106118cd576040517f08c379a00000000000000000000000000000000000000000000000000000000081526004016118c4906127d9565b60405180910390fd5b60036000848152602001908152602001600020604051806101000160405290816000820154815260200160018201805461190690612c7b565b80601f016020809104026020016040519081016040528092919081815260200182805461193290612c7b565b801561197f5780601f106119545761010080835404028352916020019161197f565b820191906000526020600020905b81548152906001019060200180831161196257829003601f168201915b5050505050815260200160028201805461199890612c7b565b80601f01602080910402602001604051908101604052809291908181526020018280546119c490612c7b565b8015611a115780601f106119e657610100808354040283529160200191611a11565b820191906000526020600020905b8154815290600101906020018083116119f457829003601f168201915b50505050508152602001600382018054611a2a90612c7b565b80601f0160208091040260200160405190810160405280929190818152602001828054611a5690612c7b565b8015611aa35780601f10611a7857610100808354040283529160200191611aa3565b820191906000526020600020905b815481529060010190602001808311611a8657829003601f168201915b505050505081526020016004820160009054906101000a900460ff166002811115611ad157611ad0612272565b5b6002811115611ae357611ae2612272565b5b81526020016004820160019054906101000a900460ff1615151515815260200160058201548152602001600682015481525050915050919050565b60025481565b60008054906101000a900473ffffffffffffffffffffffffffffffffffffffff1681565b600160009054906101000a900473ffffffffffffffffffffffffffffffffffffffff1681565b6040518061010001604052806000815260200160608152602001606081526020016060815260200160006002811115611baa57611ba9612272565b5b815260200160001515815260200160008152602001600081525090565b600073ffffffffffffffffffffffffffffffffffffffff82169050919050565b6000611bf282611bc7565b9050919050565b611c0281611be7565b82525050565b6000602082019050611c1d6000830184611bf9565b92915050565b6000604051905090565b600080fd5b600080fd5b6000819050919050565b611c4a81611c37565b8114611c5557600080fd5b50565b600081359050611c6781611c41565b92915050565b600080fd5b6000601f19601f8301169050919050565b7f4e487b7100000000000000000000000000000000000000000000000000000000600052604160045260246000fd5b611cbb82611c72565b810181811067ffffffffffffffff82111715611cda57611cd9611c83565b5b80604052505050565b6000611ced611c23565b9050611cf98282611cb2565b919050565b600067ffffffffffffffff821115611d1957611d18611c83565b5b602082029050602081019050919050565b600080fd5b611d3881611be7565b8114611d4357600080fd5b50565b600081359050611d5581611d2f565b92915050565b6000611d6e611d6984611cfe565b611ce3565b90508083825260208201905060208402830185811115611d9157611d90611d2a565b5b835b81811015611dba5780611da68882611d46565b845260208401935050602081019050611d93565b5050509392505050565b600082601f830112611dd957611dd8611c6d565b5b8135611de9848260208601611d5b565b91505092915050565b600067ffffffffffffffff821115611e0d57611e0c611c83565b5b602082029050602081019050919050565b6000611e31611e2c84611df2565b611ce3565b90508083825260208201905060208402830185811115611e5457611e53611d2a565b5b835b81811015611e7d5780611e698882611c58565b845260208401935050602081019050611e56565b5050509392505050565b600082601f830112611e9c57611e9b611c6d565b5b8135611eac848260208601611e1e565b91505092915050565b60008115159050919050565b611eca81611eb5565b8114611ed557600080fd5b50565b600081359050611ee781611ec1565b92915050565b60008060008060808587031215611f0757611f06611c2d565b5b6000611f1587828801611c58565b945050602085013567ffffffffffffffff811115611f3657611f35611c32565b5b611f4287828801611dc4565b935050604085013567ffffffffffffffff811115611f6357611f62611c32565b5b611f6f87828801611e87565b9250506060611f8087828801611ed8565b91505092959194509250565b60008060408385031215611fa357611fa2611c2d565b5b6000611fb185828601611c58565b9250506020611fc285828601611d46565b9150509250929050565b611fd581611c37565b82525050565b6000602082019050611ff06000830184611fcc565b92915050565b600080fd5b600067ffffffffffffffff82111561201657612015611c83565b5b61201f82611c72565b9050602081019050919050565b82818337600083830152505050565b600061204e61204984611ffb565b611ce3565b90508281526020810184848401111561206a57612069611ff6565b5b61207584828561202c565b509392505050565b600082601f83011261209257612091611c6d565b5b81356120a284826020860161203b565b91505092915050565b600080600080600060a086880312156120c7576120c6611c2d565b5b60006120d588828901611c58565b955050602086013567ffffffffffffffff8111156120f6576120f5611c32565b5b6121028882890161207d565b945050604086013567ffffffffffffffff81111561212357612122611c32565b5b61212f8882890161207d565b935050606086013567ffffffffffffffff8111156121505761214f611c32565b5b61215c8882890161207d565b925050608061216d88828901611c58565b9150509295509295909350565b6000602082840312156121905761218f611c2d565b5b600061219e84828501611c58565b91505092915050565b600081519050919050565b600082825260208201905092915050565b60005b838110156121e15780820151818401526020810190506121c6565b60008484015250505050565b60006121f8826121a7565b61220281856121b2565b93506122128185602086016121c3565b61221b81611c72565b840191505092915050565b6000602082019050818103600083015261224081846121ed565b905092915050565b61225181611eb5565b82525050565b600060208201905061226c6000830184612248565b92915050565b7f4e487b7100000000000000000000000000000000000000000000000000000000600052602160045260246000fd5b600381106122b2576122b1612272565b5b50565b60008190506122c3826122a1565b919050565b60006122d3826122b5565b9050919050565b6122e3816122c8565b82525050565b6000610100820190506122ff600083018b611fcc565b8181036020830152612311818a6121ed565b9050818103604083015261232581896121ed565b9050818103606083015261233981886121ed565b905061234860808301876122da565b61235560a0830186612248565b61236260c0830185611fcc565b61236f60e0830184611fcc565b9998505050505050505050565b600081519050919050565b600082825260208201905092915050565b6000819050602082019050919050565b6123b181611c37565b82525050565b60006123c383836123a8565b60208301905092915050565b6000602082019050919050565b60006123e78261237c565b6123f18185612387565b93506123fc83612398565b8060005b8381101561242d57815161241488826123b7565b975061241f836123cf565b925050600181019050612400565b5085935050505092915050565b6000602082019050818103600083015261245481846123dc565b905092915050565b6000806040838503121561247357612472611c2d565b5b600061248185828601611c58565b925050602083013567ffffffffffffffff8111156124a2576124a1611c32565b5b6124ae8582860161207d565b9150509250929050565b6000806000606084860312156124d1576124d0611c2d565b5b600084013567ffffffffffffffff8111156124ef576124ee611c32565b5b6124fb8682870161207d565b935050602084013567ffffffffffffffff81111561251c5761251b611c32565b5b6125288682870161207d565b925050604084013567ffffffffffffffff81111561254957612548611c32565b5b6125558682870161207d565b9150509250925092565b600082825260208201905092915050565b600061257b826121a7565b612585818561255f565b93506125958185602086016121c3565b61259e81611c72565b840191505092915050565b6125b2816122c8565b82525050565b6125c181611eb5565b82525050565b6000610100830160008301516125e060008601826123a8565b50602083015184820360208601526125f88282612570565b915050604083015184820360408601526126128282612570565b9150506060830151848203606086015261262c8282612570565b915050608083015161264160808601826125a9565b5060a083015161265460a08601826125b8565b5060c083015161266760c08601826123a8565b5060e083015161267a60e08601826123a8565b508091505092915050565b6000602082019050818103600083015261269f81846125c7565b905092915050565b6000819050919050565b60006126cc6126c76126c284611bc7565b6126a7565b611bc7565b9050919050565b60006126de826126b1565b9050919050565b60006126f0826126d3565b9050919050565b612700816126e5565b82525050565b600060208201905061271b60008301846126f7565b92915050565b7f4f6e6c792061646d696e2063616e2063616c6c20746869730000000000000000600082015250565b60006127576018836121b2565b915061276282612721565b602082019050919050565b600060208201905081810360008301526127868161274a565b9050919050565b7f4d61726b657420646f6573206e6f742065786973740000000000000000000000600082015250565b60006127c36015836121b2565b91506127ce8261278d565b602082019050919050565b600060208201905081810360008301526127f2816127b6565b9050919050565b7f42657474696e67206e6f742066696e6973686564206f72207061796f7574732060008201527f616c726561647920736574000000000000000000000000000000000000000000602082015250565b6000612855602b836121b2565b9150612860826127f9565b604082019050919050565b6000602082019050818103600083015261288481612848565b9050919050565b7f417272617973206c656e677468206d69736d6174636800000000000000000000600082015250565b60006128c16016836121b2565b91506128cc8261288b565b602082019050919050565b600060208201905081810360008301526128f0816128b4565b9050919050565b7f4e487b7100000000000000000000000000000000000000000000000000000000600052603260045260246000fd5b7f4e487b7100000000000000000000000000000000000000000000000000000000600052601160045260246000fd5b600061296082611c37565b91507fffffffffffffffffffffffffffffffffffffffffffffffffffffffffffffffff820361299257612991612926565b5b600182019050919050565b6000819050919050565b60006129c26129bd6129b88461299d565b6126a7565b611c37565b9050919050565b6129d2816129a7565b82525050565b60006040820190506129ed6000830185611fcc565b6129fa60208301846129c9565b9392505050565b7f42657474696e67206973206e6f74206163746976650000000000000000000000600082015250565b6000612a376015836121b2565b9150612a4282612a01565b602082019050919050565b60006020820190508181036000830152612a6681612a2a565b9050919050565b7f4d75737420626574206120706f73697469766520616d6f756e74000000000000600082015250565b6000612aa3601a836121b2565b9150612aae82612a6d565b602082019050919050565b60006020820190508181036000830152612ad281612a96565b9050919050565b6000606082019050612aee6000830186611bf9565b612afb6020830185611bf9565b612b086040830184611fcc565b949350505050565b600081519050612b1f81611ec1565b92915050565b600060208284031215612b3b57612b3a611c2d565b5b6000612b4984828501612b10565b91505092915050565b7f546f6b656e207472616e73666572206661696c65640000000000000000000000600082015250565b6000612b886015836121b2565b9150612b9382612b52565b602082019050919050565b60006020820190508181036000830152612bb781612b7b565b9050919050565b6000612bc982611c37565b9150612bd483611c37565b9250828201905080821115612bec57612beb612926565b5b92915050565b60006080820190508181036000830152612c0c81876121ed565b90508181036020830152612c2081866121ed565b90508181036040830152612c3481856121ed565b9050612c436060830184611fcc565b95945050505050565b7f4e487b7100000000000000000000000000000000000000000000000000000000600052602260045260246000fd5b60006002820490506001821680612c9357607f821691505b602082108103612ca657612ca5612c4c565b5b50919050565b50565b6000612cbc6000836121b2565b9150612cc782612cac565b600082019050919050565b60008190508160005260206000209050919050565b60008154612cf481612c7b565b612cfe81866121b2565b94506001821660008114612d195760018114612d2f57612d62565b60ff198316865281151560200286019350612d62565b612d3885612cd2565b60005b83811015612d5a57815481890152600182019150602081019050612d3b565b808801955050505b50505092915050565b60006040820190508181036000830152612d8481612caf565b90508181036020830152612d988184612ce7565b905092915050565b600081519050612daf81611c41565b92915050565b600060208284031215612dcb57612dca611c2d565b5b6000612dd984828501612da0565b91505092915050565b7f5061796f757473206e6f74207365742079657400000000000000000000000000600082015250565b6000612e186013836121b2565b9150612e2382612de2565b602082019050919050565b60006020820190508181036000830152612e4781612e0b565b9050919050565b7f4e6f207061796f757420617661696c61626c6500000000000000000000000000600082015250565b6000612e846013836121b2565b9150612e8f82612e4e565b602082019050919050565b60006020820190508181036000830152612eb381612e77565b9050919050565b7f416c726561647920636c61696d65640000000000000000000000000000000000600082015250565b6000612ef0600f836121b2565b9150612efb82612eba565b602082019050919050565b60006020820190508181036000830152612f1f81612ee3565b9050919050565b6000604082019050612f3b6000830185611bf9565b612f486020830184611fcc565b9392505050565b60006020601f8301049050919050565b600082821b905092915050565b600060088302612f9c7fffffffffffffffffffffffffffffffffffffffffffffffffffffffffffffffff82612f5f565b612fa68683612f5f565b95508019841693508086168417925050509392505050565b6000612fd9612fd4612fcf84611c37565b6126a7565b611c37565b9050919050565b6000819050919050565b612ff383612fbe565b613007612fff82612fe0565b848454612f6c565b825550505050565b600090565b61301c61300f565b613027818484612fea565b505050565b5b8181101561304b57613040600082613014565b60018101905061302d565b5050565b601f8211156130905761306181612cd2565b61306a84612f4f565b81016020851015613079578190505b61308d61308585612f4f565b83018261302c565b50505b505050565b600082821c905092915050565b60006130b360001984600802613095565b1980831691505092915050565b60006130cc83836130a2565b9150826002028217905092915050565b6130e5826121a7565b67ffffffffffffffff8111156130fe576130fd611c83565b5b6131088254612c7b565b61311382828561304f565b600060209050601f8311600181146131465760008415613134578287015190505b61313e85826130c0565b8655506131a6565b601f19841661315486612cd2565b60005b8281101561317c57848901518255600182019150602085019450602081019050613157565b868310156131995784890151613195601f8916826130a2565b8355505b6001600288020188555050505b505050505050565b600060608201905081810360008301526131c881866121ed565b905081810360208301526131dc81856121ed565b90506131eb6040830184611fcc565b94935050505056fea264697066735822122072003ef96494fea820b1c20881ad57cc18c74ad0d3e3c2603143e01a8d60f20764736f6c63430008140033",
  "linkReferences": {},
  "deployedLinkReferences": {}
}